:020000021000EC
:10C00000004000202DC4010069C401006BC4010080
:10C010000000000000000000000000000000000020
:10C020000000000000000000000000006DC40100DE
:10C0300000000000000000006FC4010071C4010096
:10C0400073C4010073C401009DC5010073C40100E5
:10C0500073C401000000000073C4010073C4010038
:10C0600073C4010073C4010073C4010073C40100F0
:10C0700073C4010073C4010073C4010073C40100E0
:10C0800073C4010041C6010073C4010073C4010000
:10C0900073C4010081D6010011D8010073C40100EE
:10C0A00073C4010073C40100000000000000000020
:10C0B0000000000000000000000000000000000080
:10C0C00010B5064C2378002B07D1054B002B02D06E
:10C0D000044800E000BF0123237010BD8028002029
:10C0E00000000000982D020008B5084B002B03D07B
:10C0F0000748084900E000BF07480368002B00D14B
:10C1000008BD064B002BFBD09847F9E70000000064
:10C11000982D0200842800208028002000000000C4
:10C12000164B002B00D1144B9D46402292029A1AC6
:10C13000924600218B460F461348144A121A06F005
:10C14000E8F80F4B002B00D098470E4B002B00D087
:10C1500098470020002104000D000D48002802D05F
:10C160000C4800E000BF03F085FA2000290004F02D
:10C1700008FF03F0CDF9C046000008000040002091
:10C18000000000000000000080280020A42F0020F4
:10C19000000000000000000008B50023084A995C78
:10C1A000C25C91420BD10133062BF7D1C268437AAE
:10C1B000C179D318013B1A78024803F033FB08BD5C
:10C1C000DA2E00200C2B020073B5314803F044FB3B
:10C1D0000024304801A903F0EBFB2F4B019AE254F5
:10C1E0000134062CF5D12D4D281C04F0A5FF031EAB
:10C1F0001BD12B4E301C03F02FFB281C04F0A6FE95
:10C20000FA212C304900041C00F0A8FB031E39D190
:10C21000201CC82100F0BAFB031E33D1191C201CBE
:10C2200004F085FF031E04D02CE01E481E49422264
:10C2300024E00121201C04F07DFF301C03F00CFBE6
:10C24000281C04F083FE011C03682C31DB6C041CE9
:10C250009847051E0ED1231C01225C331A70134B24
:10C260008C342360301C03F0F7FA114803F0F4FA21
:10C27000281C0BE044222B1C0A480E4903F0D2FA7A
:10C28000012003E007480C494322F7E776BDC0468A
:10C29000252B02003B2B0200DA2E00209C280020D8
:10C2A0003E2B02004B2B0200762B020099C10100AD
:10C2B000812B0200922B0200BD2B020008B500F07A
:10C2C000B1FB014B186008BD9C28002008B5054B48
:10C2D0001B68002B04D1044809210B2200F0FEF852
:10C2E00008BDC046A0290020982F002008B5031CD7
:10C2F0000020022B0DDD0749033B9B005A58585084
:10C30000824204D01368101C5B68984701E001204A
:10C31000404208BDA028002070B50C1C151C022846
:10C3200010DC0F4B1B68002B01D1FFF7CFFF661904
:10C33000B44205D021780B4800F056F90134F7E7F4
:10C34000281C0BE00338084B8000C058002803D09D
:10C3500003681B68984701E00120404270BDC04659
:10C36000A0290020982F0020A028002010B50C1C28
:10C3700002280BDC0C4B1B68002B01D1FFF7A6FF3A
:10C380000A4804F091FE207001200BE00338084BAE
:10C390008000C058002803D003689B68984701E0DC
:10C3A0000120404210BDC046A0290020982F002047
:10C3B000A028002008B5031C0120022B0BDD033B45
:10C3C000054A9B009858002803D00368DB6898470B
:10C3D00001E00120404208BDA028002008B5031C50
:10C3E0000020022B0BDD033B05489B00185800285A
:10C3F00003D003681B69984701E00120404208BD53
:10C40000A0280020074A13681818EFF30881884213
:10C4100005D30C220120044B40421A6001E0106059
:10C42000181C704704280020A02F0020084802682C
:10C4300003210A4302600749074A084B9B1A03DDA0
:10C44000043BC858D050FBDC0548804705480047EE
:10C4500024050040A42D0200002800208028002090
:10C4600041C8010021C10100FEE7FEE7FEE7FEE74B
:10C47000FEE7FEE701704B1C0AD001238B404360AE
:10C48000044BC360044B0361044B4361044B836062
:10C490007047C046080500500C05005010050050BC
:10C4A00014050050012310B50A4ADC00A458A1422B
:10C4B00007DA013BDB00D3185A680168064BCA5003
:10C4C00007E00133112BEFD180210268024B4905AF
:10C4D000D15010BDC029020024050000F8B50F1C82
:10C4E0000121264BB9400360A023254CDB05161C17
:10C4F0001A59051C0A4380211A511A5949000A4346
:10C50000FF39B1401A511A598A431A5119591D4A13
:10C510000A4096211A518901FFF7C4FF0022042026
:10C520002B6819495A506C3958500121996019608B
:10C53000191CFC31CA6015495A506A60A1220821B1
:10C54000D2009950124A02319F50121899501E5130
:10C550007B1C03D0381C073904F096FD731C03D0F4
:10C56000301C032104F090FD01220A4B291C1A60A3
:10C570000948073205F0B0FEF8BDC0460020004073
:10C5800014050000FFFBFFFF6C0500001C05000008
:10C590000C050000A0290020982F002008B5C12319
:10C5A0000D4A9B00D158090603D50C49096A002998
:10C5B00008D1D3585B070DD5084B0021DB68002B51
:10C5C00001D107E00121064B1868002802D0054B75
:10C5D0001B68984708BDC04600200040FC20004072
:10C5E000A4290020A829002003681A1CFC32106A24
:10C5F0000128FAD100201062014AC9B2995070474F
:10C600001C0500000A480B4982680B4B002A08D021
:10C610001A6801321A6000228260D222022092003F
:10C620008850064A1B688858190A1B061843704729
:10C63000FC10014000100140B0290020040500005A
:10C64000174B70B59A68002A0AD0164902200A686A
:10C6500001320A6000229A60D22213499200885067
:10C660005B6C114C002B19D0104E3378002B15D079
:10C670000F4B1D68FFF7C6FF2D1A002D0EDC0021A1
:10C68000074BD2225964802392005B02A350317081
:10C69000C22189006350A35000F0CAF870BDC046A3
:10C6A000FC100140B029002000100140E12E0020C4
:10C6B000AC29002038B5124C2378002B1ED1A121C3
:10C6C000C420104AC9005350C1390233FF395350B6
:10C6D000443953500C4980000D580C4B2B40C02559
:10C6E0002D022B430B508023012591389B02FF38EC
:10C6F0000B500B60156004F0E4FC257038BDC0469B
:10C70000E02E00200010014000E100E0FF00FFFFEC
:10C7100008B5084B1B78002B01D1FFF7CBFFFFF7C3
:10C7200071FF054A002302F0B1FC4904C00B084325
:10C7300008BDC046E02E002040420F00F8B5284B4F
:10C74000041C1B78002B01D1FFF7B4FFFFF75AFF41
:10C75000244A002302F09AFC4B04C00BCF0B184371
:10C760000026221C0023802192197B410906884261
:10C7700005D9002C03DB0020012112184B41D903FD
:10C780000023540CD003184A214380185941002338
:10C79000144A02F05BFC154D041C2B78144E002B40
:10C7A00002D0336898421AD0FFF72CFF201A0228D3
:10C7B00002DCFFF727FF841CA82122020D4B120A7E
:10C7C000C9005A502A783460002A08D101322A70F0
:10C7D0008022F9395202FF395A5044395A50F8BD73
:10C7E000E02E002040420F003F420F00E12E0020CB
:10C7F000AC29002000100140074B1A78002A09D00C
:10C800008021C220054A4902800011504030115059
:10C8100000221A707047C046E12E0020001001402F
:10C820000022024B9A605A647047C046FC100140D7
:10C8300008B5024804F058FC08BDC0465C2A020056
:10C84000234A10B51378111C012B19D1214B1B68F9
:10C850001B0715D1204BE0241A68F023101C184048
:10C8600022420BD11D4A12681A4209D11C4A1D4BA3
:10C870001A6080221C4B12021A6001E03028F1D0AD
:10C880000B68DBB2012B0DD1124A1268120709D1D5
:10C89000F021114A12680A40402A03D10F4A126857
:10C8A0000A420DD08022A3230021D205DB00D15003
:10C8B0000E4B9960013191609A68002AFCD005E026
:10C8C000C1228021D200C9058B50EBE710BDC046C4
:10C8D000E00F00F0E40F00F0E80F00F0EC0F00F0C4
:10C8E000DFFF07C004050040186C0040FC0000405A
:10C8F000F7B5FA26B6007143009308AB1B78041C09
:10C90000081C1549171C019302F00EFB85B2301C60
:10C9100025807843104902F007FB6B461B8880B2E4
:10C92000A3806B461B796080A371032D01D804237B
:10C93000238080232288DB019A4200D923800328A8
:10C9400001D80422628062889A4202D98023DB01E6
:10C950006380201CFEBDC04671020000FA239B00CC
:10C960004B4310B50749041C181C02F0DDFA83B2D2
:10C970001A1F054992B203208A4201D80020238061
:10C9800010BDC04671020000FB3F0000FA239B006F
:10C990004B4310B50749041C181C02F0C5FA83B2BA
:10C9A0001A1F054992B203208A4201D800206380F1
:10C9B00010BDC04671020000FB3F00007FB5144D62
:10C9C000144C2B78002B20D102AE301C04F0BAFBA3
:10C9D000002815D17388592B12D13378B288D91F0A
:10C9E000012904D80092201C20210B4A03E0201CBE
:10C9F00020210092094A03F011F801232B7004E072
:10CA0000201C0749202205F034FD201C04B070BD15
:10CA1000E22E0020E32E0020EB2B0200082C020067
:10CA20002D2C020000487047BC29002008B5044B9B
:10CA3000044808330449054A036005F0CEFB08BDED
:10CA4000B8270200BC2900204D1102000028002058
:10CA500073B50E1C151C0268009394682B1C321CC5
:10CA60000149A04776BDC046FFFF000073B50E1C0C
:10CA7000151C06AA117802680093019114692B1CF9
:10CA8000321C0149A04776BDFFFF000038B5064BB8
:10CA9000041C03604068002804D0C56905F099FBB8
:10CAA000281CF8E7201C38BD0028020038B5064BCA
:10CAB000041C03604068002804D0C56905F089FBA8
:10CAC000281CF8E7201C38BD1028020038B5064B9A
:10CAD000041C03604068002804D0C56905F079FB98
:10CAE000281CF8E7201C38BD2028020010B5041CC3
:10CAF000074B03601830FFF7E9FF201C1030FFF7E9
:10CB0000D5FF201C0830FFF7C1FF201C10BDC04618
:10CB100030280200F0B589B001930FAB151C1C78CA
:10CB20000E1C071C00F026FC04F079FF0023029382
:10CB30000EAB1B8802AA1380019B0393002C15D116
:10CB40003B1C7A797C3300E0013494420ED20833E6
:10CB5000191C08390988A942F6D130220A34A400E8
:10CB60003F197B680133DB7F13420AD102AA301CD4
:10CB7000291C04F021FB421E904103234042034044
:10CB800027E0B042F2D00222DB06DB0F04A9D31A61
:10CB90008B7000238B80019B0D80CB600EAB8B6074
:10CBA00004F00EFB80B2002812D008280FD00A4BE8
:10CBB00098420CD011280AD0084B984207D0301C5C
:10CBC000291C02AA04F0F8FA0323002801D1052049
:10CBD000031C181C09B0F0BD033000000134000034
:10CBE000F0B5051C95B0081C2624099100F022FE22
:10CBF00004ABE4180E900EA90120221C04F0DAFA0E
:10CC0000002801D00320C0E02388099A089093836C
:10CC1000099B089A1B7D934215D9099B9B690A932E
:10CC2000089B0A9A9B009C586369002B10D1238BA8
:10CC3000002B0DD1631CDB7F022B09D1089801303A
:10CC4000C3B20893E4E72B79002001332B719CE0F9
:10CC5000201C00F0EFFD00260E900B960A96231C78
:10CC600028331B78B3421AD9626AB3009F58002355
:10CC70000FAA137000200FA9CA1801335070102B8F
:10CC8000F8D1434B381C4B8204F021FB002803D021
:10CC90007B690A93BB8B0B930136F6B2DFE76169C0
:10CCA000631CDA7FA31CDB7F0091218B00200191A4
:10CCB000618B02910A9903910B990491211C2931EE
:10CCC00009780591211C2A310978069169790F317B
:10CCD000C9006918043107910EA904F056FF002815
:10CCE00090D16B79071C1A1C0A3292000F33AA18D4
:10CCF000DB005460EB189B88E3836B7901336B7125
:10CD0000231C28331B78BB4298D9626ABB009E580B
:10CD100000230FAA137000200FA9CA180133507006
:10CD2000102BF8D11A4B301C4B8204F0D0FA0A9029
:10CD3000002827D1301C00F07DFD728B338B0092D0
:10CD40009E225200AA5C0E909C325200AA18063213
:10CD500001920A980EA9726904F0C6FF002800D05B
:10CD600050E79E239E215B00EA5C4900531CDBB226
:10CD700046326B5492009C33AA185B005660EB1845
:10CD8000DB88F383781CC7B2BAE715B0F0BDC046A4
:10CD900001290000012370B5254D264C2A68134057
:10CDA00044D1254A2371A260244A63712261244A36
:10CDB000E360A261234A63610832E3612362636234
:10CDC000A36222600026E2180433D662502BF9D108
:10CDD000A0197C3000210822083605F09AFAA02E0E
:10CDE000F6D1221C0023FC32136253629362D36299
:10CDF000136353639363D3639E225200A35402329E
:10CE0000A3520232A3520232A3520232A35202327E
:10CE1000A3520232A3520232A3520232A352201C66
:10CE200001330949094A2B6005F0D7F9201C70BD70
:10CE3000C0290020C4290020002802001028020078
:10CE40002028020050280200EDCA0100002800201E
:10CE5000F0B5151C1E1C0F1C85B001AC00210C2266
:10CE6000201C05F056FA0A9B281CE3800B9B211C12
:10CE7000A3602770668004F0C1FB031C002083427E
:10CE800007D00530112B04D0034A9B185842584153
:10CE9000063005B0F0BDC046FCCFFFFFF7B50193EB
:10CEA0000368041C5B680E1C171C9847051C0620B1
:10CEB000002D2BD1019B089963631422E761201890
:10CEC00005F00AFA201C09991422203005F004FA12
:10CED000231C01213D33A680013B5D70301C1D7079
:10CEE00019712A1C04F086FB061C281C002E0DD08C
:10CEF0002368201C9B6898470520112E06D0044B00
:10CF00009E4202D00130072E00D10420FEBDC04653
:10CF100002300000F8B501232B4A2C4C1168171C75
:10CF20000B404FD12A4A251C08322260221C303285
:10CF30001370221DD387274A261C2261221C4C32E3
:10CF40001370221C4D321370221C4E321370221C9F
:10CF50004F321370221C5032A3752385A4641370C2
:10CF60005235B236281C002104F075FB0023AB8239
:10CF7000EB821835B542F5D1261CB4360025301C9D
:10CF80000021202205F0C5F9301D291C04F063FBA7
:10CF9000114B35767583B58320369E42EED1231C26
:10CFA000221CFC3310329D63DD631D645D649D644F
:10CFB000DA641D655D659D65DD651D665A669D6665
:10CFC00001233B60201CF8BD142B0020182B0020EF
:10CFD00090280200802802004C2C00200121074AE2
:10CFE000074813680B4007D143608360C360036147
:10CFF0004361044B116003607047C046802C0020E1
:10D00000842C0020C0280200F0B5041C8BB001F075
:10D0100067FD201C04F010FD208810380B2800D973
:10D0200096E001F077FF0636959595519595955BBD
:10D030009564A588267D00F09DF9291C04F0ECFC80
:10D04000231C1633019300F095F9021C0227A379E3
:10D0500058329C461378617B3B43476E1370002F18
:10D0600076D0624604AB1D809E70DA709972019B87
:10D07000E11D05A80622099305F02EF9211C0B20BD
:10D0800004ABC0180E31062205F026F904A8B847F3
:10D090005EE0A78800F06EF9314904F0BDFCA67986
:10D0A00000F068F9021C022158321378051C8B43EA
:10D0B0001370836E002B02D0381C311C9847281C3B
:10D0C000AC3005F05BF843E0FFF788FF4369A288C6
:10D0D000A11D002B3CD0101C984739E000F04AF904
:10D0E000036EA279002B33D0101C984730E000F07B
:10D0F00041F90126A37B051C5A07920F1E4001929D
:10D10000DB080622E11D04A8677B029305F0E4F822
:10D110006A46127904AB1A726A46127A9F71DE71FE
:10D120005A72231C0F3307938C352B68002B02D0C7
:10D1300004A8984709E06868002806D0AB69002B6E
:10D1400003D0291C04AA08319847ED69002DECD1C1
:10D15000FFF720FE211C04F002F90BB0F0BDC04621
:10D16000FFFF00001FB5A3238022DB00D205D358A8
:10D170000820DB0700D405301C4948221C4B00F076
:10D1800003FB00280AD080B2002807D1BFF34F8FDD
:10D19000184A194BDA60BFF34F8FFEE7002302A84D
:10D1A000029343600133037004F0B4FA002801D005
:10D1B000072417E0684604F0ABFA0028F8D1694666
:10D1C00004F0A4FA0028F3D10C4800F00DFB84B25F
:10D1D000002C07D10A4800F011FB84B2002C01D1C9
:10D1E00000F0DAFC201C04B010BDC0469C2C0020CE
:10D1F000211702000400FA0500ED00E009D001004B
:10D200001917020080B2002807D1BFF34F8F034ADD
:10D21000034BDA60BFF34F8FFEE770470400FA0557
:10D2200000ED00E000487047FFFF0000F0B50C780B
:10D23000021C87B00220012C29D04B88032C06D178
:10D24000A03B14489BB2834205D903201FE0203B3A
:10D250009BB21148F7E78D88104B9D42F5D80E1C04
:10D26000171C68461822002105F053F86B466A46E1
:10D270001C70738868461382558204F05DFA00289A
:10D28000E3D13A1C0121583213780B43137007B0D5
:10D29000F0BDC046603F0000E03F0000FF3F0000DF
:10D2A00030B589B01C1C6B461A70581C06220C9DA8
:10D2B00005F012F802AA002C07D023881380638897
:10D2C0005380A3889380E38806E032231380DB1821
:10D2D0005380F5339480FF33D380FC2304A908786E
:10D2E00003400B7000234B609D4206D02B880B81BE
:10D2F0006B884B81AB888B8106E0FA235B000B8146
:10D300002D3BFF3B4B818D81684604F02FFA031CB7
:10D310000020834214D00630082B11D005D80130EC
:10D32000042B0DD0834208D109E00520112B07D032
:10D33000044A934203D0102B01D0092000E00420BE
:10D3400009B030BD02320000024B0B6009231360AC
:10D350007047C046352C0200012008B5011C044A64
:10D3600000F09EF9031E00D00923181C08BDC0461A
:10D37000E5190200F7B50127354E364C35683D40BA
:10D3800063D1354B201C2360A0232571E3802581C8
:10D390000A3004F011FB8021201CC9010A1C2B1C3F
:10D3A0002C300095FFF7A4FA201C343004F004FB65
:10D3B000221C0221583213782566BB438B4313701D
:10D3C000231C5C331D706566A56625672A1C002337
:10D3D0007432A21801351370102DF7D1221C0832B7
:10D3E000D367221C88321360221C9032E3661360DC
:10D3F000191C00229431611801330A70102BF7D1E7
:10D40000231CA4331A60231CA8331A60231C201C7D
:10D410008C331A600421AC3001F048FD201C0A3026
:10D4200004F0D7FA201C343004F0D3FA0B4B01225D
:10D4300008332360231C5242BC331A800123201C72
:10D440000749084A336004F0C8FE201CFEBDC046F0
:10D45000A42D0020E42C0020E82802004829020026
:10D4600069D401000028002010B5041C034B0360A0
:10D47000AC3001F03BFD201C10BDC046E828020086
:10D4800070B50B780C1C142B1BD002D8132B05D0B5
:10D4900052E0152B1FD0222B45D04DE04E68FFF7F0
:10D4A0009DFD6368051C1888B3780122191C5C086F
:10D4B000114022406C68DB065B0F002C3CD0A0477B
:10D4C0003AE0FFF78BFD63681A8899788368101C2F
:10D4D000002B26D130E04B689A7813091207120FFF
:10D4E000012A02D0022A08D011E0013BDBB200255C
:10D4F000022B0DD8114AD55C0AE00425012B07D078
:10D50000023B5942594101354B421D4000E0002584
:10D51000FFF764FD63681A88C368002B0CD0101CE9
:10D52000291C984708E0FFF759FD63681A880369CA
:10D53000002B01D0101C9847002070BD3E2C02002B
:10D54000F0B5314E87B0347800960026B44257D1FA
:10D550001D1C01920C1C061C00F068FD002801D067
:10D5600009264DE0002D0FD0222003A9039504F0D9
:10D5700059FA002808D00626082841D01138061C80
:10D580007042464104363BE0002302AA101C13708F
:10D5900001F074F9011EE3D103AD0C22281C04F044
:10D5A000B8FE1A4B01270393102302220421687945
:10D5B000AB71EB712B7A3E403B43B843304313438E
:10D5C0003C400B436100041C07262B721C23944330
:10D5D0002A71019A0C43324092009C4314430C4838
:10D5E000291C6C7101F0BAF9002806D0042807D074
:10D5F000013E082804D0033602E0061C009B1F7081
:10D60000301C07B0F0BDC046042F002081D40100BB
:10D61000032F002008B5074801F012FA00239842B2
:10D6200006D00733042803D0013B082800D0033379
:10D63000181C08BD032F0020002373B501930F4B66
:10D6400001AD1B780E1C291C2B7001F00BFC041E75
:10D6500004D0042305280FD005330DE0281C311C0D
:10D6600001F0B6F9231C002806D00723042803D0B4
:10D67000013B082800D00333181C76BD032F00207F
:10D680000120054A08B513785840044B10701B68F8
:10D69000002B00D0984708BD052F0020A82D0020A2
:10D6A00038B50C4B051C15200C1C1A6004F0BEF993
:10D6B00000280ED11530291C04F0BAF9002808D131
:10D6C000153004F0B1F9002803D10330211C04F017
:10D6D000B1F938BDA82D0020F0B5264B85B01B78D8
:10D6E000002B45D0244B254E1D6834686A425541B5
:10D6F00062425441EDB2E4B20193002D36D103A849
:10D7000004F017FA05280CD0002804D0291C2A1C84
:10D71000FFF778FD06E0019B03981B68009398478C
:10D7200000E00125002C1ED1154B03A91B88012404
:10D730000B80144B1B68181C009304F000FA071EA2
:10D74000052F0BD0002805D000210A1CFFF75AFD39
:10D75000002403E00098336898473C1C002DCCD08F
:10D76000002CCAD004E0002D02D1C6E7002CDBD08B
:10D7700005B0F0BD062F0020B02D0020B42D0020F4
:10D78000C82E0020AC2D002038B5041C072000292D
:10D7900013D08D0711D1094801600949201C0A8066
:10D7A000084A0949136004F0C6F9002805D101228E
:10D7B000064B16301A7004F0BAF938BDAC2D0020B3
:10D7C000C82E0020B82D0020431B0200062F002089
:10D7D00008B504F0B2F9031C5A1E9341014ADBB2AA
:10D7E000137008BD062F00200E23002802D0024B24
:10D7F00018600023181C7047B42D00200E23002849
:10D8000002D0024B18600023181C7047B02D002076
:10D8100008B5074B1B68002B07D09847002806D097
:10D8200000210A1CFFF7EEFC01E0FFF755FF08BDE1
:10D83000B82D0020F0B5438A87B002930378012603
:10D84000002B3BD0002283190193214B1D680393C9
:10D85000AA4216D01121002351431E4F79189C1E55
:10D86000012C04D9019CCE5CE45CA64207D10133B3
:10D87000102BF4D111235A43BF183E7C1EE0013215
:10D88000E6E7041C019804F068F92378071C061CDD
:10D89000002B01D112340194082D0FD011246C43B8
:10D8A0000C4B01991C19201C102204F015FD0023BB
:10D8B000A370E370039B013527741D6005AB9E7058
:10D8C0005888029B00040343181C07B0F0BDC046F3
:10D8D000BC2D0020072F002073B500240226818074
:10D8E000051C3F3004700138867001AE0470081CBE
:10D8F000311C3280738004F025FA061C201CA642DD
:10D900000CD0281C04F022FA0520112E06D0044B5E
:10D910009E4202D00130102E00D1042076BDC046B8
:10D9200002300000F0B5041C89B0231C4033019381
:10D930001B78012B64D1251C201C3C353D302B78F5
:10D940000278934243D20021A71D03A803F083FE6F
:10D95000381C03A903F0BBFC002809D118212E783C
:10D96000381C71436118423103F0B1FC00282BD000
:10D97000E369002B11D0002103A803F06CFE201CEA
:10D9800003A9203003F0A3FC002806D01823287830
:10D99000584320184230E3699847019B1B78012BBC
:10D9A0000ED1636B002B0BD018232A78A188534328
:10D9B000E3185033DA88201C1B89FFF78DFFB4E78A
:10D9C0002B7801332B70B0E701362E70ADE7002ABB
:10D9D00016D0002B14D01822013B53430022E31829
:10D9E00050331989074B02702A70994203D1201CC9
:10D9F00003F055FE04E0A08804F0A2F90028F6D157
:10DA000009B0F0BDFFFF000073B5051C2B686C6901
:10DA1000002B1CD0231C032240331A700F49013203
:10DA200068466E6804F058FC18237343E3185033BB
:10DA3000D98801AA11801B8969465380A08804F007
:10DA400083F9002809D0281C04F08CF9DEE7403463
:10DA50002378032B01D1023B237073BD042B0200FA
:10DA600073B5061C33687469002B1DD0231C042277
:10DA7000114940331A7089186846756804F02CFC07
:10DA800000236D0165190193B835EB8801AA138055
:10DA900001335380A088694604F056F9002809D064
:10DAA000301C04F071F9DDE740342378042B01D1F8
:10DAB000023B237073BDC046042B02007FB5031CDC
:10DAC00040331B78041C032B30D1314B0A689A4237
:10DAD00027D100268A686946931BDB7B7354013685
:10DAE000102EF8D1251C2535FF35281C04F03AF9F5
:10DAF000182358432418231C0122201C40339A70F9
:10DB00006946321C433004F0E7FB6B466A469B785B
:10DB1000D2781B0250341343A380281CFFF774FFF4
:10DB200035E02530FF3004F01DF930E0042B2ED114
:10DB3000184B0A689A4226D100268A686946931BC8
:10DB40009B7C73540136102EF8D1251C3D35FF35D2
:10DB5000281C04F019F940012418231C0122201C60
:10DB6000A8331A706946321CA93004F0B5FB6B4625
:10DB70006A469B78D2781B02B03413436381281C19
:10DB8000FFF76EFF03E03D30FF3004F0FDF87FBD8E
:10DB900001001000010013001FB5002302AC039325
:10DBA000283323806933FF336380E380803B01A8FF
:10DBB000FF3B0D490522037004F014FA80B20028DF
:10DBC0000FD18020800004F009FA80B2002808D12B
:10DBD000201C04F005FA80B2002802D104F0FCF900
:10DBE00080B204B010BDC046412C0200142337B5EA
:10DBF0000849021C087858430B18181CDD88DC689B
:10DC000019790095044D240164590C305B69A047D3
:10DC100037BDC046C02D0020EC2D0020F7B5664C66
:10DC20001D1C2378071C002B06D1131C2B4301D18C
:10DC3000023300E00123237023780320013B052BEE
:10DC400000D9B8E0181C00950E1C151C01F062F9F3
:10DC5000032333705D968023584A5B055169013177
:10DC600005D05069196989B201F05EF900E0586980
:10DC7000802252051369116912699BB2013889B279
:10DC800092B258437143920804F0AEF9022300287F
:10DC900000D18FE08FE0081C04F0A8F9002800D024
:10DCA00089E0002D2DD1009B002B26D13B78042B41
:10DCB00021D1072322E080235B0519693F4A89B2FD
:10DCC0004E43516901311ED05069196989B201F082
:10DCD0002BF980235B051969013889B241432A1C5D
:10DCE000301C04F081F9002865D1009B002B04D181
:10DCF0003B78042B1AD0052300E004232370002076
:10DD000059E0032356E05869E3E780235B0518696F
:10DD1000910080B246437A8888199208396904F0E4
:10DD200063F9002847D1009B1D43C2D00623E5E7D5
:10DD300080235B051969950089B24E437A88B6182D
:10DD400001921E4A76195169013106D0506919694C
:10DD500089B201F0E9F8411E01E0596901398023D7
:10DD60005B051B69019A9BB24B43AD18E918301C47
:10DD7000009A04F039F90028BAD01CE080230F4A39
:10DD80005B055169013105D05069196989B201F00B
:10DD9000CBF800E0586980225205136911699BB2E3
:10DDA0000138584389B201F0BFF804F01FF9002888
:10DDB00001D107232370FEBD902F0020001000101A
:10DDC000F7B514243D4A13785C431419211C0093C1
:10DDD00023790831271D8D680192042B18D0052B5B
:10DDE0004BD00F20022B67D1354B20891E886369E9
:10DDF000B602E2889919334B4019921B80199A4256
:10DE000001D8920801E08022520004F0EDF84EE0C3
:10DE1000802649682C4A0B01D31818895A895B68F7
:10DE20007605AB4204D1131C4343E288934201D0F0
:10DE300002290AD13169281C89B201F075F8204BFA
:10DE40001B88C01804F0D2F831E03169281C89B26F
:10DE500001F06AF832693469431CA4B25C431423AC
:10DE600092B24243011C0098AA1A434301989208B7
:10DE7000C318DB88EB18E31A15E0802676053169B4
:10DE8000281C89B201F050F8011C326923893069DD
:10DE900092B25D194A434B1C86B25E43E388AA1ACC
:10DEA0005B199208F31A9B08381CFFF7B7FE00288D
:10DEB00002D10123019A9370FEBDC046C02D0020FF
:10DEC000CC2E0020FF030000EC2D0020F8B5134DF0
:10DED000061C6C7806A807880420022C1DD0287820
:10DEE0002418E4B2012C01D9023CE4B214204443CA
:10DEF0002C196261221C26710C3241C941C2E38097
:10DF00002781AB78002B01D0002003E0FFF758FFFA
:10DF10001128F9D06B7801336B70F8BDC02D00204B
:10DF200008B5064B5B78002B01D1002005E0FFF718
:10DF300047FF0028F9D01128F7D008BDC02D0020D8
:10DF4000F7B5364B9A781C1C002A66D000269E70C6
:10DF5000334B1A781F1C082A04D1022800D0314BF9
:10DF60001E7044E0022803D0032856D10D2042E061
:10DF700014212D4D20782B88414301339BB22B80F7
:10DF8000611808790195022804D1CA889B0293423E
:10DF900010DA2CE0052839D0042828D1C988D01FF0
:10DFA000454245418C46281C9B02311C634525DABD
:10DFB000002828D00026301C3E70FFF717FE1423DF
:10DFC000012022785343E3181E71DE80D8601E6161
:10DFD0005E611E81019B1E806378013B6370131894
:10DFE000DBB2834201D8237001E0013A2270FFF7CF
:10DFF00097FF002811D0FFF7F9FD0EE00121002A5C
:10E00000D6D0311CD4E70029F1D0D3E7073A5142EA
:10E010005141301C0029CBD0CCE7F7BDC02D0020EA
:10E02000902F00208F2F0020CC2E002000220121D5
:10E0300038B5284B284D1A80284BD96019621A70C0
:10E040005A709A701A71DA801A615A611A811A76B6
:10E050005A835A629A629A831C1C802320495B056A
:10E060000A806A69013205D06869196989B200F0CD
:10E070005BFF00E058698021002249050B690238E6
:10E080009BB25843174B1860174B1A601A819A813C
:10E090005A81164B08321A706B69013306D00E4B49
:10E0A0005869096989B200F03FFF00E048698022A1
:10E0B0005205136911699BB20138584389B200F0C7
:10E0C00033FF03F093FF002803D10123084AA37014
:10E0D000137038BDCC2E002000100010C02D002081
:10E0E000CA2E0020FC2D0020EC2D0020902F0020B7
:10E0F0008F2F0020F0B5484B87B01B780824002BE9
:10E1000000D185E00634002800D181E0002900D14B
:10E110007EE003680493002B00D179E080235B0547
:10E120001A69858892B2073C954271D80F2D6FD934
:10E13000C2880192002A6BD0384A0F1C12680292E2
:10E14000019A6A43161CB4460392029A62440592ED
:10E15000334A5169013105D05069196989B200F01B
:10E16000E3FE00E0586980225205136901389BB232
:10E170005843059B072483424AD8136903999BB2ED
:10E18000994207DD1069291C80B200F053FF89B263
:10E1900000293DD1032307242B4039D1214A033CD8
:10E1A0001288012A34D002991F487960110144185D
:10E1B00025816D463A60AD88029F65816760049F46
:10E1C000164C0F5027680094019080256C466D0511
:10E1D00028690133208120899BB2864204D92869AD
:10E1E00020812089361A00E000266C4628692D69B6
:10E1F00020812089ADB284466744AE42E5D2002436
:10E20000009801320760019841188B81054B1A80F4
:10E21000201C07B0F0BDC0468F2F0020FC2D002031
:10E2200000100010CA2E0020EC2D0020104B30B53D
:10E230001C780823002C19D00633002816D0002A99
:10E2400014D00368002B10D10A4D2C68002C0CD080
:10E250002C89406861430918688944436868241818
:10E26000A14202D21360516000E00723181C30BDA8
:10E270008F2F0020EC2D0020F0B5041C1B4885B02A
:10E2800005780820002D2ED0063000292BD0002C38
:10E2900029D025680738002D25D1154D2E68002E70
:10E2A00021D0666803962E896F896D687743BC46D6
:10E2B000039F6544AF4216D2002A14D0B24212D84E
:10E2C000D518B5420FDC0325093029420BD12B426A
:10E2D00009D12F4207D1181C131C00900A1C0220E0
:10E2E000211CFFF7F3FD05B0F0BDC0468F2F0020C5
:10E2F000EC2D0020F0B5041C1B4885B005780820E3
:10E30000002D2ED0063000292BD0002C29D02568D6
:10E310000738002D25D1154D2E68002E21D06668B6
:10E3200003962E896F896D687743BC46039F6544C9
:10E33000AF4216D2002A14D0B24212D8D518B54234
:10E340000FDC0325093029420BD12B4209D12F4282
:10E3500007D1181C131C00900A1C0520211CFFF774
:10E36000B5FD05B0F0BDC0468F2F0020EC2D00207C
:10E37000F0B5151C244A85B0127802930824002AAF
:10E380003ED0063400293BD0002839D00C68002C40
:10E3900033D11E4E3268002A2FD0378973894A68DC
:10E3A0007B439C4673689C44624526D2002D24D052
:10E3B000BD4222D8029BEB18BB421EDC03239C46C5
:10E3C00018421CD1029F1F4219D16746131C3B40C3
:10E3D0001F1E14D103950D1C029B02909918039ADD
:10E3E00003F07AFF2B68039A1B010092F658281C51
:10E3F00003213A1C029BB04702E0072400E01024EE
:10E40000201C05B0F0BDC0468F2F0020EC2D002051
:10E41000154BF7B51B78041C0820002B23D00630C1
:10E42000002C20D023680738002B1CD10F4B1A6812
:10E43000002A18D05F681E895B8962687343DB1904
:10E440009A4210D2093093070DD1D01B0D1C311CFC
:10E4500000F0F0FD07200A1E05D100910338211CB1
:10E460002B1CFFF733FDFEBD8F2F0020EC2D00206D
:10E47000F0B58BB004AB9C1D0E230C2203900191D0
:10E4800023804B7806A95343234AD3181889221CAA
:10E49000032303F0B5FD00283AD11827019B1F4D37
:10E4A0005B7826885F4300933B1C0833EB18181CED
:10E4B00006A9321C029303F000FF2C1C00280DD18A
:10E4C0000C22009B5343144AD318997A0223194013
:10E4D0001ED1E819182203F01CFF19E0E81943685F
:10E4E0000F4F002B00D10F4F18250322009B06A9C8
:10E4F0006B43E250E3185E60321C029803F0ECFEBE
:10E50000019B039859782A1C694338236118B8473E
:10E5100000200BB0F0BDC046CE2E00208C2E002077
:10E52000F5E2010079E20100F0B585B0041C0E1C93
:10E5300002AA81782148FFF779FE00283CD10C23FC
:10E5400061781F4A4B43D3189B7A1E4F01925B069A
:10E5500005D4022E03D01C4F012E00D01B4F1C25CA
:10E56000A1781B4B694302A859182A1C0023B847FD
:10E57000002813D1022E1FD00C234021627802A85C
:10E580005343019AD3189A7A8A439A726178114B4D
:10E5900069432A1C59182B1CB84701E0022E0BD0E6
:10E5A0000C23227802A853430B4A211CD3189B7AD0
:10E5B0000A4A9B009B58984705B0F0BDB42E002036
:10E5C000CE2E0020F5E2010079E2010005200200D4
:10E5D000002E0020702E0020A42E0020742A02009D
:10E5E000F7B518220190437829485A4381184C689E
:10E5F000284F002C0FD00C2159437918897A4DB23D
:10E60000002D07DA490605D4151C0835A6B24519B0
:10E61000145802E00024261C251C0C225343FB182E
:10E620001889291C321C231C03F0E8FC0B2818D184
:10E630000C22019B291C5B785343FB181889321C60
:10E64000012303F0DBFC00280ED00C21019B124AB1
:10E650005B784B43FF18388903F0CEFC00280AD1C1
:10E6600015E0002803D100E00124002000E00B4861
:10E67000012C0CD1E9E70222094BC318934303D0C4
:10E68000082801D0112801D1044800E00020FEBD77
:10E690008C2E0020CE2E0020FFFF000041800000C5
:10E6A000FECFFFFF70B51824031C4878094D604366
:10E6B0000E1C2818191C221C3823FFF759FE0028AD
:10E6C00006D173785C432C196368013300D1606014
:10E6D00070BDC0468C2E0020F0B5454C93B0246828
:10E6E000002C00D181E0189C542C7ED80024161CEC
:10E6F000FF221D1C03AB5A709A70DA701C70189BB5
:10E7000006AF009101903C700B950A93A1B2394875
:10E7100004AAFFF78BFD002809D1019804A908225B
:10E7200003F0CBFD002802D103AB9C7002E0013462
:10E73000042CEBD103ACA178FF2956D0009B042B0D
:10E740000AD1189A06AB542A01D1343A00E040228B
:10E750001A701A7803213AE0274BEB1A6F2B10D866
:10E76000264B002E04D101228A40186810423CD06A
:10E7700001228A40196891432022196006AB1A7061
:10E780001FE01F4BEB1A1B2B09D8202206AB1A7077
:10E79000002363700CAB0B9318230A9311E0194804
:10E7A0002D1A172D21D830233B70002363700133BD
:10E7B000E370154B997A0223194002D1182203F015
:10E7C000A8FD009A06AB032A0CD101211A780A434E
:10E7D0001A7009AB0793064B201C1B6806A9321C54
:10E7E000984702E01A780221F1E713B0F0BDC04665
:10E7F000A42E0020B42E0020002E0020B02E0020D9
:10E80000702E00208C2E0020CE2E002070B51C24EF
:10E8100044430D4E051C30190021341906221130D5
:10E8200003F077FD201C0021102203F072FD01206F
:10E83000FF23A840054A2374A376013BFF3B2383B3
:10E8400013688343136070BD002E0020B02E00209B
:10E8500037B581B2051C6A460748FFF7E7FC041E7E
:10E8600008D168465421FFF7D3FD041E02D1281CAD
:10E87000FFF7CCFF201C3EBDB42E0020F0B585B0C4
:10E88000002856D000252C4B041C1D605D729D7223
:10E8900001232A48291C8372023B07220381C37289
:10E8A00003F037FD2648291C182203F032FD281CEE
:10E8B000FFF7ACFFFF22234BEA540135042DF6D1BC
:10E8C0006A465423204F9380204B6846391CD580DC
:10E8D0000093FFF70FFC3E1C00282BD101231C4D99
:10E8E00024782B70002C1AD1A1B2301C02AAFFF799
:10E8F0009DFC071E0CD11C22131C6343154802A962
:10E90000C0183B1CFFF734FD002804D02F7011E025
:10E9100000232B700EE00134042CE5D10AE06B4695
:10E920006A46DB889188381C594389B2FFF770FD2D
:10E9300000E0094805B0F0BDA42E0020CE2E002036
:10E940008C2E0020912F0020B42E0020D9E601004B
:10E95000952F0020002E00200E800000F8B5174BE8
:10E960001B78002B24D0002824D0002922D00B684B
:10E97000002B1FD0124D2C68002C1DD1061C281C0A
:10E980000F1C08C00531052203F0A6FC3B790220CC
:10E99000AB72012304212A7A9A4302438A432A72E2
:10E9A000EA79134303438B43EB71201C347004E07A
:10E9B000044802E0044800E00448F8BD952F002018
:10E9C000A42E0020088000000E80000004800000BB
:10E9D000154B1B78002B22D000281ED000291CD0FC
:10E9E0000378002B1BD1114B1B68002B17D04278EA
:10E9F000002A16D10E4B9B7A012B12D024201840EE
:10EA000003D00123101C0B700CE05BB2002B02DA68
:10EA100002230B7006E0087004E0064802E0064896
:10EA200000E006487047C046952F0020A42E002025
:10EA3000CE2E00200E800000088000001080000014
:10EA4000104B10B51B78002B19D0002815D0047876
:10EA5000002C14D10C4B1B68002B10D0201C1C2345
:10EA600063430A4AD3189B7EFF2B02D0201CFFF77A
:10EA7000EFFE0134042CF2D102E0054800E0054825
:10EA800010BDC046952F0020A42E0020002E00208F
:10EA90000E8000000880000013B5041C81786A46CF
:10EAA0000B48FFF7C3FB002810D11C236078094AEC
:10EAB0005843694610181A1CFFF75AFC064B074AC0
:10EAC0009B7A68469B009B58211C984713BDC04603
:10EAD000B42E0020702E0020A42E0020842A0200D4
:10EAE000FF23F0B5BD4A8FB012780393002A00D1FE
:10EAF000B2E1BB4A11680192002900D1ACE104AC3B
:10EB000005AF6370A370E370031D7B602A230022AE
:10EB10003B810388061C2270B24D102B0BD0A97AC2
:10EB200082880091890761D5AF498A4208D0298936
:10EB300091425BD104E00121AB7A0B4205D18BE11C
:10EB4000EA7AA2700022627050E0112362703B707A
:10EB50008388871D2B810223281CAB720125391C59
:10EB6000072203F0B9FB737D1D4009D09F4A5B0863
:10EB7000D35CFF2B2FD003932DE00135042D0FD054
:10EB80001C2068439A4B10301818391C072203F0D8
:10EB900094FB0028F1D103951DE0F3792B423ED17F
:10EBA0000025019B05AE1B68201C311C2A1C9847C0
:10EBB0003378122B00D04FE18A48837A012B00D1A1
:10EBC0004AE101238372023B0381C37200210722C1
:10EBD00003F09FFB40E10A21039B824ADBB2D37220
:10EBE0009172201CA370FFF757FFD9E7172B47D16D
:10EBF000012204251427019B01995B7A0098934315
:10EC00004B72784B05A9A8430F709872B779191CFD
:10EC1000002FC2D0D87AFFF71BFEB579C1E7A378E1
:10EC2000FF2BBDD0082528438872F07A800706D5CF
:10EC30001C2058436E4D2818857E95438576CA7AE8
:10EC4000FF2AADD01C220D7869485A43022D09D005
:10EC50008518281C0722103003F03EFB2A1CAB7ECF
:10EC6000022106E063498318498A1A1C198301218D
:10EC70009B7E8B439376201C0121FFF755FC8FE789
:10EC8000172B00D99AE0132B52D11323009A3B7013
:10EC90000F3B1343AB72EB7AFF2B24D100251C20D2
:10ECA0006843534B1818837EFF2B17D14D4B1A78AE
:10ECB000031C1833022A07D0FD224A499A701030EB
:10ECC000F63A03F009FB01E0FE229A7003AB1D70D7
:10ECD000039B444ADBB2A370D37210E00135042DCC
:10ECE000DDD1454D0CE0162344480E2208300021AA
:10ECF0003B7003F00EFB4423009A1343AB720025D4
:10ED00000021384B0B91DA7A1C235343384A0D917A
:10ED1000D3180C93374B09910893019B0A911A1D44
:10ED2000B08808AB03F064F9002800D139E793E01C
:10ED3000142B26D12B4FFB7AFF2B17D10023F189FF
:10ED40001C225A432A488218128B8A420BD108226D
:10ED5000009903930A43DBB2EB72AA72201CA370E2
:10ED6000FFF79AFE02E00133042BE9D1FB7A002180
:10ED7000FF2B00D01F49B0881D4A002303F03AF949
:10ED80006AE0112B68D10223009A9A43131CAA72DD
:10ED9000009A120707D55BB2002B0BDA201C00216A
:10EDA000FFF7C2FB06E0A078FF2803D0FFF72EFD97
:10EDB000FF23A3701023AB72023302E01C2B02D19D
:10EDC00013233B70ECE6522B1CD1019B0C4A9B7A1F
:10EDD000201C9B009B5898473EE0C046952F002082
:10EDE000A42E0020CE2E0020FFFF0000912F002037
:10EDF000002E0020702E0020438000008C2E00206A
:10EE0000642A0200182B27D1B379112B15D1009B4E
:10EE10001B0712D511480E220830002103F079FAA1
:10EE20001623009A3B704A3313430222AB72019BB4
:10EE30005B7A1343019A5372B2E68023009A5B42D5
:10EE40001343AB7215233B70019B054A9B7A201C30
:10EE50009B009B589847A3E60FB0F0BD8C2E002076
:10EE6000642A020030B5002912D00A78002A11D194
:10EE70000A4B1B68002B0DD0FF23094C8B70258992
:10EE8000FA3B854207D14A70E37A8B70131C02E08B
:10EE9000044B00E0044B181C30BDC046A42E0020DB
:10EEA000CE2E00200E8000000880000038B50E4BEA
:10EEB000051C0833036000234360A960C360FE2380
:10EEC0000C1C5B058800994201D90120404203F0E7
:10EED0008BF9031C013C013CA21C02D0002204C39C
:10EEE000F9E76860281C38BDB029020010B5041C81
:10EEF000044B0833036003F025F9606803F069F9F7
:10EF0000201C10BDB0290200014B18687047C04694
:10EF1000BC2E002002B4714649084900095C490032
:10EF20008E4402BC7047C046002243088B4274D313
:10EF300003098B425FD3030A8B4244D3030B8B42FA
:10EF400028D3030C8B420DD3FF22090212BA030C03
:10EF50008B4202D31212090265D0030B8B4219D3E4
:10EF600000E0090AC30B8B4201D3CB03C01A524104
:10EF7000830B8B4201D38B03C01A5241430B8B424C
:10EF800001D34B03C01A5241030B8B4201D30B0335
:10EF9000C01A5241C30A8B4201D3CB02C01A52415C
:10EFA000830A8B4201D38B02C01A5241430A8B421F
:10EFB00001D34B02C01A5241030A8B4201D30B0208
:10EFC000C01A5241CDD2C3098B4201D3CB01C01A22
:10EFD000524183098B4201D38B01C01A524143092C
:10EFE0008B4201D34B01C01A524103098B4201D31A
:10EFF0000B01C01A5241C3088B4201D3CB00C01A87
:10F00000524183088B4201D38B00C01A52414308FE
:10F010008B4201D34B00C01A5241411A00D2014623
:10F02000524110467047FFE701B5002000F00CF890
:10F0300002BDC0460029F7D003B5FFF775FF0EBC2F
:10F040004243891A1847C0467047C046002B11D169
:10F05000002A0FD1002900D1002802D00021C94385
:10F06000081C07B4024802A14018029003BDC04624
:10F07000D9FFFFFF03B4684601B5029800F04CF8D1
:10F08000019B9E4602B00CBC7047C046F0B54F468F
:10F09000464605042D0C2C1CC0B41704160C3F0C5E
:10F0A0009946030C7C4375435F4373437D19260CDB
:10F0B000AD199C46AF4203D980235B029846C444F5
:10F0C0004B465143434324042E0C240C2D04664428
:10F0D0002C1959188919201C0CBC90469946F0BD72
:10F0E000F0B583B0161C1F1C0090019100F04CF885
:10F0F000041C0D1C221C2B1C301C391CFFF7C6FFE6
:10F10000009A019B121A8B410899201C0A604B60DF
:10F11000291C03B0F0BDC046F0B5141C83B01D1C03
:10F120000090019100F028F9221C2B1C061C0F1CDA
:10F13000FFF7ACFF009A019B121A8B410899301C13
:10F140000A604B60391C03B0F0BDC0461C2101238E
:10F150001B04984201D3000C10391B0A984201D3BA
:10F16000000A08391B09984201D30009043902A298
:10F17000105C40187047C0460403020201010101FF
:10F180000000000000000000F0B544465F4656460F
:10F190004D46F0B41C1C85B0002900DAA9E00F1C14
:10F1A0000021061C8846101C191C002C00DA97E070
:10F1B000341C3D1C82468946B94273D870D04946FA
:10F1C000504600F085F98346391C301C00F080F968
:10F1D0005B46181A031C8346203B9C4600D59CE0E6
:10F1E0000023002251460092019363469940019109
:10F1F00051468140019B0091BB4200D983E000D180
:10F200007EE0009A019B341C3D1CA41A9D4163467C
:10F21000002B00DA9AE000260027029603970136B9
:10F220009E400396012686400296002800D171E098
:10F230000099019AD30799464B464E081E4357083A
:10F24000002301220CE0AF4201D1A6420AD8A41B40
:10F25000BD4124196D410138A4185D41002806D034
:10F26000AF42F0D9013824196D410028F8D120228D
:10F27000029E039F5B46524236196F4199185AD439
:10F28000281CC8402C1C5B46DC40002968DB041CA1
:10F290008C40231C59468840021CB61A9F4103E04B
:10F2A000B0428CD90026002741464B1E99410023CD
:10F2B00000910193009A019B002554429D41331C0B
:10F2C0006340181C3B1C6B40191C009B019CC01820
:10F2D000614105B03CBC90469946A246AB46F0BDA4
:10F2E0004346DB430C1C9846131C00215842A141A5
:10F2F0005EE7002746428F4101214942884652E796
:10F30000B14200D87DE70026002702960397002827
:10F3100000D08DE7029E039FC6E720215346091ABD
:10F32000CB400022191C0023009201934B468340DE
:10F330000B4301935CE75A4620239B1A2A1C9A40F0
:10F34000201C131C5A46D04018439BE72026002758
:10F35000331A0026029603970127DF40039761E7DF
:10F360005B4620215D46C91A031CAC40CB40191CEA
:10F37000231C0B438EE7C046F0B545464E46574624
:10F38000E0B4041C82B00D1C914698468B4262D8B2
:10F390005FD04146484600F09BF8291C061C201C03
:10F3A00000F096F82023311A5B428A46C81865D4CB
:10F3B0004B4683401F1C4B468B401E1CAF4258D807
:10F3C00055D0A41BBD41002800DA77E000220023BD
:10F3D0000092019301328240019201238B400093FD
:10F3E00000293CD0FB079846404672087B08024340
:10F3F000012600270CE0AB4201D1A2420AD8A41A90
:10F400009D4124196D410139A4197D41002906D07F
:10F41000AB42F0D9013924196D410029F8D12022DD
:10F420000098019953465242001969419E183AD4F6
:10F430002F1CF7405346DD40002E29DB3C1CB44016
:10F44000231C5446A7403A1C801A99410090019110
:10F4500005E082429DD90023002400930194009886
:10F46000019902B01CBC90469946A246F0BDA34249
:10F47000A7D90022002300920193B1E720224B4636
:10F48000521AD3401A1C43468B401F1C174392E765
:10F49000534620245646E41A3B1CB540E3401C1C4E
:10F4A0002B1C2343CDE7524620239B1A2A1C9A404B
:10F4B000271C131C5246D7401F43BBE720230022C2
:10F4C000581A0023009201930132C240019284E74E
:10F4D00010B5002903D1FFF739FE203002E0081CE7
:10F4E000FFF734FE10BDC046054B10B5041C181EB6
:10F4F00005D0131C02200A1C211C00E000BF10BD17
:10F5000000000000014B18687047C04668280020C2
:10F51000084B10B5041C002B02D0002100E000BFF6
:10F52000054B1868836A002B00D09847201C01F017
:10F5300030FDC04600000000F42A020008B5024970
:10F5400002F08FFE08BDC046F5FC0100002310B597
:10F55000041C03604360836081814366C281036150
:10F5600043618361191C08225C3002F0D2FE054B16
:10F5700024626362044BA362044BE362044B236383
:10F5800010BDC04685FA0100ADFA0100E5FA0100A0
:10F5900059240200836913B5002B28D18364C36406
:10F5A0000365134B134A1B6882620193984201D191
:10F5B00001238361041C00F01FF86060201C00F030
:10F5C0001BF8A060201C00F017F80421E060002266
:10F5D0006068FFF7BBFFA06809210122FFF7B6FFB3
:10F5E000E06812210222FFF7B1FF0123A36113BDDE
:10F5F000F42A02003DF50100F8B51D4B061C1D68FC
:10F60000AB69002B02D1281CFFF7C4FF4835AC685A
:10F610006B68013B05D40C22A75E002F10D0683424
:10F62000F7E72B68002B06D1301C042102F0E7FD20
:10F630002860002801D02D68E9E70C23336016E02C
:10F640000123201C5B42E3810233A38167662760AC
:10F65000A760676027616761A7615C30391C082279
:10F6600002F057FE201C6763A763A764E764F8BD38
:10F67000F42A02000E4B70B500251E1C0D4CE41A36
:10F68000A410A54204D0AB00F35898470135F8E721
:10F6900003F086F8084B00251E1C084CE41AA41041
:10F6A000A54204D0AB00F35898470135F8E770BD88
:10F6B0007028002070280020702800207C2800205E
:10F6C00008B5034B011C186800F054F808BDC0468B
:10F6D0006828002008B5034B011C186800F004F8E6
:10F6E00008BDC0466828002030B500293ED0043946
:10F6F0000B68002B00DAC9181D4A1368141C002B74
:10F7000002D14B60116031E099420DD208680A18AD
:10F710009A4203D11368C3180B6053684B60216091
:10F7200024E08A4203D8131C5A68002AF9D11D68C4
:10F730005C198C420BD109686918581819609042FD
:10F7400014D110685268091819605A600EE08C4292
:10F7500002D90C23036009E008680C18944203D115
:10F7600014685268001908604A60596030BDC0468C
:10F77000C42E0020032370B5CC1C9C430834051C08
:10F780000C2C01D20C2405E0002C03DA0C23002001
:10F790002B6042E08C42F9D3204A1368101C191CDC
:10F7A000002913D00A68121B0DD40B2A02D90A6053
:10F7B0008B181FE08B4202D15A6802601BE04A6836
:10F7C0005A600B1C17E00B1C4968E9E7144E3368BC
:10F7D000002B03D1281C00F0D9F83060281C211C14
:10F7E00000F0D4F8031C421CD0D00322C61C964360
:10F7F00086420AD11C60181C07210B301A1D884351
:10F80000821A0AD05142995007E0311A281C00F0A0
:10F81000BDF8431CBAD0331CECE770BDC42E0020E9
:10F82000C02E00200FB40B4B13B51C68002C05D064
:10F83000A369002B02D1201CFFF7ACFE05AB201CF6
:10F84000A168049A019300F057FC16BC08BC04B0F0
:10F850001847C0466828002008B5034B011C1868EB
:10F8600002F05FFD08BDC04668280020F8B5051C01
:10F870000C1C002804D08369002B01D1FFF78AFEFD
:10F880003D4B9C4201D16C6808E03C4B9C4201D14D
:10F89000AC6803E03A4B9C4200D1EC680023A2899B
:10F8A000636093B2990663D459071AD4D90605D474
:10F8B00009232B6037331A43A28159E008263342CB
:10F8C0000AD0281C211C00F015FA002850D1A38969
:10F8D000A060B343A381A0610422A3891343A38141
:10F8E00012E0616B00290FD0231C4433994202D0EF
:10F8F000281CFFF7F9FE0020236C606363608342DD
:10F9000002D0E36B236035E02369002B03D1281C70
:10F91000211C00F043FAA789BEB2B3070FD0012320
:10F92000A381184B1849186802F07FFC0923A781AE
:10F930003340092B03D1281C211C02F0AEFD2369A2
:10F94000281C1A1C2360216A6369656AA847021C87
:10F950006060002082420DDCA389824204D1202213
:10F960001343A381013805E0402213436060A38163
:10F9700001204042F8BDC046942A0200B42A020089
:10F98000D42A0200F42A0200E523020038B500233D
:10F99000064C051C081C2360FCF734FD431C03D1F6
:10F9A0002368002B00D02B6038BDC046A02F00205C
:10F9B0000FB40B4B13B51C68002C05D0A369002BAA
:10F9C00002D1201CFFF7E6FD05AB201C6168049AFC
:10F9D000019300F031FF16BC08BC04B01847C046C4
:10F9E0006828002008B5034B011C186802F006FDCA
:10F9F00008BDC0466828002038B50023064C051C09
:10FA0000081C111C236001F099FA431C03D12368E0
:10FA1000002B00D02B6038BDA02F00200CB430B5D7
:10FA2000174B9DB01D68002904DA8B2301202B6041
:10FA300040421FE0822302AA9B0093810023029090
:10FA40001061994200D04B1E9360536101235B42C9
:10FA5000D3810C1C21AB111C281C209A019300F0AF
:10FA600055FA431C01DA8B232B60002C02D00023B3
:10FA7000029A13701DB030BC08BC02B01847C046D3
:10FA80006828002038B50C1C0E25495F01F054F899
:10FA9000002803DB636D1B18636503E0A289024B3A
:10FAA0001340A38138BDC046FFEFFFFFF8B51E1C11
:10FAB0008B89051C0C1C171CDB0505D50E23C95EA4
:10FAC0000022022300F056F9A289054B281C13409E
:10FAD000A3813A1C0E23E15E331C00F071F8F8BDDF
:10FAE000FFEFFFFF38B50C1C0E25495F00F042F90F
:10FAF000A389421C03D1054A1340A38104E080225C
:10FB000052011343A381606538BDC046FFEFFFFF7C
:10FB100070B5051C0E1C141C002804D08369002B32
:10FB200001D1FFF737FD234B9C4201D16C6808E0FF
:10FB3000214B9C4201D1AC6803E0204B9C4200D198
:10FB4000EC68A369A360A3891B070AD52369002B6E
:10FB500007D023682269F6B2981A636998420FDBCE
:10FB600008E0281C211C00F03FF80028F1D00120FB
:10FB700040421DE0281C211C00F0BCF80028F6D1F2
:10FB8000A3680130013BA36023685A1C22601E70E9
:10FB90006369984205D0A389301CDB0708D50A2E7B
:10FBA00006D1281C211C00F0A5F80028DFD1301C4C
:10FBB00070BDC046942A0200B42A0200D42A020072
:10FBC00038B5051C0020074C2060081C111C1A1CAD
:10FBD000FCF7A2FB431C03D12368002B00D02B6051
:10FBE00038BDC046A02F0020354B70B51D68061CDF
:10FBF0000C1C002D05D0AB69002B02D1281CFFF78F
:10FC0000C9FC304B9C4201D16C6808E02E4B9C42F1
:10FC100001D1AC6803E02D4B9C4200D1EC68A38974
:10FC20009AB2110723D4D10607D4092201203260E9
:10FC300037321343A381404240E0530713D5616B31
:10FC4000002908D0231C4433994202D0301CFFF70E
:10FC50004BFD002363632422A3899343A3810023E4
:10FC60006360236923600822A3891343A381236966
:10FC7000002B0BD1A023A2899B001340802292006D
:10FC8000934203D0301C211C00F088F80123A28984
:10FC9000134005D00023A36063695B42A36103E0C6
:10FCA000910700D46369A36000202369834205D1D2
:10FCB000130603D540231A43A281013870BDC04604
:10FCC00068280020942A0200B42A0200D42A0200E4
:10FCD00038B50023064C051C081C2360FCF706FB06
:10FCE000431C03D12368002B00D02B6038BDC046D5
:10FCF000A02F002038B50B69051C0C1C002B01D16E
:10FD000000201CE0002804D08369002B01D1FFF7FC
:10FD100041FC0B4B9C4201D16C6808E0094B9C42B2
:10FD200001D1AC6803E0084B9C4200D1EC680C2286
:10FD3000A35E002BE4D0281C211C02F0AEFB38BDD2
:10FD4000942A0200B42A0200D42A020008B5011E37
:10FD500005D1054B0549186802F083FA03E0044B0E
:10FD60001868FFF7C7FF08BDF42A0200F5FC010080
:10FD70006828002038B5051C0020074C2060081CAE
:10FD8000111C1A1CFCF72AFB431C03D12368002B0F
:10FD900000D02B6038BDC046A02F0020F0B58B8965
:10FDA00091B09B0706D50B1C47330B600B610123F9
:10FDB0004B6145E00C1C0E23C95E061C002904DAC9
:10FDC0008023A5891D4010D10CE001AA01F08AF81A
:10FDD0000028F5DBF023029D1B021D40194BED1896
:10FDE0006B425D418027FF0001E000254027301C69
:10FDF000391CFFF7BFFC00280CD1A3899A051FD43A
:10FE000002221343A381231C473323602361012370
:10FE1000636115E080220C4BB362A3892060134319
:10FE2000A38120616761002D0AD00E23E15E301CA2
:10FE300001F06AF8002803D00122A3891343A381AB
:10FE400011B0F0BD00E0FFFF3DF50100F0B58E6898
:10FE500085B0071C0C1C03920193B34245D3902339
:10FE60008A89DB001A423DD003250969236801987D
:10FE70005B1A029363695D43EB0F5D19029B6D1082
:10FE800001331B189D4200D21D1C381C53050FD591
:10FE9000291CFFF76FFC061E13D0029A216902F09D
:10FEA0001BFAA289184B134080221343A38111E04F
:10FEB0002A1C02F043FC061E0CD1381C2169FFF7F6
:10FEC00013FC0C23402201203B60A38940421343D2
:10FED000A38117E0029B2661F61826606561019EEA
:10FEE000ED1AA560019BB34200D2019E321C20682E
:10FEF000039902F0FAF90020A3689B1BA360236812
:10FF00009E19266005B0F0BD7FFBFFFFF0B59FB0E6
:10FF1000029005938B890E1C171C1B0610D50B69CC
:10FF2000002B0DD14021FFF725FC30603061002807
:10FF300004D10C23029A01381360D0E0402373618E
:10FF4000002306AD6B6120336B761033AB763C1C1F
:10FF50002378002B03D1E31B049312D003E0252B5D
:10FF6000F9D00134F4E7049B0298311C3A1CFFF7E6
:10FF70006DFF431C00D1ACE06A69049B9446634466
:10FF80006B612378002B00D1A3E0012200235242B1
:10FF90006A6002A95432521801342B60EB60AB60E6
:10FFA0001370AB654F4F2178381C052202F07AF9A7
:10FFB000002808D0C01B01278740381C2B6801345B
:10FFC00018432860EEE72B68DA0604D55322202177
:10FFD00002A8121811701A0704D553222B2102A867
:10FFE0001218117022782A2A01D0099B0EE0059A76
:10FFF000111D12680591002A01DB099204E05242AA
:020000022000DC
:10000000EA60022213432B60013409E02278303A7F
:10001000092A04D80A214B4301349B18F6E70993B7
:1000200023782E2B18D163782A2B09D1059B023413
:100030001A1D1B680592002B0DDA01235B420AE0B2
:10004000002301342278303A092A04D80A214B438C
:1000500001349B18F6E70793234F2178381C0322BD
:1000600002F020F9002807D0C01B40278740381C29
:100070002B6801341843286021781C480622671C2D
:10008000297602F00FF9002812D0194B002B06D167
:100090000722059B073393430833059314E005AB10
:1000A00000930298291C321C124B00E000BF07E0AD
:1000B00005AB00930298291C321C0E4B00F02CF962
:1000C0000390039B013304D06B69039A9B186B6107
:1000D0003DE7B3890B985B0601D5012040421FB074
:1000E000F0BDC046492C02004F2C0200532C0200E8
:1000F000000000004DFE0100F0B59FB0061C0F1C73
:1001000002920593002804D08369002B01D1FFF7E8
:1001100041FA794B9F4201D1776808E0774B9F42C3
:1001200001D1B76803E0764B9F4200D1F768BB89E5
:100130001B070AD53B69002B07D0002306AD6B6176
:1001400020336B761033AB763DE0301C391CFFF763
:100150004BFD0028F1D001204042CAE0059A111D54
:1001600012680591002A7EDB0992013423782E2B38
:1001700000D189E021786348032202F093F8002837
:1001800008D0604B0134C01A40238340181C2B68F0
:10019000184328602178631C5B4806220293297665
:1001A00002F080F8002800D191E0584B002B00D0DD
:1001B00084E00722059B07339343083305936B695B
:1001C000039A9B186B61029C2378002B04D1029B3D
:1001D000E31A049311D003E0252BF8D00134F3E7A0
:1001E000049B301C391C029A02F0F5F9431C7BD0A9
:1001F0006A69049B944663446B612378002B73D037
:100200000122002352426A6002A95432521801347A
:100210002B60EB60AB601370AB6521783C48052226
:1002200002F040F8002809D0394B0134C01A0123EC
:100230008340181C2B6818432860EEE72B68DA0609
:1002400004D55322202102A8121811701A0704D5D0
:1002500053222B2102A81218117022782A2A00D1C9
:100260007CE7099B05E05242EA60022213432B60BF
:100270007BE72278303A092A04D80A214B4301341B
:100280009B18F6E7099371E763782A2B09D1059B40
:1002900002341A1D1B680592002B0DDA01235B4204
:1002A0000AE0002301342278303A092A04D80A21CE
:1002B0004B4301349B18F6E707935BE705AB0093CC
:1002C000301C291C3A1C134B00E000BF07E005ABB3
:1002D0000093301C291C3A1C0E4B00F01DF80390B3
:1002E000039B013300D06AE7BB895B0600D532E788
:1002F0000B981FB0F0BDC046942A0200B42A020039
:10030000D42A02004F2C0200532C020000000000EF
:10031000492C0200D7250200F0B58BB006920A1CCA
:1003200043320793059004920A7E0C1C109B6E2AA0
:1003300000D1A8E011D8632A22D009D8002A00D120
:10034000B2E0582A00D0C2E045310A707C4A4FE042
:10035000642A1DD0692A1BD0B9E0732A00D1A7E016
:1003600009D86F2A29D0702A00D0B0E0202209686D
:100370000A43226037E0752A1FD0782A33D0A6E0DE
:100380000E1C1A684236111D196013683370A1E003
:1003900021681A68080606D4490604D5111D19609B
:1003A0000023D55E02E0111D19601568002D3BDAAF
:1003B0002D23049A6D42137036E021681A680806EE
:1003C00006D4490604D51568111D1960ADB202E0C6
:1003D000111D196015685A4B227E03930A276F2A54
:1003E0001DD108271BE0221C782145321170554A87
:1003F00019680392081D226818600D68100602D45F
:10040000500600D5ADB2D30702D520231A4322608F
:100410001027002D03D1202322689A432260231C39
:10042000002243331A7002E00A27454B03936368A6
:10043000A360002B03DB0422216891432160002D7F
:1004400002D1049E002B0ED0049E281C391CFEF7FE
:10045000F1FD039B013E5B5C281C3370391CFEF7E9
:1004600063FD051EF1D1082F09D12368DB0706D5EE
:1004700063682269934202DC3023013E3370049B9F
:100480009B1B23612BE009681A68080607D44906FC
:1004900005D5111D19601368A28A1A8004E0111D88
:1004A0001960136862691A600023049E236116E0D4
:1004B0001A68111D196016680021301C626801F06D
:1004C000F1FE002801D0801B6060636803E0261CF9
:1004D00042363270012323610023049A1370079B74
:1004E00005980093211C069B09AA02F086F8431C7C
:1004F00002D10120404221E0236905980699321C6F
:10050000079DA847431CF4D023689B0705D4099B8B
:10051000E068984212DA181C10E00025E368099A96
:100520009B1A9D42F3DA221C012305980699193281
:10053000079EB047431CDCD00135EFE70BB0F0BDA0
:100540005A2C02006B2C0200F0B5B54C071CA544D8
:100550000393002386204893499305AB4A93BE2317
:1005600040000D1C019202A9AE4A5B000918CA5056
:10057000AD4A02A904330918CA50019B1C78002C0B
:1005800000D144E1A94E33681B195A78082313405F
:1005900023D06B68002B10DD2B6831681A788A181D
:1005A0005278120715D5499A0133029201324992C5
:1005B0006A682B60013A6A60EBE78621C023490034
:1005C00002AA52185B00D358381C291C98470028EF
:1005D000E2D0019E01360196CFE7019A561C252CE8
:1005E0004FD14793459353782A2B02D11A3B459319
:1005F0000136341C21780B1C303B092B09D8479B52
:10060000013401930A23019A5343303B591847910F
:10061000F0E7874E0322301C01F044FE002808D08A
:10062000801B01268640301C459B013418430193F2
:100630004590661C2478672C10D8652C00D384E084
:100640005B2C5AD005D8002C00D1E2E0252C18D024
:100650007DE0632C5FD0642C46D078E0702C34D0E1
:1006600007D86E2C5FD041D8692C70D100234693F7
:1006700041E0752C38D0782C2DD0732C67D1022313
:1006800047E06B68002B0EDD2B681A78A24200D081
:10069000BDE001336A682B60499B013A0193013345
:1006A0006A60499397E78621C023490002AA52183D
:1006B0005B00D358381C291C98470028E4D0489880
:1006C000002800D09FE00138A5E0459B019320233E
:1006D000019A13434593459B01938023019A9B0004
:1006E00013434593102302E00A2300E008234693B6
:1006F00004236E2C0DDC03230BE0311C05A801F054
:10070000EAFF459B061C01934023019A134345933E
:1007100001234B931FE0459B01934023019A134310
:1007200045930023F5E74599CB0600D553E7039B96
:10073000499AC80704D5191D03911B681A804AE716
:10074000191D03911B681A6045E70523E1E70323A0
:100750004B93073346936B68002B04DD459B019355
:100760005B0618D51FE08621C023490002AA521853
:100770005B00D358381C291C98470028EED09EE710
:10078000499A0192013249926A68013A6A60002AE4
:1007900013DD01332B602B6824491A7809688A1805
:1007A00052781207ECD44B9B022B13DC381C45A962
:1007B0002A1C03AB00F068F81FE08621C023490023
:1007C00002AA52185B00D358381C291C98470028ED
:1007D000E1D074E7042B06DC381C45A92A1C03ABC6
:1007E00000F0B0F809E0134B002B00D1F3E6381C01
:1007F00045A92A1C03AB00E000BF012807D002284E
:1008000000D0E8E65BE7AB895B0604D501E04898D9
:1008100001E001204042A7239B009D44F0BDC0465B
:1008200064FDFFFF010E02006DF801006C2800203E
:100830004F2C020000000000F8B5051C0C1C171C12
:100840001E1C002804D08369002B01D1FEF7A2FEF4
:100850000A4B9C4201D16C6808E0094B9C4201D1D3
:10086000AC6803E0074B9C4200D1EC68281C3A1CA2
:10087000331C211CFFF768FEF8BDC046942A020015
:10088000B42A0200D42A0200F7B5151C8A68019028
:100890000C1C002A06D18A69511E8A41012152424C
:1008A0000A43A2602268D20603D41A68111D196097
:1008B00017680026A06900281DD123680136DB06D1
:1008C00003D42B681B783B7001372A686B680132B0
:1008D0002A60A268013B013A6B60A260002A1FD027
:1008E000002BE7DCC0235B00E3580198291C9847E4
:1008F0000028DFD014E0012808D12B6862691B783A
:10090000D35C002BD9D1002E19D009E0022807D1E1
:100910002B680B4A1B781268D3185B781B07CCD561
:1009200010232268134006D1E2680132E260A26916
:10093000002A00D03B70002023699E192661FEBD6D
:100940006C280020F0B50C1C8BB00193744B049004
:10095000161C07AA23CB23C2724B0593A369032B52
:1009600001D0714B05930022A36803925D32591E9A
:10097000FF32914205D95E3BFF3B03935E23FF3379
:10098000A360231C1C330093D023002722681B0183
:1009900013432360009B02933268BB00117807AABF
:1009A0009858022201F07EFC002839D0012F0DD189
:1009B0006368002B06D1083322686360F933FF3384
:1009C00013432360594B226813400DE0022F0CD1D2
:1009D000C02280212368D2001A4089008A4222D195
:1009E00010226260F03213432360A3685A1EA26093
:1009F000002B15D0029B5D1C33685A1C32601B789B
:100A0000029A029513707368013B7360002B07DC38
:100A1000C0235B00E3580498311C9847002844D158
:100A20000137032FB8D16368002B01D10A3363600B
:100A30001021002763686069C91A3D4BC91801F08D
:100A40004AFE029DA368002B30D03268606911789D
:100A5000405C00282AD030290BD12168090508D52F
:100A6000039A0137002A0BD0013A01330392A360A5
:100A700006E021682F4B0B40236013782B70013563
:100A80007368013B7360002B03DD3368013333600F
:100A900007E0C0235B00E3580498311C9847002806
:100AA00004D1A368013BA360CCE700272368DB05E2
:100AB0000ED5009B9D4207D9BE23013D5B002978DE
:100AC000E3580498321C9847009B01209D4225D092
:100AD000102223681A401AD12A706368049800997A
:100AE000059EB047019B22681B68910607D4D10779
:100AF00005D501991A1D0A601B68188004E0019948
:100B00001A1D0A601B681860E3680133E360002067
:100B1000009BED1A2369ED195D1925610BB0F0BD3D
:100B2000F82A0200610B0200810C0200FFFAFFFFAD
:100B30007C2C0200FFF6FFFF38B5051C0020074C97
:100B40002060081C111C1A1CFBF710FC431C03D16D
:100B50002368002B00D02B6038BDC046A02F00209A
:100B6000F0B51E1C444B87B01B68059002930B1C0C
:100B7000039101921C78029A5D1C12195078082288
:100B8000104001D02B1CF5E72D2C04D19D1C5C7866
:100B90000123009304E000902B2C01D15C789D1C74
:100BA000002E02D0102E0AD160E0302C5CD1202221
:100BB0002B789343582B52D110266C780235009F26
:100BC000311C7B1E9F412D4BFF18381CFEF732FA5B
:100BD000381C0491311CFEF7A7F90022071C131CD6
:100BE000029909194978480701D5303C07E00320EC
:100BF000084017D03721012800D02031641AB442B0
:100C000010DA511C0BD0BB4207D802D1049A94428F
:100C100003DC73430122E31801E0012252422C78E5
:100C20000135DDE7181C511C0BD10098059A431EB5
:100C30009841124BC01822231360019B002B0AD14C
:100C400017E00099002900D05842019B002B10D0DA
:100C5000039B002A00D06B1E019A136009E0302428
:100C6000002EACD10826AAE70A26A8E7302CA6D188
:100C70009DE707B0F0BDC0466C280020FFFFFF7F56
:100C8000F0B51E1C3E4B87B01B68171C02930B1C53
:100C9000059004911C78029A5D1C12195178082263
:100CA0000A4001D02B1CF5E72D2C04D19D1C5C784B
:100CB0000123019304E001922B2C01D15C789D1C4F
:100CC000002E02D0102E0AD154E0302C50D1202218
:100CD0002B789343582B46D110266C78023501208F
:100CE000311C4042FEF720F903900120311C4042A4
:100CF000FEF7A0F900228C46131C029909194978C5
:100D0000480701D5303C07E00320084017D03721C1
:100D1000012800D02031641AB44210DA511C0BD0E3
:100D2000039A934206D801D1644503DC7343012240
:100D3000E31801E0012252422C780135DDE7181C4E
:100D4000511C04D122230599101C0B6003E001996A
:100D5000002900D05842002F0FD0049B002A00D059
:100D60006B1E3B6009E03024002EB8D10826B6E7A0
:100D70000A26B4E7302CB2D1A9E707B0F0BDC046CF
:100D80006C2800200B1CF7B54D6B44330C1C9D42A6
:100D90001BD18026F600311CFEF7ECFC002802D1A6
:100DA0000120404225E0231C6063A66346331A7885
:100DB000104BC254231C45331A780F4BC2542A7867
:100DC0000E4BC254C018206012E08E6B291C7300B9
:100DD0001A1C019301F0B2FC051EE1D08719381CE2
:100DE000291C321C01F078FA019B27606563A3631C
:100DF0000020FEBDFF030000FE030000FD03000015
:100E0000F8B5061C0D1C141C4B1C02D101204042DD
:100E100061E0002804D08369002B01D1FEF7BAFB02
:100E20002D4B9C4201D1746808E02C4B9C4201D1AF
:100E3000B46803E02A4B9C4200D1F4682022A389C5
:100E40009343A3819BB25A0713D4DA06DED5082751
:100E50003B420AD0301C211CFEF74CFF0028D5D1A4
:100E6000A389A060BB43A381A0610422A38913438B
:100E7000A381626BEDB26368002A10D0A26B93422B
:100E800006DA2368013B23601D706368013320E0AC
:100E9000301C211CFFF776FF0028F2D0B6E721694D
:100EA0002268002909D08A4207D9511E0878A84231
:100EB00003D10133216063600DE02364231C4433BC
:100EC00063630323A363231C4633E2631D70236023
:100ED0000123281C6360F8BD942A0200B42A020092
:100EE000D42A020038B50023064C051C081C111C2E
:100EF000236000F031F8431C03D12368002B00D09D
:100F00002B6038BDA02F002038B50023064C051CEF
:100F1000081C2360FBF74EFA431C03D12368002B07
:100F200000D02B6038BDC046A02F002058220120E1
:100F3000014B40421A607047A02F00205822012028
:100F4000014B40421A607047A02F002008B500688E
:100F50000368DB68984708BD08B5022804D88023D9
:100F60009B014B60002005E0FEF7CCFA09230360EB
:100F70000120404208BD08B50120FEF7C9FA7047BC
:100F8000704708B5FFF7FCFFFFF7F9FFFBF71CF907
:100F900008BD08B5002801D000F001F8FEE700B553
:100FA0009BB002A8122100F045F808A8132100F018
:100FB00041F80EA8122100F03DF814A8132100F00A
:100FC00039F8059B039A96201A60099A0C9B1A60BF
:100FD0000F9A129B1A60159A179B01921A6000F0E3
:100FE00039F8069B039A96201A60099A0B9B1A609F
:100FF0000F9A119B01921A60159A189B1A6000F0C3
:1010000029F8DEE770B50D1C041C161CFBF732FA3C
:101010006B1C0ED06368002E01D0E26800E02269EC
:10102000201C0121136000F022F8201C002100F098
:1010300018F870BD08B50022FFF7E4FF08BD38B509
:10104000041CFBF765FB051CFBF762FB401BA04281
:10105000FAD338BD08B5FA239B005843FFF7EFFFDA
:1010600008BD08B5007840B200F00EF808BD0029B0
:1010700001D0012907D10023A022C356D205C133D4
:10108000FF339B0099507047A0238000DB05C018F8
:10109000E02310B50C24DB00C2588900A243C250E3
:1010A000C2581143C15010BD03681A1CFC32D168EC
:1010B0000129FAD10021D160A322D2009858C0B2F0
:1010C00070472F23C046C046C046C046C046C046F3
:1010D000C046C046C046C046C046C046C046C046E0
:1010E000013B002BEED1704738B50368041CDB6868
:1010F000984763685A682368002A02D19B6898471A
:1011000014E05B681568984763682D1A002D08DCA9
:101110005A68916859601B68002BEAD0506898475C
:10112000E7E75A68216810680B69984738BD8180E5
:10113000002070478171704708B5006803681B681C
:10114000984708BD66DF704748DF7047704708B5AD
:10115000FFF7FAFF08BD10B5041C01F03AF8201C97
:1011600010BD08B5FBF7FEFF002008BD08B5FCF771
:101170002FFB031E00D00523181C08BD08B5FBF784
:101180002DFF08BD08B5FBF729FF08BD08B5FBF723
:10119000C1FE08BD08B5FBF7FDFD08BD08B5FBF7AE
:1011A000F9FD08BD08B5FCF7E5F808BD08B5FCF782
:1011B000E1F808BDA0DF7047A4DF7047A5DF7047E6
:1011C000A6DF7047A8DF7047A9DF7047022070478D
:1011D00002207047022070470220704702207047AB
:1011E00002207047022070470020704737B500206A
:1011F0006D46069C0090208801932880081C111CD5
:101200006A46FFF7DBFF0323002802D12B882380E7
:10121000031C181C3EBDF8B503680F1C161C9D6905
:10122000041CFCF7A7F800F0FAFB3A1C011C331C65
:10123000201CA847F8BD10B5041CFBF727FC201C98
:1012400000F0C7FF201C10BD10B5041CFBF72EFCDE
:10125000201C00F0BEFF201C10BD10B5041CFBF7C5
:1012600035FC201C00F0B5FF201C10BDF0B5051C9E
:10127000D78B0022467985B07C35B24219D2083529
:101280002C1C083C2488BC4211D10E251C1C0223B6
:101290000F32D20082186D4412892B80036803AE8E
:1012A00000959F68331CB847021E04D00DE0013240
:1012B000E3E7042009E02B880620022B05D13388C0
:1012C000101C9B0701D00123237005B0F0BD10B5A1
:1012D0000278002A09D10C78131C002C13D1438A00
:1012E000488A1B1A584243410CE00023012A0AD1C4
:1012F0000A78012A07D1013001310F3200F0DDFFF9
:1013000043424341DBB2181C10BD38B50D1C446983
:10131000002C11D02368002B02D0281C984709E02C
:101320006068002806D0A369002B03D0211C2A1C6A
:1013300008319847E469EBE738BD08B5031C101C79
:10134000042905D0052905D0032907D11B6A02E02D
:101350005B6A00E09B6A002B00D0984708BDF0B59F
:101360000B8891B0051C0C1C512B4AD00BD8012BBB
:1013700029D0502B00D039E1021CCB888032019358
:101380004179002310E0522B34D0532B00D02DE1B3
:10139000CB880521019341E00832101C08380088F1
:1013A000019EB04203D001338B42F5D309E03021D6
:1013B0000A339B00EB185A68531CDB7F0B4200D0AA
:1013C000FDE002212AE00E7AC468002C00D10DE174
:1013D0002368002B02D0301C984709E06068002881
:1013E00006D0A369002B03D0211C321C083198477A
:1013F000E469EAE7888800210A1C0B1CFFF7E4FE79
:10140000F4E08B79012B06D0022B00D0EEE00B89A3
:101410000721019302E00B89062101932B1C002078
:101420006A797C3302900298904200D3DEE0083360
:10143000181C08380088019EB04215D106296FD0CB
:10144000072914D0022900D0B4E0A3880CA90B808E
:101450006B469B884B80237A0B71A38BCB80E38BED
:1014600020340B81CC6057E002980130DAE700218C
:10147000102204A800F04DFFA38804AA1380131CB7
:101480006A46928808AE5A80E38B04AA9380238C24
:10149000301CD380231C1022223300210393069397
:1014A00000F037FF02233370029B0A339B00EB18D6
:1014B0005F683B1C2A331A7800239A4215D04C37B8
:1014C0003B68002B02D004A8984709E07868002800
:1014D00006D0BB69002B03D0391C04AA08319847F9
:1014E000FF69002FECD104AB9B89A088311CB3802D
:1014F000FFF768FEB388002B00D077E0A3880CA923
:101500000B806B469B884B80A37A0B71E38BCB805F
:10151000238C0B81039BCB60281CFFF7F6FE65E054
:1015200008AE00211022301C00F0F3FEA3880CAF9F
:1015300033806B469B8810227380A38B381C00215C
:10154000B38000F0E6FE01233B70029B0A339B0050
:10155000ED186D682B1C29331A7800239A4214D099
:101560002C352B68002B02D0301C984709E06868A6
:10157000002806D0AB69002B03D0291C321C08318F
:101580009847ED69002DECD1B389BB80B389002B5E
:101590000BD1B268002A08D00121BB790B43BB7183
:1015A000B3883B81F388FA607B81A088391CFFF700
:1015B00009FE1BE0281C019AFFF7BFFE16E0A11CE4
:1015C000C97F0134E07F09020843990602D503214F
:1015D000840708D40421DB0605D50123011C19402A
:1015E0004B4259410331D28B281CE5E711B0F0BDC5
:1015F0000220704790DF704795DF704797DF704794
:1016000040300078431E9841C0B27047FC3081657D
:101610007047FC308166704750300078431E984117
:10162000C0B2704708B5081C111C1A1CFFF7E4FF74
:10163000031C0020834204D0113B5A425A41063019
:10164000801A08BD13B5049C10300094059C0194C9
:10165000FBF724FC16BD0023021C10B503701132E9
:10166000431C00241C7001339342FAD1418210BD07
:10167000F0B5041C0F1C8BB0039305AD036800216B
:10168000281C1E680292FFF7E6FF039B019500935A
:10169000201C391C029A0023B0470BB0F0BD10B5D6
:1016A000041C03685B689847231C002240331A70AF
:1016B000904205D0BC339B6D934201D0A0889847DF
:1016C00010BD08B5FFF7EBFF08BD08B51030FFF7F8
:1016D000E6FF08BD4160704781607047C160704798
:1016E000016170474161704708B5FBF793FF08BD82
:1016F00008B5081C111CFBF79FFF08BD08B5081CA6
:10170000111C1A1C029BFBF71BFF08BD70DF704702
:1017100071DF704760DF704708B5FCF711FC08BD4A
:1017200008B5FBF7D9FF002008BD704770DF704790
:1017300071DF704772DF704773DF704774DF704787
:1017400075DF704776DF704777DF704778DF704767
:1017500079DF70477ADF70477BDF70477CDF704747
:101760007DDF704786DF704787DF704788DF70470F
:101770000220704702207047002070470020704709
:1017800002207047022070470220704702207047F5
:1017900002207047022070470220704702207047E5
:1017A00002207047022070470220704702207047D5
:1017B0000220704700231360704702207047022008
:1017C00070471420704764207047A0208001704744
:1017D0001FB50C1C68460021102200F09AFD012361
:1017E000A279684613406A46137023881381638880
:1017F0005381A3889381FFF7B5FF031C5A1E9341C1
:1018000003205B42184004B010BD08B5FFF7ACFFE1
:10181000031E00D00523181C08BD10B5041CFFF7DB
:101820008DFF0323002806D1231C012158331A7889
:101830008A431A70031C181C10BD031C10B5FC242D
:101840005833187804401C703B239A4200D0283B40
:10185000081C191CFFF776FF031C5A1E9341032036
:101860005B42184010BD0A1C011C08B50368BC315E
:1018700009881B6A984708BD08B5081CFFF76CFF6C
:10188000031C5A1E934103205B42184008BD08B553
:10189000081CFFF75FFF031C5A1E934103205B42A5
:1018A000184008BD08B5081C111CFFF749FF031EAE
:1018B00000D00323181C08BD37B568460D1C141C46
:1018C000FFF736FF032300280DD1002D02D06B4611
:1018D0001B782B70231E06D06B46201C591C062239
:1018E00000F0FAFC0023181C3EBD08B5081C111CB2
:1018F000FFF736FF031E00D00323181C08BD08B5F0
:10190000081CFFF723FF031E00D00323181C08BD8B
:1019100008B5081CFFF71CFF031E00D00323181C8A
:1019200008BD08B5081CFFF70FFF0023984203D03D
:101930000533112800D0023B181C08BD112337B510
:10194000081C01AD2B700C1C00F08CFD211C82B218
:10195000281CFFF703FF031E00D00323181C3EBD05
:1019600013B50324A1420ED86B461970581C111CE4
:10197000062200F0B1FC00206946FFF7D7FE431EA7
:10198000984140420440201C16BD38B5CD7F01204F
:101990001F2D10D8002D01D103200CE00C1C081CB9
:1019A000D37F291CFFF7C6FE0028F5D1208CFFF756
:1019B000CDFE0028F0D138BD011C031C1F310022D0
:1019C0001A7001338B42FAD180239B00C2770384C3
:1019D000704710B500211F22041C00F09AFC002360
:1019E000E37710BD38B5051CFBF7C4FC6C30041C54
:1019F0002368002B02D0281C984709E06068002863
:101A000006D0A369002B03D0211C2A1C083198475B
:101A1000E469002CECD138BDBC3001807047BC308B
:101A20000088704768DF70472EDF704732DF7047ED
:101A300033DF70474CDF704730B585B0041CFBF7CF
:101A400069FA051C031C208810353038082866D830
:101A5000FDF760FA05651265273365425300E28899
:101A6000002A05D1211C281C0C3100F000FA56E098
:101A70001B69281C9B6851E0E288002A05D1211CC3
:101A8000281C0C3100F049FA49E01A1C5032117838
:101A9000022901D1013911704C331A7801321A70C0
:101AA0003DE01B69281C5B689847002837D0211C43
:101AB000281C0C31FCF702F831E06A46A388138039
:101AC000A3895380E3899380238A1234D3800294BC
