:020000021000EC
:10C0000000400020B9CB0100F5CB0100F7CB0100C7
:10C010000000000000000000000000000000000020
:10C02000000000000000000000000000F9CB01004B
:10C030000000000000000000FBCB0100FDCB010070
:10C04000FFCB0100FFCB010029CD0100FFCB010098
:10C05000FFCB010000000000FFCB0100FFCB01007F
:10C06000FFCB0100FFCB0100FFCB0100FFCB0100A4
:10C07000FFCB0100FFCB0100FFCB0100FFCB010094
:10C08000FFCB0100CDCD0100FFCB0100FFCB0100B4
:10C09000FFCB010015F501008DF10100FFCB010080
:10C0A000FFCB0100FFCB01000000000000000000FA
:10C0B0000000000000000000000000000000000080
:10C0C00010B5064C2378002B07D1054B002B02D06E
:10C0D000044800E000BF0123237010BD8028002029
:10C0E00000000000583B020008B5084B002B03D0AD
:10C0F0000748084900E000BF07480368002B00D14B
:10C1000008BD064B002BFBD09847F9E70000000064
:10C11000583B0200842800208028002000000000F6
:10C12000164B002B00D1144B9D46402292029A1AC6
:10C13000924600218B460F461348144A121A06F005
:10C14000B7FE0F4B002B00D098470E4B002B00D0B2
:10C1500098470020002104000D000D48002802D05F
:10C160000C4800E000BF03F06DFF2000290005F03F
:10C17000E9FC03F0B5FEC0460000080000400020C6
:10C18000000000000000000080280020AC2F0020EC
:10C1900000000000000000001FB5C4790179427959
:10C1A00083790094047A0194407A0290014804F063
:10C1B00021F81FBD1A37020008B5034805F098FCA6
:10C1C00005F035FC08BDC0469C280020F0B5041CD5
:10C1D00099B002A8C375424B00252360231C10AE02
:10C1E00001270C3361606272301C3E492572A572D2
:10C1F000059305F026FC0321221C237A00913B4085
:10C200000F31023308329BB201910295311C039524
:10C21000059805F030FC301C334905F012FC231C56
:10C2200078330493022302AA019315339B181A1C36
:10C23000311C3B1C009702950395049805F01BFCEC
:10C24000301C2A4905F0FDFB231CE4330693221C15
:10C2500008230B32311C0097019302953B1C039578
:10C26000069805F008FC059B21490893049B0BA840
:10C270000993069B08AF0A9305F0E3FB301C0BA95A
:10C2800005F0ECFB0323311C60683375B761B5839F
:10C2900005F03AFC606805F031FC071C202006F030
:10C2A00055FD061C05604560311C0830031C183123
:10C2B00000221A7001338B42FAD10123F2610BA9DB
:10C2C0000B920C930832746006F0D5FD094BB361F4
:10C2D0007B69002B00D0F361201C7E6119B0F0BD9A
:10C2E00070330200372A0000382A0000392A000083
:10C2F0000D180000BF190200F0B52D4C93B0201CA2
:10C3000005F0F6FB836D2B489B074DD402AD2A49FF
:10C310000A22281C06F0AFFD201C05F0E9FB03688B
:10C32000291C5B6B9847031E1BD1244F05AE381C9C
:10C3300003F08EFFFC20800500F032FC3223201C2D
:10C34000019305F0D5FB0368311C9B6B01AA98474C
:10C35000041E0AD1381C03F07BFF194803F078FF54
:10C360000AE0184818494A2203E05022231C1548C5
:10C37000164903F03FFF19E0019B9C4204D2305D57
:10C3800003F052FF0134F7E7114C0026201C03F0A4
:10C390005FFF281C06F03FFE864204D2A85D03F032
:10C3A00043FF0136F5E7201C03F052FF13B0F0BD48
:10C3B0009C2800203B370200F33702005737020069
:10C3C000B5370200643702008F370200C63702001B
:10C3D000C437020038B51B4C201C05F089FB836D67
:10C3E0009B0703D5184803F033FF2AE0201C05F013
:10C3F0007FFB03684021DB6B9847031E1CD1134D64
:10C40000281C03F025FF201C05F072FB104C03686C
:10C41000211C1B6C9847031E0AD1281C03F018FF2F
:10C420000C4803F015FF21880B4803F0E3FE08E0F9
:10C430000A480B49642202E063220848094903F0D4
:10C44000D9FE38BD9C2800203B3702005737020038
:10C45000CC2E0020B5370200FD3702006437020001
:10C46000023802002738020030B52E4C87B0201C5D
:10C4700005F03EFB836D9B0703D52B4803F0E8FED8
:10C480004DE02A49082202A806F0F5FC201C05F020
:10C490002FFB036804A99B6A9847031E36D1244DDD
:10C4A000281C03F0D5FE201C05F022FB036802A91E
:10C4B000DB6A9847031E2DD1281C03F0C9FE1D48D6
:10C4C00003F0C6FE201C05F013FB036869469B6A57
:10C4D00098476B46184D1988281C03F08BFE6B4655
:10C4E000281C598803F086FE6B46281C998803F0A7
:10C4F00081FE6B46281CD98803F07CFE201C05F0C9
:10C50000F7FA036804A9DB6A984708E00B480C496E
:10C51000742202E0752209480A4903F06BFE07B055
:10C5200030BDC0469C2800203B3702000437020083
:10C5300057370200B5370200373702006437020070
:10C5400062380200903802007FB50F250124084BA5
:10C550006D441E682C70306805F0D0FA0022036824
:10C56000718C0092DE682A1C231CB0477FBDC04638
:10C57000A028002000B58FB001A9134803F014FFD4
:10C5800001A8124906F03DFD002802D1FFF7B4FED4
:10C59000F2E701A80E4906F034FD002802D1FFF7AA
:10C5A00019FFE9E701A80B4906F02BFD002802D18D
:10C5B000FFF75AFFE0E701A8074906F022FD00282F
:10C5C000DAD1FFF7C1FFD7E7C3380200C63802004F
:10C5D000D4380200DF380200E938020073B5494C54
:10C5E0000626201C05F084FA474B8366201C05F0C4
:10C5F0007FFA464B4366201C05F07AFA6B46012110
:10C600005A1D051C0B1C0A30167005F0EAF90028AB
:10C6100001D0012074E0281C05F000FA0028F8D1B0
:10C62000201C05F065FA0321051C394A0A30331C29
:10C6300005F0D7F90028ECD1281C05F0EFF9002807
:10C64000E7D1201C05F054FAD026051C0368B6007B
:10C65000DB6B311C9847281C6B460A309A1D0684F8
:10C6600019210223168005F0BCF90028D1D1281C1D
:10C6700005F0D4F90028CCD1201C05F039FA051CAE
:10C68000244E0368311C5B6B9847281C09210A3033
:10C69000321C082305F0A5F90028BAD1281C05F0A2
:10C6A000BDF9051EB5D1201C05F022FA0571201C2C
:10C6B00005F01EFA0368FA269B68051C9847B60029
:10C6C000031C301CB34203D92B68281C9B68984775
:10C6D0001149704302F0BEFFE880201C05F008FA03
:10C6E00005F0A5F9002894D1206803689B68984755
:10C6F000041C0A48211C03F07DFD20784342584168
:10C7000076BDC0469C280020B9C1010099C1010036
:10C710000C370200A139020071020000F638020055
:10C72000F0B5A74EA1B0301C05F0E2FA071E00D00C
:10C730000CE1A820400006F009FB311C6422032311
:10C74000FFF744FD702006F001FB051C18AC08AB98
:10C750009F74059040C59B49201C05F072F9012388
:10C7600000930933019308AA08339B181A1C281C4C
:10C770000123211C0297039705F07DF9A0210D9557
:10C7800012AD0902281C05F05CF9291C201C05F0DB
:10C7900065F9012323750DABA361059B211C186866
:10C7A000A78305F0B1F9A320800006F0CFFA031C9F
:10C7B000059040C38449201C0326069305F041F9E7
:10C7C0000223824A00960193211C331C029703978F
:10C7D000069805F050F9059B7D497033201C07939E
:10C7E00005F02FF906230093043B7A4A0193211C9C
:10C7F000043302970397079805F03DF9059B7649A6
:10C80000DC33201C089305F01CF90223734A0096C0
:10C810000193211C331C02970397089805F02BF90C
:10C82000059B6F494933FF33201C099305F009F933
:10C83000022304366B4A00960193211C331C029795
:10C840000397099805F017F9059B6749B533FF333E
:10C85000201C0A9305F0F5F8022300960193211C91
:10C86000331C624A029703970A9805F004F9059A67
:10C87000882394469B0063445D49201C0B9305F07C
:10C88000E0F80923022200930192029703970B9884
:10C89000211C584A05F0EFF8574E3378002B1ED173
:10C8A000069B56491293079B0DA86B60089BAB60D3
:10C8B000099BEB600A9B2B610B9B6B6105F0C1F838
:10C8C0000DA9201C05F0CAF806232375059BA56158
:10C8D0001868211CA78305F017F901233370702015
:10C8E00006F034FA0023051C08AAD374344B18ACA4
:10C8F00008C5061C4249201C05F0A3F8012300933B
:10C9000011330193002308AA0293039313339B1856
:10C910001A1C211C0123281C05F0ADF8394912A866
:10C920000D9505F08EF812A9201C05F097F801234B
:10C9300023750DABA36100233068A38305F0DEF8F7
:10C940000368211C1B6898472F4B1E60FFF746FEAB
:10C950003843041E2D4800D02D4803F079FC2D48A3
:10C9600018A903F021FD002C05D02B4803F070FC22
:10C970000120404221E0124805F0BAF8274C036834
:10C9800012A95B68221C9847031E10D1244803F0AB
:10C990005FFCE07821786278A3780090207901909C
:10C9A000607902901F4803F025FCFFF7E3FD1E4865
:10C9B0001E49DB2203F01EFC012021B0F0BDC04661
:10C9C0009C28002001A00000292A0000FB3802005A
:10C9D000242A0000FF380200252A00000639020040
:10C9E000272A00000A390200262A00001239020014
:10C9F000282A00001A390200E02E00200A18000040
:10CA000003A0000002A00000A0280020243902009A
:10CA10003A3902005039020053390200E12E002059
:10CA200057370200283702006437020075390200C8
:10CA300008B500F057FB014B186008BD9C2800208A
:10CA400008B5054B1B68002B04D1044809210B22B3
:10CA500000F00AF908BDC046A4290020A02F00203C
:10CA600008B5031C0020022B0DDD0749033B9B008A
:10CA70005A585850824204D01368101C5B6898477B
:10CA800001E00120404208BDA428002070B50C1C24
:10CA9000151C022810DC0F4B1B68002B01D1FFF77F
:10CAA000CFFF6619B44205D021780B4800F062F937
:10CAB0000134F7E7281C0BE00338084B8000C0580E
:10CAC000002803D003681B68984701E0012040421A
:10CAD00070BDC046A4290020A02F0020A42800205B
:10CAE00010B50C1C02280BDC0C4B1B68002B01D171
:10CAF000FFF7A6FF0A4805F0B8F8207001200BE008
:10CB00000338084B8000C058002803D003689B6896
:10CB1000984701E00120404210BDC046A4290020F2
:10CB2000A02F0020A428002008B5031C0120022B00
:10CB30000BDD033B054A9B009858002803D003688F
:10CB4000DB68984701E00120404208BDA42800208E
:10CB500008B5031C0020022B0BDD033B05489B009E
:10CB60001858002803D003681B69984701E001208A
:10CB7000404208BDA4280020074A13681818EFF3A4
:10CB80000881884205D30C220120044B40421A60E0
:10CB900001E01060181C704704280020A82F002016
:10CBA00008B5044902F068FE02F098FF05F028F885
:10CBB00008BDC046002474490848026803210A439E
:10CBC00002600749074A084B9B1A03DD043BC8581B
:10CBD000D050FBDC0548804705480047240500404D
:10CBE0008C3B02000028002080280020CDCF0100CF
:10CBF00021C10100FEE7FEE7FEE7FEE7FEE7FEE7F4
:10CC000001704B1C0AD001238B404360044BC3606E
:10CC1000044B0361044B4361044B83607047C0467F
:10CC2000080500500C050050100500501405005078
:10CC3000012310B50A4ADC00A458A14207DA013BDF
:10CC4000DB00D3185A680168064BCA5007E001336D
:10CC5000112BEFD180210268024B4905D15010BD44
:10CC60008035020024050000F8B50F1C0121264B79
:10CC7000B9400360A023254CDB05161C1A59051C7E
:10CC80000A4380211A511A5949000A43FF39B14019
:10CC90001A511A598A431A5119591D4A0A409621A4
:10CCA0001A518901FFF7C4FF002204202B6819499B
:10CCB0005A506C395850012199601960191CFC3187
:10CCC000CA6015495A506A60A1220821D2009950C1
:10CCD000124A02319F50121899501E517B1C03D0EA
:10CCE000381C073904F0B1FF731C03D0301C03213A
:10CCF00004F0ABFF01220A4B291C1A6009480732D5
:10CD000006F0B9F8F8BDC046002000401405000048
:10CD1000FFFBFFFF6C0500001C0500000C05000078
:10CD2000A4290020A02F002008B5C1230D4A9B0094
:10CD3000D158090603D50C49096A002908D1D358EE
:10CD40005B070DD5084B0021DB68002B01D107E004
:10CD50000121064B1868002802D0054B1B68984734
:10CD600008BDC04600200040FC200040A82900204B
:10CD7000AC29002003681A1CFC32106A0128FAD181
:10CD800000201062014AC9B2995070471C0500008A
:10CD90000A480B4982680B4B002A08D01A680132F6
:10CDA0001A6000228260D222022092008850064A35
:10CDB0001B688858190A1B0618437047FC1001406D
:10CDC00000100140B429002004050000174B70B585
:10CDD0009A68002A0AD0164902200A6801320A60BD
:10CDE00000229A60D2221349920088505B6C114C49
:10CDF000002B19D0104E3378002B15D00F4B1D6827
:10CE0000FFF7C6FF2D1A002D0EDC0021074BD222A2
:10CE10005964802392005B02A3503170C2218900C3
:10CE20006350A35000F0CAF870BDC046FC1001402A
:10CE3000B429002000100140E82E0020B029002075
:10CE400038B5124C2378002B1ED1A121C420104AE2
:10CE5000C9005350C1390233FF395350443953503C
:10CE60000C4980000D580C4B2B40C0252D022B4344
:10CE70000B508023012591389B02FF380B500B602B
:10CE8000156004F0FFFE257038BDC046E72E002077
:10CE90000010014000E100E0FF00FFFF08B5084B73
:10CEA0001B78002B01D1FFF7CBFFFFF771FF054A7D
:10CEB000002302F081FC4904C00B084308BDC046B2
:10CEC000E72E002040420F00F8B5284B041C1B78C9
:10CED000002B01D1FFF7B4FFFFF75AFF244A0023CC
:10CEE00002F06AFC4B04C00BCF0B18430026221C37
:10CEF0000023802192197B410906884205D9002C24
:10CF000003DB0020012112184B41D9030023540CEC
:10CF1000D003184A2143801859410023144A02F0D3
:10CF20002BFC154D041C2B78144E002B02D03368BB
:10CF300098421AD0FFF72CFF201A022802DCFFF7D4
:10CF400027FF841CA82122020D4B120AC9005A5047
:10CF50002A783460002A08D101322A708022F939F7
:10CF60005202FF395A5044395A50F8BDE72E00207A
:10CF700040420F003F420F00E82E0020B029002061
:10CF800000100140074B1A78002A09D08021C220E6
:10CF9000054A4902800011504030115000221A7099
:10CFA0007047C046E82E0020001001400022024BCE
:10CFB0009A605A647047C046FC10014008B50248A8
:10CFC00004F073FE08BDC0461C360200234A10B5AB
:10CFD0001378111C012B19D1214B1B681B0715D18C
:10CFE000204BE0241A68F023101C184022420BD179
:10CFF0001D4A12681A4209D11C4A1D4B1A60802230
:10D000001C4B12021A6001E03028F1D00B68DBB231
:10D01000012B0DD1124A1268120709D1F021114AD1
:10D0200012680A40402A03D10F4A12680A420DD002
:10D030008022A3230021D205DB00D1500E4B996042
:10D04000013191609A68002AFCD005E0C12280215C
:10D05000D200C9058B50EBE710BDC046E00F00F0D1
:10D06000E40F00F0E80F00F0EC0F00F0DFFF07C066
:10D0700004050040186C0040FC0000407FB5144DD2
:10D08000144C2B78002B20D102AE301C04F036FE5D
:10D09000002815D17388592B12D13378B288D91F43
:10D0A000012904D80092201C20210B4A03E0201CF7
:10D0B00020210092094A03F0ADF901232B7004E00E
:10D0C000201C0749202205F0ADFF201C04B070BDD4
:10D0D000E92E0020EA2E0020A9390200C6390200FC
:10D0E000EB39020000487047C029002008B5044B06
:10D0F000044808330449054A036005F03DFE08BDB5
:10D1000078330200C0290020051D020000280020FD
:10D11000F0B5041C8BB001F0ADF8201C04F03AFE11
:10D12000208810380B2800D996E002F089FA0636DC
:10D13000959595519595955B9564A588267D01F00B
:10D1400003FF291C05F0E4FA231C1633019301F0B8
:10D15000FBFE021C0227A37958329C461378617BA0
:10D160003B43476E1370002F76D0624604AB1D80A0
:10D170009E70DA709972019BE11D05A80622099341
:10D1800005F079FE211C0B2004ABC0180E310622DD
:10D1900005F071FE04A8B8475EE0A78801F0D4FE50
:10D1A000314905F0B5FAA67901F0CEFE021C022144
:10D1B00058321378051C8B431370836E002B02D0FA
:10D1C000381C311C9847281CAC3005F0A6FD43E004
:10D1D00001F0FCFA4369A288A11D002B3CD0101C71
:10D1E000984739E001F0B0FE036EA279002B33D0EE
:10D1F000101C984730E001F0A7FE0126A37B051C18
:10D200005A07920F1E400192DB080622E11D04A876
:10D21000677B029305F02FFE6A46127904AB1A72FF
:10D220006A46127A9F71DE715A72231C0F3307937C
:10D230008C352B68002B02D004A8984709E0686859
:10D24000002806D0AB69002B03D0291C04AA0831A2
:10D250009847ED69002DECD101F070FC211C04F021
:10D2600096FF0BB0F0BDC046FFFF00001FB5A32323
:10D270008022DB00D205D3580820DB0700D405301C
:10D280001C4948221C4B01F03DFF00280AD080B207
:10D29000002807D1BFF34F8F184A194BDA60BFF34C
:10D2A0004F8FFEE7002302A802934360013303700F
:10D2B00004F060FD002801D0072417E0684604F060
:10D2C00057FD0028F8D1694604F050FD0028F3D13D
:10D2D0000C4801F047FF84B2002C07D10A4801F046
:10D2E0004BFF84B2002C01D100F062FC201C04B082
:10D2F00010BDC046C4290020811D02000400FA05AB
:10D3000000ED00E011D10100791D020080B200287B
:10D3100007D1BFF34F8F034A034BDA60BFF34F8F40
:10D32000FEE770470400FA0500ED00E0142337B56E
:10D330000849021C087858430B18181CDD88DC6863
:10D3400019790095044D240164590C305B69A0479C
:10D3500037BDC0460C2A0020382A0020F7B5664C9D
:10D360001D1C2378071C002B06D1131C2B4301D155
:10D37000023300E00123237023780320013B052BB7
:10D3800000D9B8E0181C00950E1C151C02F058F9C5
:10D39000032333705D968023584A5B055169013140
:10D3A00005D05069196989B202F054F900E0586952
:10D3B000802252051369116912699BB2013889B242
:10D3C00092B258437143920804F0E0FC0223002813
:10D3D00000D18FE08FE0081C04F0DAFC002800D0B8
:10D3E00089E0002D2DD1009B002B26D13B78042B0A
:10D3F00021D1072322E080235B0519693F4A89B2C6
:10D400004E43516901311ED05069196989B202F049
:10D4100021F980235B051969013889B241432A1C2F
:10D42000301C04F0B3FC002865D1009B002B04D114
:10D430003B78042B1AD0052300E00423237000203E
:10D4400059E0032356E05869E3E780235B05186938
:10D45000910080B246437A8888199208396904F0AD
:10D4600095FC002847D1009B1D43C2D00623E5E769
:10D4700080235B051969950089B24E437A88B618F6
:10D4800001921E4A76195169013106D05069196915
:10D4900089B202F0DFF8411E01E0596901398023A9
:10D4A0005B051B69019A9BB24B43AD18E918301C10
:10D4B000009A04F06BFC0028BAD01CE080230F4ACD
:10D4C0005B055169013105D05069196989B202F0D3
:10D4D000C1F800E0586980225205136911699BB2B6
:10D4E0000138584389B202F0B5F804F051FC002825
:10D4F00001D107232370FEBD0B2F00200010001068
:10D50000F7B514243D4A13785C431419211C009389
:10D5100023790831271D8D680192042B18D0052B23
:10D520004BD00F20022B67D1354B20891E886369B1
:10D53000B602E2889919334B4019921B80199A421E
:10D5400001D8920801E08022520004F01FFC4EE056
:10D55000802649682C4A0B01D31818895A895B68C0
:10D560007605AB4204D1131C4343E288934201D0B9
:10D5700002290AD13169281C89B202F06BF8204BCC
:10D580001B88C01804F004FC31E03169281C89B202
:10D5900002F060F832693469431CA4B25C4314237E
:10D5A00092B24243011C0098AA1A43430198920880
:10D5B000C318DB88EB18E31A15E08026760531697D
:10D5C000281C89B202F046F8011C326923893069AF
:10D5D00092B25D194A434B1C86B25E43E388AA1A95
:10D5E0005B199208F31A9B08381CFFF7B7FE002856
:10D5F00002D10123019A9370FEBDC0460C2A00207F
:10D60000D02E0020FF030000382A0020F8B5134D6B
:10D61000061C6C7806A807880420022C1DD02878E8
:10D620002418E4B2012C01D9023CE4B21420444392
:10D630002C196261221C26710C3241C941C2E3805F
:10D640002781AB78002B01D0002003E0FFF758FFC3
:10D650001128F9D06B7801336B70F8BD0C2A0020CB
:10D6600008B5064B5B78002B01D1002005E0FFF7E1
:10D6700047FF0028F9D01128F7D008BD0C2A002058
:10D68000F7B5364B9A781C1C002A66D000269E708F
:10D69000334B1A781F1C082A04D1022800D0314BC2
:10D6A0001E7044E0022803D0032856D10D2042E02A
:10D6B00014212D4D20782B88414301339BB22B80C0
:10D6C000611808790195022804D1CA889B02934207
:10D6D00010DA2CE0052839D0042828D1C988D01FB9
:10D6E000454245418C46281C9B02311C634525DA86
:10D6F000002828D00026301C3E70FFF717FE1423A8
:10D70000012022785343E3181E71DE80D8601E6129
:10D710005E611E81019B1E806378013B637013185C
:10D72000DBB2834201D8237001E0013A2270FFF797
:10D7300097FF002811D0FFF7F9FD0EE00121002A24
:10D74000D6D0311CD4E70029F1D0D3E7073A5142B3
:10D750005141301C0029CBD0CCE7F7BD0C2A00206A
:10D760000B2F00200A2F0020D02E002000220121A4
:10D7700038B5284B284D1A80284BD96019621A7089
:10D780005A709A701A71DA801A615A611A811A767F
:10D790005A835A629A629A831C1C802320495B0533
:10D7A0000A806A69013205D06869196989B201F095
:10D7B00051FF00E058698021002249050B690238B9
:10D7C0009BB25843174B1860174B1A601A819A8105
:10D7D0005A81164B08321A706B69013306D00E4B12
:10D7E0005869096989B201F035FF00E04869802273
:10D7F0005205136911699BB20138584389B201F08F
:10D8000029FF04F0C5FA002803D10123084AA370B8
:10D81000137038BDD02E0020001000100C2A0020FC
:10D82000CE2E0020482A0020382A00200B2F00206E
:10D830000A2F0020F0B5484B87B01B780824002B36
:10D8400000D185E00634002800D181E0002900D114
:10D850007EE003680493002B00D179E080235B0510
:10D860001A69858892B2073C954271D80F2D6FD9FD
:10D87000C2880192002A6BD0384A0F1C12680292AB
:10D88000019A6A43161CB4460392029A62440592B6
:10D89000334A5169013105D05069196989B201F0E3
:10D8A000D9FE00E0586980225205136901389BB205
:10D8B0005843059B072483424AD8136903999BB2B6
:10D8C000994207DD1069291C80B201F049FF89B235
:10D8D00000293DD1032307242B4039D1214A033CA1
:10D8E0001288012A34D002991F4879601101441826
:10D8F00025816D463A60AD88029F65816760049F0F
:10D90000164C0F5027680094019080256C466D05D9
:10D9100028690133208120899BB2864204D9286975
:10D9200020812089361A00E000266C4628692D697E
:10D9300020812089ADB284466744AE42E5D20024FE
:10D94000009801320760019841188B81054B1A80BD
:10D95000201C07B0F0BDC0460A2F0020482A002036
:10D9600000100010CE2E0020382A0020104B30B5B9
:10D970001C780823002C19D00633002816D0002A62
:10D9800014D00368002B10D10A4D2C68002C0CD049
:10D990002C894068614309186889444368682418E1
:10D9A000A14202D21360516000E00723181C30BD71
:10D9B0000A2F0020382A0020F0B5041C1B4885B02F
:10D9C00005780820002D2ED0063000292BD0002C01
:10D9D00029D025680738002D25D1154D2E68002E39
:10D9E00021D0666803962E896F896D687743BC469F
:10D9F000039F6544AF4216D2002A14D0B24212D817
:10DA0000D518B5420FDC0325093029420BD12B4232
:10DA100009D12F4207D1181C131C00900A1C0220A8
:10DA2000211CFFF7F3FD05B0F0BDC0460A2F002012
:10DA3000382A0020F0B5041C1B4885B00578082062
:10DA4000002D2ED0063000292BD0002C29D025689F
:10DA50000738002D25D1154D2E68002E21D066687F
:10DA600003962E896F896D687743BC46039F654492
:10DA7000AF4216D2002A14D0B24212D8D518B542FD
:10DA80000FDC0325093029420BD12B4209D12F424B
:10DA900007D1181C131C00900A1C0520211CFFF73D
:10DAA000B5FD05B0F0BDC0460A2F0020382A002081
:10DAB000F0B5151C244A85B0127802930824002A78
:10DAC0003ED0063400293BD0002839D00C68002C09
:10DAD00033D11E4E3268002A2FD0378973894A68A5
:10DAE0007B439C4673689C44624526D2002D24D01B
:10DAF000BD4222D8029BEB18BB421EDC03239C468E
:10DB000018421CD1029F1F4219D16746131C3B408B
:10DB10001F1E14D103950D1C029B02909918039AA5
:10DB200005F0A9F92B68039A1B010092F658281CEE
:10DB300003213A1C029BB04702E0072400E01024B6
:10DB4000201C05B0F0BDC0460A2F0020382A002056
:10DB5000154BF7B51B78041C0820002B23D006308A
:10DB6000002C20D023680738002B1CD10F4B1A68DB
:10DB7000002A18D05F681E895B8962687343DB19CD
:10DB80009A4210D2093093070DD1D01B0D1C311CC5
:10DB900001F0E6FD07200A1E05D100910338211C83
:10DBA0002B1CFFF733FDFEBD0A2F0020382A002072
:10DBB0001FB5002302AC0393283323806933FF335E
:10DBC0006380E380803B01A8FF3B0D490522037081
:10DBD00004F061F980B200280FD18020800004F0A9
:10DBE00056F980B2002808D1201C04F052F980B206
:10DBF000002802D104F049F980B204B010BDC0463B
:10DC0000F3390200F0B58BB004AB9C1D0E230C223F
:10DC10000390019123804B7806A95343234AD318DC
:10DC20001889221C032304F040F900283AD1182750
:10DC3000019B1F4D5B7826885F4300933B1C083394
:10DC4000EB18181C06A9321C029305F005F92C1CD0
:10DC500000280DD10C22009B5343144AD318997A03
:10DC6000022319401ED1E819182205F021F919E004
:10DC7000E81943680F4F002B00D10F4F18250322DE
:10DC8000009B06A96B43E250E3185E60321C0298C9
:10DC900005F0F1F8019B039859782A1C6943382351
:10DCA0006118B84700200BB0F0BDC046D22E00204E
:10DCB000D82A002035DA0100B9D90100F0B585B0C5
:10DCC000041C0E1C02AA81782148FFF74FFE002891
:10DCD0003CD10C2361781F4A4B43D3189B7A1E4FCB
:10DCE00001925B0605D4022E03D01C4F012E00D0FA
:10DCF0001B4F1C25A1781B4B694302A859182A1CED
:10DD00000023B847002813D1022E1FD00C23402136
:10DD1000627802A85343019AD3189A7A8A439A7276
:10DD20006178114B69432A1C59182B1CB84701E034
:10DD3000022E0BD00C23227802A853430B4A211C3D
:10DD4000D3189B7A0A4A9B009B58984705B0F0BDB0
:10DD5000002B0020D22E002035DA0100B9D90100B5
:10DD6000AF1E02004C2A0020BC2A0020F02A00200E
:10DD700034360200F7B518220190437829485A43F7
:10DD800081184C68284F002C0FD00C21594379186A
:10DD9000897A4DB2002D07DA490605D4151C0835DD
:10DDA000A6B24519145802E00024261C251C0C229A
:10DDB0005343FB181889291C321C231C04F073F8E8
:10DDC0000B2818D10C22019B291C5B785343FB18AC
:10DDD0001889321C012304F066F800280ED00C21AB
:10DDE000019B124A5B784B43FF18388904F059F8BD
:10DDF00000280AD115E0002803D100E0012400200A
:10DE000000E00B48012C0CD1E9E70222094BC318B2
:10DE1000934303D0082801D0112801D1044800E021
:10DE20000020FEBDD82A0020D22E0020FFFF0000D7
:10DE300041800000FECFFFFF70B51824031C487816
:10DE4000094D60430E1C2818191C221C3823FFF7AB
:10DE50002FFE002806D173785C432C1963680133C8
:10DE600000D1606070BDC046D82A0020F0B5454C96
:10DE700093B02468002C00D181E0189C542C7ED8EB
:10DE80000024161CFF221D1C03AB5A709A70DA7016
:10DE90001C70189B06AF009101903C700B950A9383
:10DEA000A1B2394804AAFFF761FD002809D1019801
:10DEB00004A9082204F0D0FF002802D103AB9C7013
:10DEC00002E00134042CEBD103ACA178FF2956D039
:10DED000009B042B0AD1189A06AB542A01D1343A7C
:10DEE00000E040221A701A7803213AE0274BEB1A1F
:10DEF0006F2B10D8264B002E04D101228A401868BF
:10DF000010423CD001228A401968914320221960B6
:10DF100006AB1A701FE01F4BEB1A1B2B09D82022EF
:10DF200006AB1A70002363700CAB0B9318230A9393
:10DF300011E019482D1A172D21D830233B700023EA
:10DF400063700133E370154B997A0223194002D1B3
:10DF5000182204F0ADFF009A06AB032A0CD1012170
:10DF60001A780A431A7009AB0793064B201C1B68EA
:10DF700006A9321C984702E01A780221F1E713B093
:10DF8000F0BDC046F02A0020002B00204C2A0020C3
:10DF9000FC2A0020BC2A0020D82A0020D22E0020F3
:10DFA00070B51C2444430D4E051C30190021341952
:10DFB0000622113004F07CFF201C0021102204F006
:10DFC00077FF0120FF23A840054A2374A376013B75
:10DFD000FF3B238313688343136070BD4C2A0020EA
:10DFE000FC2A002037B581B2051C6A460748FFF7B6
:10DFF000BDFC041E08D168465421FFF7A9FD041E8C
:10E0000002D1281CFFF7CCFF201C3EBD002B0020B6
:10E01000F0B585B0002856D000252C4B041C1D609F
:10E020005D729D7201232A48291C8372023B0722DC
:10E030000381C37204F03CFF2648291C182204F017
:10E0400037FF281CFFF7ACFFFF22234BEA540135B2
:10E05000042DF6D16A465423204F9380204B684606
:10E06000391CD5800093FFF7E5FB3E1C00282BD11F
:10E0700001231C4D24782B70002C1AD1A1B2301C26
:10E0800002AAFFF773FC071E0CD11C22131C63436A
:10E09000154802A9C0183B1CFFF70AFD002804D050
:10E0A0002F7011E000232B700EE00134042CE5D119
:10E0B0000AE06B466A46DB889188381C594389B26E
:10E0C000FFF746FD00E0094805B0F0BDF02A00204A
:10E0D000D22E0020D82A00200C2F0020002B002058
:10E0E0006DDE0100102F00204C2A00200E80000061
:10E0F000F8B5174B1B78002B24D0002824D000291A
:10E1000022D00B68002B1FD0124D2C68002C1DD183
:10E11000061C281C0F1C08C00531052204F0ABFEAC
:10E120003B790220AB72012304212A7A9A430243ED
:10E130008A432A72EA79134303438B43EB71201C11
:10E14000347004E0044802E0044800E00448F8BDEC
:10E15000102F0020F02A0020088000000E80000010
:10E1600004800000154B1B78002B22D000281ED005
:10E1700000291CD00378002B1BD1114B1B68002BEE
:10E1800017D04278002A16D10E4B9B7A012B12D061
:10E190002420184003D00123101C0B700CE05BB24C
:10E1A000002B02DA02230B7006E0087004E0064838
:10E1B00002E0064800E006487047C046102F0020E5
:10E1C000F02A0020D22E00200E80000008800000DF
:10E1D00010800000104B10B51B78002B19D00028C0
:10E1E00015D00478002C14D10C4B1B68002B10D0D8
:10E1F000201C1C2363430A4AD3189B7EFF2B02D0AA
:10E20000201CFFF7EFFE0134042CF2D102E0054898
:10E2100000E0054810BDC046102F0020F02A002065
:10E220004C2A00200E8000000880000013B5041C5A
:10E2300081786A460B48FFF799FB002810D11C2310
:10E240006078094A5843694610181A1CFFF730FCD9
:10E25000064B074A9B7A68469B009B58211C9847AF
:10E2600013BDC046002B0020BC2A0020F02A00204D
:10E2700044360200FF23F0B5BD4A8FB012780393F5
:10E28000002A00D1B2E1BB4A11680192002900D1F5
:10E29000ACE104AC05AF6370A370E370031D7B6059
:10E2A0002A2300223B810388061C2270B24D102BCA
:10E2B0000BD0A97A82880091890761D5AF498A423B
:10E2C00008D0298991425BD104E00121AB7A0B424D
:10E2D00005D18BE1EA7AA2700022627050E011232E
:10E2E00062703B708388871D2B810223281CAB72D0
:10E2F0000125391C072204F0BEFD737D1D4009D0A5
:10E300009F4A5B08D35CFF2B2FD003932DE0013590
:10E31000042D0FD01C2068439A4B10301818391C5C
:10E32000072204F099FD0028F1D103951DE0F3794F
:10E330002B423ED10025019B05AE1B68201C311CE1
:10E340002A1C98473378122B00D04FE18A48837AF1
:10E35000012B00D14AE101238372023B0381C37286
:10E360000021072204F0A4FD40E10A21039B824A18
:10E37000DBB2D3729172201CA370FFF757FFD9E76D
:10E38000172B47D1012204251427019B01995B7AA1
:10E39000009893434B72784B05A9A8430F7098726D
:10E3A000B779191C002FC2D0D87AFFF71BFEB579B8
:10E3B000C1E7A378FF2BBDD0082528438872F07AE7
:10E3C000800706D51C2058436E4D2818857E95433E
:10E3D0008576CA7AFF2AADD01C220D7869485A4347
:10E3E000022D09D08518281C0722103004F043FDA7
:10E3F0002A1CAB7E022106E063498318498A1A1C55
:10E40000198301219B7E8B439376201C0121FFF70A
:10E4100055FC8FE7172B00D99AE0132B52D1132309
:10E42000009A3B700F3B1343AB72EB7AFF2B24D166
:10E4300000251C206843534B1818837EFF2B17D1EF
:10E440004D4B1A78031C1833022A07D0FD224A4983
:10E450009A701030F63A04F00EFD01E0FE229A7038
:10E4600003AB1D70039B444ADBB2A370D37210E070
:10E470000135042DDDD1454D0CE0162344480E2214
:10E48000083000213B7004F013FD4423009A13432D
:10E49000AB7200250021384B0B91DA7A1C235343D1
:10E4A000384A0D91D3180C93374B09910893019B6F
:10E4B0000A911A1DB08808AB03F0EFFC002800D1C8
:10E4C00039E793E0142B26D12B4FFB7AFF2B17D182
:10E4D0000023F1891C225A432A488218128B8A424F
:10E4E0000BD10822009903930A43DBB2EB72AA72A4
:10E4F000201CA370FFF79AFE02E00133042BE9D140
:10E50000FB7A0021FF2B00D01F49B0881D4A002351
:10E5100003F0C5FC6AE0112B68D10223009A9A43EC
:10E52000131CAA72009A120707D55BB2002B0BDAF4
:10E53000201C0021FFF7C2FB06E0A078FF2803D0D3
:10E54000FFF72EFDFF23A3701023AB72023302E00E
:10E550001C2B02D113233B70ECE6522B1CD1019BE8
:10E560000C4A9B7A201C9B009B5898473EE0C04673
:10E57000102F0020F02A0020D22E0020FFFF0000E4
:10E580000C2F00204C2A0020BC2A002043800000D1
:10E59000D82A002024360200182B27D1B379112B5A
:10E5A00015D1009B1B0712D511480E2208300021FF
:10E5B00004F07EFC1623009A3B704A331343022278
:10E5C000AB72019B5B7A1343019A5372B2E68023CC
:10E5D000009A5B421343AB7215233B70019B054AC3
:10E5E0009B7A201C9B009B589847A3E60FB0F0BD78
:10E5F000D82A00202436020030B5002912D00A782B
:10E60000002A11D10A4B1B68002B0DD0FF23094CA7
:10E610008B702589FA3B854207D14A70E37A8B706B
:10E62000131C02E0044B00E0044B181C30BDC04634
:10E63000F02A0020D22E00200E800000088000006A
:10E64000F0B5151C1E1C0F1C85B001AC00210C225E
:10E65000201C04F02DFC0A9B281CE3800B9B211C32
:10E66000A3602770668003F042FC031C00208342F5
:10E6700007D00530112B04D0034A9B18584258414B
:10E68000063005B0F0BDC046FCCFFFFFF7B50193E3
:10E690000368041C5B680E1C171C9847051C0620A9
:10E6A000002D2BD1019B089963631422E761201888
:10E6B00004F0E1FB201C09991422203004F0DBFB5C
:10E6C000231C01213D33A680013B5D70301C1D7071
:10E6D00019712A1C03F007FC061C281C002E0DD003
:10E6E0002368201C9B6898470520112E06D0044BF8
:10E6F0009E4202D00130072E00D10420FEBDC0464C
:10E7000002300000F8B501232B4A2C4C1168171C6D
:10E710000B404FD12A4A251C08322260221C30327D
:10E720001370221DD387274A261C2261221C4C32DB
:10E730001370221C4D321370221C4E321370221C97
:10E740004F321370221C5032A3752385A4641370BA
:10E750005235B236281C002103F073F90023AB8236
:10E76000EB821835B542F5D1261CB4360025301C95
:10E770000021202204F09CFB301D291C03F061F9CC
:10E78000114B35767583B58320369E42EED1231C1E
:10E79000221CFC3310329D63DD631D645D649D6447
:10E7A000DA641D655D659D65DD651D665A669D665D
:10E7B00001233B60201CF8BD082B00200C2B0020FF
:10E7C000D0330200C0330200402C00200121074A50
:10E7D000074813680B4007D143608360C36003613F
:10E7E0004361044B116003607047C046742C0020E5
:10E7F000782C00200034020073B50E1C151C026832
:10E80000009394682B1C321C0149A04776BDC0467A
:10E81000FFFF000073B50E1C151C06AA11780268D4
:10E820000093019114692B1C321C0149A04776BD4D
:10E83000FFFF000038B5064B041C03604068002849
:10E8400004D0C56904F094FA281CF8E7201C38BDF0
:10E850002834020038B5064B041C036040680028C9
:10E8600004D0C56904F084FA281CF8E7201C38BDE0
:10E870003834020038B5064B041C03604068002899
:10E8800004D0C56904F074FA281CF8E7201C38BDD0
:10E890004834020010B5041C074B03601830FFF722
:10E8A000E9FF201C1030FFF7D5FF201C0830FFF7D0
:10E8B000C1FF201C10BDC04658340200F0B589B01D
:10E8C00001930FAB151C1C780E1C071C00F03CFBC1
:10E8D00003F021FF002302930EAB1B8802AA1380D2
:10E8E000019B0393002C15D13B1C7A797C3300E00B
:10E8F000013494420ED20833191C08390988A94200
:10E90000F6D130220A34A4003F197B680133DB7F43
:10E9100013420AD102AA301C291C03F065FB421ED7
:10E92000904103234042034027E0B042F2D002224C
:10E93000DB06DB0F04A9D31A8B7000238B80019BAD
:10E940000D80CB600EAB8B6003F052FB80B20028D1
:10E9500012D008280FD00A4B98420CD011280AD0A8
:10E96000084B984207D0301C291C02AA03F03CFB3C
:10E970000323002801D10520031C181C09B0F0BD99
:10E980000330000001340000F0B5051C95B0081CF0
:10E990002624099100F00CFC04ABE4180E900EA99B
:10E9A0000120221C03F01EFB002801D00320C0E040
:10E9B0002388099A08909383099B089A1B7D9342A8
:10E9C00015D9099B9B690A93089B0A9A9B009C583E
:10E9D0006369002B10D1238B002B0DD1631CDB7FCF
:10E9E000022B09D108980130C3B20893E4E72B79D0
:10E9F000002001332B719CE0201C00F0D9FB002685
:10EA00000E900B960A96231C28331B78B3421AD912
:10EA1000626AB3009F5800230FAA137000200FA949
:10EA2000CA1801335070102BF8D1434B381C4B825D
:10EA300003F065FB002803D07B690A93BB8B0B9323
:10EA40000136F6B2DFE76169631CDA7FA31CDB7F66
:10EA50000091218B00200191618B02910A99039111
:10EA60000B990491211C293109780591211C2A3127
:10EA70000978069169790F31C90069180431079145
:10EA80000EA903F079FE002890D16B79071C1A1C9F
:10EA90000A3292000F33AA18DB005460EB189B88EF
:10EAA000E3836B7901336B71231C28331B78BB42E2
:10EAB00098D9626ABB009E5800230FAA13700020E9
:10EAC0000FA9CA1801335070102BF8D11A4B301C03
:10EAD0004B8203F014FB0A90002827D1301C00F071
:10EAE00067FB728B338B00929E225200AA5C0E90C1
:10EAF0009C325200AA18063201920A980EA9726935
:10EB000003F0E9FE002800D050E79E239E215B0021
:10EB1000EA5C4900531CDBB246326B5492009C33D2
:10EB2000AA185B005660EB18DB88F383781CC7B229
:10EB3000BAE715B0F0BDC04601290000012370B549
:10EB4000254D264C2A68134044D1254A2371A260E2
:10EB5000244A63712261244AE360A261234A63610B
:10EB60000832E36123626362A36222600026E21836
:10EB70000433D662502BF9D1A0197C300021082231
:10EB8000083604F095F9A02EF6D1221C0023FC32A1
:10EB9000136253629362D362136353639363D363C9
:10EBA0009E225200A3540232A3520232A3520232D6
:10EBB000A3520232A3520232A3520232A3520232B1
:10EBC000A3520232A352201C01330949094A2B6087
:10EBD00004F0D2F8201C70BD902C0020942C002052
:10EBE000283402003834020048340200783402002D
:10EBF00095E801000028002070B50B780C1C142B40
:10EC00001BD002D8132B05D052E0152B1FD0222B7E
:10EC100045D04DE04E68FFF7D9FD6368051C1888A4
:10EC2000B3780122191C5C08114022406C68DB0695
:10EC30005B0F002C3CD0A0473AE0FFF7C7FD6368AC
:10EC40001A8899788368101C002B26D130E04B6815
:10EC50009A7813091207120F012A02D0022A08D04B
:10EC600011E0013BDBB20025022B0DD8114AD55C27
:10EC70000AE00425012B07D0023B594259410135D6
:10EC80004B421D4000E00025FFF7A0FD63681A8895
:10EC9000C368002B0CD0101C291C984708E0FFF714
:10ECA00095FD63681A880369002B01D0101C9847F2
:10ECB000002070BDF9390200F0B5314E87B03478CC
:10ECC00000960026B44257D11D1C01920C1C061C54
:10ECD000FEF74CFD002801D009264DE0002D0FD095
:10ECE000222003A9039503F09BFB002808D00626E9
:10ECF000082841D01138061C7042464104363BE0DA
:10ED0000002302AA101C1370FFF782F9011EE3D141
:10ED100003AD0C22281C04F0CBF81A4B01270393F7
:10ED20001023022204216879AB71EB712B7A3E40EB
:10ED30003B43B843304313433C400B436100041C46
:10ED400007262B721C2394432A71019A0C433240EC
:10ED500092009C4314430C48291C6C71FFF7C8F9BE
:10ED6000002806D0042807D0013E082804D0033626
:10ED700002E0061C009B1F70301C07B0F0BDC046AF
:10ED8000122F0020F9EB0100112F002008B50748D1
:10ED9000FFF720FA0023984206D00733042803D057
:10EDA000013B082800D00333181C08BD112F002098
:10EDB000002373B501930F4B01AD1B780E1C291C6A
:10EDC0002B70FFF719FC041E04D0042305280FD074
:10EDD00005330DE0281C311CFFF7C4F9231C002863
:10EDE00006D00723042803D0013B082800D00333B2
:10EDF000181C76BD112F002000487047FFFF00004F
:10EE0000F0B50C78021C87B00220012C29D04B8869
:10EE1000032C06D1A03B14489BB2834205D90320A2
:10EE20001FE0203B9BB21148F7E78D88104B9D42B5
:10EE3000F5D80E1C171C68461822002104F038F87B
:10EE40006B466A461C70738868461382558203F0CD
:10EE5000EFFA0028E3D13A1C0121583213780B4312
:10EE6000137007B0F0BDC046603F0000E03F0000F7
:10EE7000FF3F000030B589B01C1C6B461A70581C4F
:10EE800006220C9D03F0F7FF02AA002C07D023886E
:10EE9000138063885380A3889380E38806E032233D
:10EEA0001380DB185380F5339480FF33D380FC2329
:10EEB00004A9087803400B7000234B609D4206D0E4
:10EEC0002B880B816B884B81AB888B8106E0FA2302
:10EED0005B000B812D3BFF3B4B818D81684603F02E
:10EEE000C1FA031C0020834214D00630082B11D035
:10EEF00005D80130042B0DD0834208D109E005204C
:10EF0000112B07D0044A934203D0102B01D00920C3
:10EF100000E0042009B030BD02320000024B0B605B
:10EF2000092313607047C046FC390200012008B570
:10EF3000011C044A00F0FEFA031E00D00923181C2D
:10EF400008BDC046DD260200F7B50127354E364C18
:10EF500035683D4063D1354B201C2360A0232571CB
:10EF6000E38025810A3003F0A3FB8021201CC90126
:10EF70000A1C2B1C2C30009500F0F8FA201C3430B1
:10EF800003F096FB221C0221583213782566BB43FE
:10EF90008B431370231C5C331D706566A566256763
:10EFA0002A1C00237432A21801351370102DF7D1DA
:10EFB000221C0832D367221C88321360221C903234
:10EFC000E3661360191C00229431611801330A7042
:10EFD000102BF7D1231CA4331A60231CA8331A600A
:10EFE000231C201C8C331A600421AC3000F0F4FA8E
:10EFF000201C0A3003F069FB201C343003F065FB51
:10F000000B4B012208332360231C5242BC331A806D
:10F010000123201C0749084A336003F0ADFE201C81
:10F02000FEBDC046A42E0020E42D0020A83402001E
:10F03000083502003DF001000028002010B5041C36
:10F04000034B0360AC3000F0E7FA201C10BDC04653
:10F05000A8340200F0B5264B85B01B78002B45D0B4
:10F06000244B254E1D6834686A4255416242544122
:10F07000EDB2E4B20193002D36D103A803F050FBAA
:10F0800005280CD0002804D0291C2A1CFEF73EF9C4
:10F0900006E0019B03981B680093984700E0012558
:10F0A000002C1ED1154B03A91B8801240B80144B87
:10F0B0001B68181C009303F039FB071E052F0BD0AB
:10F0C000002805D000210A1CFEF720F9002403E0E7
:10F0D0000098336898473C1C002DCCD0002CCAD037
:10F0E00004E0002D02D1C6E7002CDBD005B0F0BD56
:10F0F000132F0020AC2E0020B02E0020DE2E00208A
:10F10000A82E002038B5041C0720002913D08D0735
:10F1100011D1094801600949201C0A80084A09499F
:10F12000136003F0FFFA002805D10122064B1630C8
:10F130001A7003F0F3FA38BDA82E0020DE2E00204E
:10F14000B42E002031270200132F002008B503F051
:10F15000EBFA031C5A1E9341014ADBB2137008BD3F
:10F16000132F00200E23002802D0024B186000232A
:10F17000181C7047B02E00200E23002802D0024B2E
:10F1800018600023181C7047AC2E002008B5074BF0
:10F190001B68002B07D09847002806D000210A1CC6
:10F1A000FEF7B4F801E0FFF755FF08BDB42E0020CC
:10F1B000F0B5438A87B0029303780126002B3BD039
:10F1C000002283190193214B1D680393AA4216D094
:10F1D0001121002351431E4F79189C1E012C04D984
:10F1E000019CCE5CE45CA64207D10133102BF4D124
:10F1F00011235A43BF183E7C1EE00132E6E7041C8F
:10F20000019803F0A1FA2378071C061C002B01D1FA
:10F2100012340194082D0FD011246C430C4B01992A
:10F220001C19201C102203F026FE0023A370E3709B
:10F23000039B013527741D6005AB9E705888029BA7
:10F2400000040343181C07B0F0BDC046B82E0020D0
:10F25000142F002073B5002402268180051C3F3046
:10F2600004700138867001AE0470081C311C3280B5
:10F27000738003F05EFB061C201CA6420CD0281CE9
:10F2800003F05BFB0520112E06D0044B9E4202D0FA
:10F290000130102E00D1042076BDC046023000009F
:10F2A000F0B5041C89B0231C403301931B78012B5B
:10F2B00064D1251C201C3C353D302B7802789342CC
:10F2C00043D20021A71D03A802F0BBFB381C03A9F1
:10F2D00002F015FF002809D118212E78381C71433F
:10F2E0006118423102F00BFF00282BD0E369002B9C
:10F2F00011D0002103A802F0A4FB201C03A9203098
:10F3000002F0FDFE002806D0182328785843201864
:10F310004230E3699847019B1B78012B0ED1636B48
:10F32000002B0BD018232A78A1885343E3185033BD
:10F33000DA88201C1B89FFF78DFFB4E72B78013397
:10F340002B70B0E701362E70ADE7002A16D0002BE7
:10F3500014D01822013B53430022E318503319897B
:10F36000074B02702A70994203D1201C02F003FE61
:10F3700004E0A08803F0DBFA0028F6D109B0F0BD64
:10F38000FFFF000073B5051C2B686C69002B1CD0B7
:10F39000231C032240331A700F49013268466E68FD
:10F3A00003F069FD18237343E3185033D98801AA89
:10F3B00011801B8969465380A08803F0BCFA00289D
:10F3C00009D0281C03F0C5FADEE740342378032B6C
:10F3D00001D1023B237073BD1237020073B5061CC6
:10F3E00033687469002B1DD0231C0422114940335B
:10F3F0001A7089186846756803F03DFD00236D0199
:10F4000065190193B835EB8801AA13800133538045
:10F41000A088694603F08FFA002809D0301C03F059
:10F42000AAFADDE740342378042B01D1023B237094
:10F4300073BDC046123702007FB5031C40331B78F2
:10F44000041C032B30D1314B0A689A4227D1002685
:10F450008A686946931BDB7B73540136102EF8D102
:10F46000251C2535FF35281C03F073FA1823584353
:10F470002418231C0122201C40339A706946321C38
:10F48000433003F0F8FC6B466A469B78D2781B0247
:10F4900050341343A380281CFFF774FF35E0253058
:10F4A000FF3003F056FA30E0042B2ED1184B0A68D7
:10F4B0009A4226D100268A686946931B9B7C735426
:10F4C0000136102EF8D1251C3D35FF35281C03F0E0
:10F4D00052FA40012418231C0122201CA8331A7060
:10F4E0006946321CA93003F0C6FC6B466A469B781D
:10F4F000D2781B02B03413436381281CFFF76EFFE0
:10F5000003E03D30FF3003F036FA7FBD010010000C
:10F51000010013000120054A08B513785840044B38
:10F5200010701B68002B00D0984708BD9C2F00204E
:10F53000BC2E002038B50C4B051C15200C1C1A6085
:10F5400003F043FB00280ED11530291C03F03FFBCC
:10F55000002808D1153003F036FB002803D1033012
:10F56000211C03F036FB38BDBC2E0020F7B5FA266F
:10F57000B6007143009308AB1B78041C081C1549A6
:10F58000171C019300F066F885B2301C2580784383
:10F59000104900F05FF86B461B8880B2A3806B4671
:10F5A0001B796080A371032D01D80423238080235D
:10F5B0002288DB019A4200D92380032801D8042243
:10F5C000628062889A4202D98023DB016380201C1A
:10F5D000FEBDC0467102000038B50E4B051C083355
:10F5E000036000234360A960C360FE230C1C5B051D
:10F5F0008800994201D90120404203F0C4FB031C5A
:10F60000013C013CA21C02D0002204C3F9E768605F
:10F61000281C38BD7035020010B5041C044B08339B
:10F62000036003F05EFB606803F0A2FB201C10BDCA
:10F6300070350200014B18687047C046C02E00208C
:10F6400002B4714649084900095C49008E4402BC75
:10F650007047C046002243088B4274D303098B4293
:10F660005FD3030A8B4244D3030B8B4228D3030C92
:10F670008B420DD3FF22090212BA030C8B4202D334
:10F680001212090265D0030B8B4219D300E0090A5C
:10F69000C30B8B4201D3CB03C01A5241830B8B4265
:10F6A00001D38B03C01A5241430B8B4201D34B034E
:10F6B000C01A5241030B8B4201D30B03C01A5241B3
:10F6C000C30A8B4201D3CB02C01A5241830A8B4238
:10F6D00001D38B02C01A5241430A8B4201D34B0221
:10F6E000C01A5241030A8B4201D30B02C01A524185
:10F6F000CDD2C3098B4201D3CB01C01A5241830939
:10F700008B4201D38B01C01A524143098B4201D372
:10F710004B01C01A524103098B4201D30B01C01A9D
:10F720005241C3088B4201D3CB00C01A5241830817
:10F730008B4201D38B00C01A524143088B4201D344
:10F740004B00C01A5241411A00D2014652411046A4
:10F750007047FFE701B5002000F00CF802BDC0467D
:10F760000029F7D003B5FFF775FF0EBC4243891A95
:10F770001847C0467047C046002B11D1002A0FD150
:10F78000002900D1002802D00021C943081C07B479
:10F79000024802A14018029003BDC046D9FFFFFFF6
:10F7A00003B4684601B5029800F04CF8019B9E46F0
:10F7B00002B00CBC7047C046F0B54F464646050443
:10F7C0002D0C2C1CC0B41704160C3F0C9946030CCE
:10F7D0007C4375435F4373437D19260CAD199C46EA
:10F7E000AF4203D980235B029846C4444B46514341
:10F7F000434324042E0C240C2D0466442C19591860
:10F800008919201C0CBC90469946F0BDF0B583B018
:10F81000161C1F1C0090019100F09EF9041C0D1C89
:10F82000221C2B1C301C391CFFF7C6FF009A019BC1
:10F83000121A8B410899201C0A604B60291C03B0E6
:10F84000F0BDC046F0B5141C83B01D1C00900191A2
:10F8500000F07AFA221C2B1C061C0F1CFFF7ACFFD1
:10F86000009A019B121A8B410899301C0A604B6068
:10F87000391C03B0F0BDC046F0B55F4656464D4654
:10F880004446F0B445024600C40F83B00F1C6D0A15
:10F89000360EA34645D0FF2E25D080231B041D43E2
:10F8A00000239A46ED007F3E01937B025B0A984657
:10F8B0007800FB0F000E994640D0FF2838D08023F7
:10F8C00042461B041343DB00984600237F384A4618
:10F8D000019F30186240411C1F430F2F69D87D4E95
:10F8E000BF00F659B746002D45D108230193063BCA
:10F8F0009A46DAE793465346022B2FD15B46012402
:10F9000000251C40FF236D02DB056D0AE4071D4343
:10F910002543281C03B03CBC90469946A246AB4602
:10F92000F0BD002D2CD104230193033B9A46BCE784
:10F9300043465A4253410322D31AC8E742460123A1
:10F94000002AC4D0404600F0E9F84246431F9A40DE
:10F9500076235B42181A90460023B8E7032B00D1A8
:10F96000ADE0012B00D08CE05B4654461C40E4B275
:10F9700000230025C7E70C230193093B9A4694E72F
:10F98000281C00F0CBF87626431F9D4000237642CA
:10F99000361A01939A4688E780250024ED03FF2359
:10F9A000B1E74546CB469A46A5E7454693469A4673
:10F9B000A1E743462C041B0C9C46230C444626041A
:10F9C0001C1C360C2F0C7443351C66467D43734358
:10F9D0007743EB18260C9E19B54203D980235B02AE
:10F9E0009C46674424043304240C1B199D016C1E9F
:10F9F000A5419B0E360C2B43BD19AD011D432B01B8
:10FA000004D5012368081D400543081C031C7F33EF
:10FA1000002B2CDD690704D00F212940042900D0D8
:10FA20000435290103D52C4B1D40031C8033FE2BCC
:10FA300017DD0124FF231440002564E78020C00364
:10FA4000054209D04346034206D1454605436D02AF
:10FA50006D0A4C46FF2356E705436D026D0AFF23EE
:10FA600051E70124AD016D0ADBB214404BE77E2360
:10FA70005B421B1A1B2B07DD0124002314400025C9
:10FA800041E7081C5A46C1E79E30291C8540D940F1
:10FA9000681E85410D436B0704D00F232B40042BB8
:10FAA00000D004356B0104D5012401231440002546
:10FAB00029E70124AD016D0A1440002323E78023C8
:10FAC000DB031D4301245B466D0223401C1C6D0AB1
:10FAD000FF2318E754360200FFFFFFF74202510AE6
:10FAE0004200C30F120E00207E2A0DDD9D2A0CDC81
:10FAF000802000040143952A0ADC9620821AD14016
:10FB00000A1C58424240D0187047034A9818FBE735
:10FB1000963A91400A1CF4E7FFFFFF7F1C21012366
:10FB20001B04984201D3000C10391B0A984201D3E0
:10FB3000000A08391B09984201D30009043902A2BE
:10FB4000105C40187047C046040302020101010125
:10FB50000000000000000000F0B544465F46564635
:10FB60004D46F0B41C1C85B0002900DAA9E00F1C3A
:10FB70000021061C8846101C191C002C00DA97E096
:10FB8000341C3D1C82468946B94273D870D0494620
:10FB9000504600F085F98346391C301C00F080F98E
:10FBA0005B46181A031C8346203B9C4600D59CE00C
:10FBB000002300225146009201936346994001912F
:10FBC00051468140019B0091BB4200D983E000D1A6
:10FBD0007EE0009A019B341C3D1CA41A9D416346A3
:10FBE000002B00DA9AE000260027029603970136E0
:10FBF0009E400396012686400296002800D171E0BF
:10FC00000099019AD30799464B464E081E43570860
:10FC1000002301220CE0AF4201D1A6420AD8A41B66
:10FC2000BD4124196D410138A4185D41002806D05A
:10FC3000AF42F0D9013824196D410028F8D12022B3
:10FC4000029E039F5B46524236196F4199185AD45F
:10FC5000281CC8402C1C5B46DC40002968DB041CC7
:10FC60008C40231C59468840021CB61A9F4103E071
:10FC7000B0428CD90026002741464B1E99410023F3
:10FC800000910193009A019B002554429D41331C31
:10FC90006340181C3B1C6B40191C009B019CC01846
:10FCA000614105B03CBC90469946A246AB46F0BDCA
:10FCB0004346DB430C1C9846131C00215842A141CB
:10FCC0005EE7002746428F4101214942884652E7BC
:10FCD000B14200D87DE7002600270296039700284E
:10FCE00000D08DE7029E039FC6E720215346091AE4
:10FCF000CB400022191C0023009201934B46834005
:10FD00000B4301935CE75A4620239B1A2A1C9A4016
:10FD1000201C131C5A46D04018439BE7202600277E
:10FD2000331A0026029603970127DF40039761E705
:10FD30005B4620215D46C91A031CAC40CB40191C10
:10FD4000231C0B438EE7C046F0B545464E4657464A
:10FD5000E0B4041C82B00D1C914698468B4262D8D8
:10FD60005FD04146484600F09BF8291C061C201C29
:10FD700000F096F82023311A5B428A46C81865D4F1
:10FD80004B4683401F1C4B468B401E1CAF4258D82D
:10FD900055D0A41BBD41002800DA77E000220023E3
:10FDA0000092019301328240019201238B40009323
:10FDB00000293CD0FB079846404672087B08024366
:10FDC000012600270CE0AB4201D1A2420AD8A41AB6
:10FDD0009D4124196D410139A4197D41002906D0A6
:10FDE000AB42F0D9013924196D410029F8D1202204
:10FDF0000098019953465242001969419E183AD41D
:10FE00002F1CF7405346DD40002E29DB3C1CB4403C
:10FE1000231C5446A7403A1C801A99410090019136
:10FE200005E082429DD900230024009301940098AC
:10FE3000019902B01CBC90469946A246F0BDA3426F
:10FE4000A7D90022002300920193B1E720224B465C
:10FE5000521AD3401A1C43468B401F1C174392E78B
:10FE6000534620245646E41A3B1CB540E3401C1C74
:10FE70002B1C2343CDE7524620239B1A2A1C9A4071
:10FE8000271C131C5246D7401F43BBE720230022E8
:10FE9000581A0023009201930132C240019284E774
:10FEA00010B5002903D1FFF739FE203002E0081C0D
:10FEB000FFF734FE10BDC046054B10B5041C181EDC
:10FEC00005D0131C02200A1C211C00E000BF10BD3D
:10FED00000000000014B18687047C04668280020E9
:10FEE000084B10B5041C002B02D0002100E000BF1D
:10FEF000054B1868836A002B00D09847201C01F03E
:10FF000029FEC04600000000F436020008B5024990
:10FF100002F076FF08BDC046ED060200002310B5D2
:10FF2000041C03604360836081814366C281036176
:10FF300043618361191C08225C3002F0B9FF054B54
:10FF400024626362044BA362044BE362044B2363A9
:10FF500010BDC0467D040200A5040200DD040200BD
:10FF6000F72F0200836913B5002B28D18364C36483
:10FF70000365134B134A1B6882620193984201D1B7
:10FF800001238361041C00F01FF86060201C00F056
:10FF90001BF8A060201C00F017F80421E06000228C
:10FFA0006068FFF7BBFFA06809210122FFF7B6FFD9
:10FFB000E06812210222FFF7B1FF0123A36113BD04
:10FFC000F43602000DFF0100F8B51D4B061C1D683C
:10FFD000AB69002B02D1281CFFF7C4FF4835AC6881
:10FFE0006B68013B05D40C22A75E002F10D068344B
:10FFF000F7E72B68002B06D1301C042102F0CEFE5F
:020000022000DC
:100000002860002801D02D68E9E70C23336016E052
:100010000123201C5B42E3810233A38167662760D2
:10002000A760676027616761A7615C30391C08229F
:1000300002F03EFF201C6763A763A764E764F8BD76
:10004000F43602000E4B70B500251E1C0D4CE41A50
:10005000A410A54204D0AB00F35898470135F8E747
:1000600003F076F9084B00251E1C084CE41AA41076
:10007000A54204D0AB00F35898470135F8E770BDAE
:100080007028002070280020702800207C28002084
:1000900008B5034B011C186800F054F808BDC046B1
:1000A0006828002008B5034B011C186800F004F80C
:1000B00008BDC0466828002030B500293ED004396C
:1000C0000B68002B00DAC9181D4A1368141C002B9A
:1000D00002D14B60116031E099420DD208680A18D4
:1000E0009A4203D11368C3180B6053684B602160B8
:1000F00024E08A4203D8131C5A68002AF9D11D68EB
:100100005C198C420BD10968691858181960904223
:1001100014D110685268091819605A600EE08C42B8
:1001200002D90C23036009E008680C18944203D13B
:1001300014685268001908604A60596030BDC046B2
:10014000C82E0020032370B5CC1C9C430834051C2A
:100150000C2C01D20C2405E0002C03DA0C23002027
:100160002B6042E08C42F9D3204A1368101C191C02
:10017000002913D00A68121B0DD40B2A02D90A6079
:100180008B181FE08B4202D15A6802601BE04A685C
:100190005A600B1C17E00B1C4968E9E7144E3368E2
:1001A000002B03D1281C00F0EDF83060281C211C26
:1001B00000F0E8F8031C421CD0D00322C61C964372
:1001C00086420AD11C60181C07210B301A1D884377
:1001D000821A0AD05142995007E0311A281C00F0C7
:1001E000D1F8431CBAD0331CECE770BDC82E0020F8
:1001F000C42E00200FB40B4B13B51C68002C05D087
:10020000A369002B02D1201CFFF7ACFE05AB201C1C
:10021000A168049A019300F06BFC16BC08BC04B002
:100220001847C0466828002038B5084B051C1C68D4
:10023000002C05D0A369002B02D1201CFFF792FEF1
:10024000291C201CA26801F073F938BD6828002021
:1002500008B5034B011C186802F032FE08BDC04609
:1002600068280020F8B5051C0C1C002804D0836900
:10027000002B01D1FFF776FE3D4B9C4201D16C680B
:1002800008E03C4B9C4201D1AC6803E03A4B9C42F5
:1002900000D1EC680023A289636093B2990663D40D
:1002A00059071AD4D90605D409232B6037331A43CA
:1002B000A28159E0082633420AD0281C211C00F0F4
:1002C00015FA002850D1A389A060B343A381A0618F
:1002D0000422A3891343A38112E0616B00290FD08C
:1002E000231C4433994202D0281CFFF7E5FE00206E
:1002F000236C60636360834202D0E36B236035E06C
:100300002369002B03D1281C211C00F043FAA78984
:10031000BEB2B3070FD00123A381184B1849186848
:1003200002F052FD0923A7813340092B03D1281C79
:10033000211C02F08BFE2369281C1A1C2360216AF1
:100340006369656AA847021C6060002082420DDC78
:10035000A389824204D120221343A381013805E0FE
:10036000402213436060A38101204042F8BDC04693
:1003700094360200B4360200D4360200F43602008D
:10038000832F020038B50023064C051C081C23608F
:10039000FCF7F2FB431C03D12368002B00D02B6039
:1003A00038BDC046A82F00200FB40B4B13B51C68F6
:1003B000002C05D0A369002B02D1201CFFF7D2FD31
:1003C00005AB201C6168049A019300F031FF16BC54
:1003D00008BC04B01847C0466828002008B5034B85
:1003E000011C186802F0D9FD08BDC046682800202D
:1003F00038B50023064C051C081C111C236001F0B5
:10040000D5FA431C03D12368002B00D02B6038BDE4
:10041000A82F00200CB430B5174B9DB01D680029E3
:1004200004DA8B2301202B6040421FE0822302AAC2
:100430009B009381002302901061994200D04B1ED3
:100440009360536101235B42D3810C1C21AB111CCF
:10045000281C209A019300F055FA431C01DA8B23E3
:100460002B60002C02D00023029A13701DB030BC08
:1004700008BC02B01847C0466828002038B50C1CDC
:100480000E25495F01F090F8002803DB636D1B180F
:10049000636503E0A289024B1340A38138BDC046C7
:1004A000FFEFFFFFF8B51E1C8B89051C0C1C171CE9
:1004B000DB0505D50E23C95E0022022300F056F9A4
:1004C000A289054B281C1340A3813A1C0E23E15E30
:1004D000331C00F071F8F8BDFFEFFFFF38B50C1CBE
:1004E0000E25495F00F042F9A389421C03D1054A59
:1004F0001340A38104E0802252011343A38160656D
:1005000038BDC046FFEFFFFF70B5051C0E1C141C64
:10051000002804D08369002B01D1FFF723FD234B72
:100520009C4201D16C6808E0214B9C4201D1AC682F
:1005300003E0204B9C4200D1EC68A369A360A3892F
:100540001B070AD52369002B07D023682269F6B25E
:10055000981A636998420FDB08E0281C211C00F000
:100560003FF80028F1D0012040421DE0281C211C4A
:1005700000F0BCF80028F6D1A3680130013BA3606D
:1005800023685A1C22601E706369984205D0A389B3
:10059000301CDB0708D50A2E06D1281C211C00F0D0
:1005A000A5F80028DFD1301C70BDC046943602008B
:1005B000B4360200D436020038B5051C0020074CC2
:1005C0002060081C111C1A1CFCF760FA431C03D1A4
:1005D0002368002B00D02B6038BDC046A82F002018
:1005E000354B70B51D68061C0C1C002D05D0AB6981
:1005F000002B02D1281CFFF7B5FC304B9C4201D1E7
:100600006C6808E02E4B9C4201D1AC6803E02D4B96
:100610009C4200D1EC68A3899AB2110723D4D10679
:1006200007D409220120326037321343A3814042AC
:1006300040E0530713D5616B002908D0231C4433D5
:10064000994202D0301CFFF737FD00236363242258
:10065000A3899343A3810023636023692360082255
:10066000A3891343A3812369002B0BD1A023A28963
:100670009B00134080229200934203D0301C211C27
:1006800000F088F80123A289134005D00023A3605D
:1006900063695B42A36103E0910700D46369A360CF
:1006A00000202369834205D1130603D540231A4352
:1006B000A281013870BDC04668280020943602002F
:1006C000B4360200D436020038B50023064C051CAF
:1006D000081C2360FCF7C4F9431C03D12368002BDA
:1006E00000D02B6038BDC046A82F002038B50B695C
:1006F000051C0C1C002B01D100201CE0002804D09C
:100700008369002B01D1FFF72DFC0B4B9C4201D1DB
:100710006C6808E0094B9C4201D1AC6803E0084BCF
:100720009C4200D1EC680C22A35E002BE4D0281C74
:10073000211C02F08BFC38BD94360200B436020056
:10074000D436020008B5011E05D1054B05491868CD
:1007500002F056FB03E0044B1868FFF7C7FF08BD23
:10076000F4360200ED0602006828002038B5051CAA
:100770000020074C2060081C111C1A1CFCF7E8F92B
:10078000431C03D12368002B00D02B6038BDC0462A
:10079000A82F0020F0B58B8991B09B0706D50B1CC4
:1007A00047330B600B6101234B6145E00C1C0E23AA
:1007B000C95E061C002904DA8023A5891D4010D1DA
:1007C0000CE001AA01F0C6F80028F5DBF023029D39
:1007D0001B021D40194BED186B425D418027FF0045
:1007E00001E000254027301C391CFFF7ABFC002836
:1007F0000CD1A3899A051FD402221343A381231C81
:100800004733236023610123636115E080220C4B91
:10081000B362A38920601343A38120616761002D27
:100820000AD00E23E15E301C01F0A6F8002803D0A8
:100830000122A3891343A38111B0F0BD00E0FFFFA3
:100840000DFF0100F0B58E6885B0071C0C1C0392EB
:100850000193B34245D390238A89DB001A423DD0ED
:1008600003250969236801985B1A029363695D4354
:10087000EB0F5D19029B6D1001331B189D4200D2D6
:100880001D1C381C53050FD5291CFFF75BFC061EE9
:1008900013D0029A216902F0EEFAA289184B134094
:1008A00080221343A38111E02A1C02F020FD061EC2
:1008B0000CD1381C2169FFF7FFFB0C2340220120DB
:1008C0003B60A38940421343A38117E0029B26614A
:1008D000F61826606561019EED1AA560019BB34282
:1008E00000D2019E321C2068039902F0CDFA00204C
:1008F000A3689B1BA36023689E19266005B0F0BD0A
:100900007FFBFFFFF0B59FB0029005938B890E1C13
:10091000171C1B0610D50B69002B0DD14021FFF7CA
:1009200011FC30603061002804D10C23029A013898
:100930001360D0E040237361002306AD6B61203368
:100940006B761033AB763C1C2378002B03D1E31B72
:10095000049312D003E0252BF9D00134F4E7049B73
:100960000298311C3A1CFFF76DFF431C00D1ACE02C
:100970006A69049B944663446B612378002B00D121
:10098000A3E00122002352426A6002A954325218A5
:1009900001342B60EB60AB601370AB654F4F217877
:1009A000381C052202F04DFA002808D0C01B012790
:1009B0008740381C2B68013418432860EEE72B6809
:1009C000DA0604D55322202102A8121811701A0742
:1009D00004D553222B2102A81218117022782A2A3A
:1009E00001D0099B0EE0059A111D12680591002A9D
:1009F00001DB099204E05242EA60022213432B60B9
:100A0000013409E02278303A092A04D80A214B43FC
:100A100001349B18F6E7099323782E2B18D16378BD
:100A20002A2B09D1059B02341A1D1B680592002B45
:100A30000DDA01235B420AE0002301342278303AC8
:100A4000092A04D80A214B4301349B18F6E707937F
:100A5000234F2178381C032202F0F3F9002807D035
:100A6000C01B40278740381C2B680134184328607E
:100A700021781C480622671C297602F0E2F900283A
:100A800012D0194B002B06D10722059B0733934345
:100A90000833059314E005AB00930298291C321C1F
:100AA000124B00E000BF07E005AB00930298291C41
:100AB000321C0E4B00F02CF90390039B013304D041
:100AC0006B69039A9B186B613DE7B3890B985B06D2
:100AD00001D5012040421FB0F0BDC046073A0200D8
:100AE0000D3A0200113A0200000000004508020021
:100AF000F0B59FB0061C0F1C02920593002804D08D
:100B00008369002B01D1FFF72DFA794B9F4201D168
:100B1000776808E0774B9F4201D1B76803E0764BD6
:100B20009F4200D1F768BB891B070AD53B69002BA0
:100B300007D0002306AD6B6120336B761033AB76A4
:100B40003DE0301C391CFFF74BFD0028F1D001209F
:100B50004042CAE0059A111D12680591002A7EDB09
:100B60000992013423782E2B00D189E02178634843
:100B7000032202F066F9002808D0604B0134C01A45
:100B800040238340181C2B68184328602178631C7D
:100B90005B4806220293297602F053F9002800D11F
:100BA00091E0584B002B00D084E00722059B0733CF
:100BB0009343083305936B69039A9B186B61029CFE
:100BC0002378002B04D1029BE31A049311D003E095
:100BD000252BF8D00134F3E7049B301C391C029A12
:100BE00002F0D2FA431C7BD06A69049B94466344AA
:100BF0006B612378002B73D00122002352426A607C
:100C000002A95432521801342B60EB60AB601370B0
:100C1000AB6521783C48052202F013F9002809D081
:100C2000394B0134C01A01238340181C2B68184328
:100C30002860EEE72B68DA0604D55322202102A8AB
:100C4000121811701A0704D553222B2102A812186A
:100C5000117022782A2A00D17CE7099B05E05242D4
:100C6000EA60022213432B607BE72278303A092A9C
:100C700004D80A214B4301349B18F6E7099371E726
:100C800063782A2B09D1059B02341A1D1B68059233
:100C9000002B0DDA01235B420AE0002301342278A5
:100CA000303A092A04D80A214B4301349B18F6E74D
:100CB00007935BE705AB0093301C291C3A1C134BD0
:100CC00000E000BF07E005AB0093301C291C3A1C74
:100CD0000E4B00F01DF80390039B013300D06AE730
:100CE000BB895B0600D532E70B981FB0F0BDC0464C
:100CF00094360200B4360200D43602000D3A0200E7
:100D0000113A020000000000073A02008931020097
:100D1000F0B58BB006920A1C4332079305900492FB
:100D20000A7E0C1C109B6E2A00D1A8E011D8632A01
:100D300022D009D8002A00D1B2E0582A00D0C2E05F
:100D400045310A707C4A4FE0642A1DD0692A1BD0C5
:100D5000B9E0732A00D1A7E009D86F2A29D0702AF8
:100D600000D0B0E0202209680A43226037E0752AEB
:100D70001FD0782A33D0A6E00E1C1A684236111D07
:100D8000196013683370A1E021681A68080606D458
:100D9000490604D5111D19600023D55E02E0111D1E
:100DA00019601568002D3BDA2D23049A6D421370EB
:100DB00036E021681A68080606D4490604D5156885
:100DC000111D1960ADB202E0111D196015685A4B72
:100DD000227E03930A276F2A1DD108271BE0221CBD
:100DE000782145321170554A19680392081D22680E
:100DF00018600D68100602D4500600D5ADB2D307B6
:100E000002D520231A4322601027002D03D120236E
:100E100022689A432260231C002243331A7002E0A6
:100E20000A27454B03936368A360002B03DB04226E
:100E3000216891432160002D02D1049E002B0ED029
:100E4000049E281C391CFEF78BFC039B013E5B5C57
:100E5000281C3370391CFEF7FDFB051EF1D1082F4D
:100E600009D12368DB0706D563682269934202DC57
:100E70003023013E3370049B9B1B23612BE00968E8
:100E80001A68080607D4490605D5111D19601368AC
:100E9000A28A1A8004E0111D1960136862691A6041
:100EA0000023049E236116E01A68111D196016685C
:100EB0000021301C626801F0C4FF002801D0801BB3
:100EC0006060636803E0261C4236327001232361B0
:100ED0000023049A1370079B05980093211C069B1E
:100EE00009AA02F063F9431C02D10120404221E02B
:100EF000236905980699321C079DA847431CF4D026
:100F000023689B0705D4099BE068984212DA181CF5
:100F100010E00025E368099A9B1A9D42F3DA221C2F
:100F20000123059806991932079EB047431CDCD06F
:100F30000135EFE70BB0F0BD183A0200293A020084
:100F4000F0B5B54C071CA5440393002386204893B5
:100F5000499305AB4A93BE2340000D1C019202A9A0
:100F6000AE4A5B000918CA50AD4A02A904330918F9
:100F7000CA50019B1C78002C00D144E1A94E336873
:100F80001B195A780823134023D06B68002B10DDFF
:100F90002B6831681A788A185278120715D5499A41
:100FA00001330292013249926A682B60013A6A6009
:100FB000EBE78621C023490002AA52185B00D358F0
:100FC000381C291C98470028E2D0019E0136019662
:100FD000CFE7019A561C252C4FD147934593537860
:100FE0002A2B02D11A3B45930136341C21780B1C65
:100FF000303B092B09D8479B013401930A23019AFE
:101000005343303B59184791F0E7874E0322301C79
:1010100001F017FF002808D0801B01268640301CF5
:10102000459B0134184301934590661C2478672C36
:1010300010D8652C00D384E05B2C5AD005D8002C46
:1010400000D1E2E0252C18D07DE0632C5FD0642C29
:1010500046D078E0702C34D007D86E2C5FD041D8C1
:10106000692C70D10023469341E0752C38D0782C40
:101070002DD0732C67D1022347E06B68002B0EDD67
:101080002B681A78A24200D0BDE001336A682B6059
:10109000499B013A019301336A60499397E786219E
:1010A000C023490002AA52185B00D358381C291CDF
:1010B00098470028E4D04898002800D09FE00138E5
:1010C000A5E0459B01932023019A13434593459B3B
:1010D00001938023019A9B0013434593102302E060
:1010E0000A2300E00823469304236E2C0DDC03231F
:1010F0000BE0311C05A802F0C7F8459B061C0193C4
:101100004023019A1343459301234B931FE0459BD2
:1011100001934023019A134345930023F5E7459932
:10112000CB0600D553E7039B499AC80704D5191D80
:1011300003911B681A804AE7191D03911B681A6006
:1011400045E70523E1E703234B93073346936B6899
:10115000002B04DD459B01935B0618D51FE086211B
:10116000C023490002AA52185B00D358381C291C1E
:1011700098470028EED09EE7499A019201324992A1
:101180006A68013A6A60002A13DD01332B602B681C
:1011900024491A7809688A1852781207ECD44B9BB4
:1011A000022B13DC381C45A92A1C03AB00F068F89D
:1011B0001FE08621C023490002AA52185B00D358C1
:1011C000381C291C98470028E1D074E7042B06DC62
:1011D000381C45A92A1C03AB00F0B0F809E0134BFA
:1011E000002B00D1F3E6381C45A92A1C03AB00E014
:1011F00000BF012807D0022800D0E8E65BE7AB89F2
:101200005B0604D501E0489801E001204042A72395
:101210009B009D44F0BDC04664FDFFFF71180200B5
:10122000650202006C2800200D3A02000000000058
:10123000F8B5051C0C1C171C1E1C002804D0836963
:10124000002B01D1FEF78EFE0A4B9C4201D16C6847
:1012500008E0094B9C4201D1AC6803E0074B9C427B
:1012600000D1EC68281C3A1C331C211CFFF768FED7
:10127000F8BDC04694360200B4360200D4360200EF
:10128000F7B5151C8A6801900C1C002A06D18A69E2
:10129000511E8A41012152420A43A2602268D206AD
:1012A00003D41A68111D196017680026A069002868
:1012B0001DD123680136DB0603D42B681B783B70F5
:1012C00001372A686B6801322A60A268013B013A43
:1012D0006B60A260002A1FD0002BE7DCC0235B00FC
:1012E000E3580198291C98470028DFD014E0012812
:1012F00008D12B6862691B78D35C002BD9D1002EF2
:1013000019D009E0022807D12B680B4A1B78126814
:10131000D3185B781B07CCD510232268134006D165
:10132000E2680132E260A269002A00D03B7000202E
:1013300023699E192661FEBD6C280020F0B50C1CA7
:101340008BB00193744B0490161C07AA23CB23C2C5
:10135000724B0593A369032B01D0714B05930022B7
:10136000A36803925D32591EFF32914205D95E3B5C
:10137000FF3B03935E23FF33A360231C1C330093C6
:10138000D023002722681B0113432360009B029394
:101390003268BB00117807AA9858022201F051FD6B
:1013A000002839D0012F0DD16368002B06D10833F6
:1013B00022686360F933FF3313432360594B22687B
:1013C00013400DE0022F0CD1C02280212368D200EF
:1013D0001A4089008A4222D110226260F0321343FF
:1013E0002360A3685A1EA260002B15D0029B5D1CCF
:1013F00033685A1C32601B78029A02951370736826
:10140000013B7360002B07DCC0235B00E3580498AA
:10141000311C9847002844D10137032FB8D16368A5
:10142000002B01D10A3363601021002763686069D3
:10143000C91A3D4BC91801F027FF029DA368002B74
:1014400030D0326860691178405C00282AD0302999
:101450000BD12168090508D5039A0137002A0BD062
:10146000013A01330392A36006E021682F4B0B4041
:10147000236013782B7001357368013B7360002B78
:1014800003DD33680133336007E0C0235B00E358BA
:101490000498311C9847002804D1A368013BA3603D
:1014A000CCE700272368DB050ED5009B9D4207D9BA
:1014B000BE23013D5B002978E3580498321C98470D
:1014C000009B01209D4225D0102223681A401AD18A
:1014D0002A70636804980099059EB047019B2268B2
:1014E0001B68910607D4D10705D501991A1D0A601A
:1014F0001B68188004E001991A1D0A601B681860B7
:10150000E3680133E3600020009BED1A2369ED19C5
:101510005D1925610BB0F0BDF8360200D11502004F
:10152000F1160200FFFAFFFF3A3A0200FFF6FFFF52
:1015300070B5051C0E1C141C002804D08369002BF8
:1015400001D1FEF70FFD154B9C4201D16C6808E0FC
:10155000134B9C4201D1AC6803E0124B9C4200D17A
:10156000EC68A368013BA360002B10DAA2699342E8
:1015700007DB23681E70236819780A290AD1281C02
:1015800001E0281C311C221CFEF7BEFF05E0236889
:101590001E7023685A1C2260187870BD94360200B1
:1015A000B4360200D436020038B5051C0020074CC2
:1015B0002060081C111C1A1CFBF792FA431C03D173
:1015C0002368002B00D02B6038BDC046A82F002018
:1015D000F0B51E1C444B87B01B68059002930B1C92
:1015E000039101921C78029A5D1C1219507808220E
:1015F000104001D02B1CF5E72D2C04D19D1C5C78EC
:101600000123009304E000902B2C01D15C789D1CF9
:10161000002E02D0102E0AD160E0302C5CD12022A6
:101620002B789343582B52D110266C780235009FAB
:10163000311C7B1E9F412D4BFF18381CFEF790F884
:10164000381C0491311CFEF705F80022071C131CFE
:10165000029909194978480701D5303C07E0032071
:10166000084017D03721012800D02031641AB44235
:1016700010DA511C0BD0BB4207D802D1049A944215
:1016800003DC73430122E31801E0012252422C786B
:101690000135DDE7181C511C0BD10098059A431E3B
:1016A0009841124BC01822231360019B002B0AD1D2
:1016B00017E00099002900D05842019B002B10D060
:1016C000039B002A00D06B1E019A136009E03024AE
:1016D000002EACD10826AAE70A26A8E7302CA6D10E
:1016E0009DE707B0F0BDC0466C280020FFFFFF7FDC
:1016F000F0B51E1C3E4B87B01B68171C02930B1CD9
:10170000059004911C78029A5D1C121951780822E8
:101710000A4001D02B1CF5E72D2C04D19D1C5C78D0
:101720000123019304E001922B2C01D15C789D1CD4
:10173000002E02D0102E0AD154E0302C50D120229D
:101740002B789343582B46D110266C780235012014
:10175000311C4042FDF77EFF03900120311C4042C6
:10176000FDF7FEFF00228C46131C029909194978E7
:10177000480701D5303C07E00320084017D0372147
:10178000012800D02031641AB44210DA511C0BD069
:10179000039A934206D801D1644503DC73430122C6
:1017A000E31801E0012252422C780135DDE7181CD4
:1017B000511C04D122230599101C0B6003E00199F0
:1017C000002900D05842002F0FD0049B002A00D0DF
:1017D0006B1E3B6009E03024002EB8D10826B6E726
:1017E0000A26B4E7302CB2D1A9E707B0F0BDC04655
:1017F0006C2800200B1CF7B54D6B44330C1C9D422C
:101800001BD18026F600311CFEF79CFC002802D17B
:101810000120404225E0231C6063A66346331A780A
:10182000104BC254231C45331A780F4BC2542A78EC
:101830000E4BC254C018206012E08E6B291C73003E
:101840001A1C019301F053FD051EE1D08719381CC5
:10185000291C321C01F00FFB019B27606563A36309
:101860000020FEBDFF030000FE030000FD0300009A
:10187000F8B5061C0D1C141C4B1C02D10120404263
:1018800061E0002804D08369002B01D1FEF76AFBD8
:101890002D4B9C4201D1746808E02C4B9C4201D135
:1018A000B46803E02A4B9C4200D1F4682022A3894B
:1018B0009343A3819BB25A0713D4DA06DED50827D7
:1018C0003B420AD0301C211CFEF710FF0028D5D166
:1018D000A389A060BB43A381A0610422A389134311
:1018E000A381626BEDB26368002A10D0A26B9342B1
:1018F00006DA2368013B23601D706368013320E032
:10190000301C211CFFF776FF0028F2D0B6E72169D2
:101910002268002909D08A4207D9511E0878A842B6
:1019200003D10133216063600DE02364231C443341
:1019300063630323A363231C4633E2631D702360A8
:101940000123281C6360F8BD94360200B4360200FF
:10195000D436020038B50023064C051C081C111CA7
:10196000236000F0DAF8431C03D12368002B00D079
:101970002B6038BDA82F002038B50023064C051C6D
:10198000081C2360FBF7D0F8431C03D12368002B0D
:1019900000D02B6038BDC046A82F0020582201205F
:1019A000014B40421A607047A82F002058220120A6
:1019B000014B40421A607047A82F0020704737B58E
:1019C000041C151C6846082201F055FA019A009B78
:1019D0005010D20701D52258D358291C20189847F7
:1019E00037BD70B51D1CC37F041C5E1901201D2E60
:1019F00013DC2818E054E37F0133DBB2E377E154D2
:101A0000E07F111C0130C0B2E0772A1C201801F0E1
:101A100032FA0020E37FED18E57770BD011C021C4F
:101A200008B503680A3134325B6D984708BD10B5BC
:101A3000041CFFF7F3FF211C08C9201C9B6D98476D
:101A400010BD0023021C10B503701132431C00248A
:101A50001C7001339342FAD1418210BD10B5041CB1
:101A60000B78102203704B8A01314382013001F060
:101A700002FA201C10BDF7B51D1C08AB1E8809AB6F
:101A80001B78041C171C0193FFF7E8FF694600232D
:101A90000979621C676125836683A583E383D17717
:101AA0000121A21CD1770A9A0B996262221C28326A
:101AB0001170211C537093704431E36223630C3224
:101AC0000023137001328A42FAD1221C211C636464
