:020000021000EC
:10C0000000400020F1C701002DC801002FC8010029
:10C010000000000000000000000000000000000020
:10C0200000000000000000000000000031C8010016
:10C03000000000000000000033C8010035C8010006
:10C0400037C8010037C8010061C9010037C80100C5
:10C0500037C801000000000037C8010037C80100E0
:10C0600037C8010037C8010037C8010037C80100D0
:10C0700037C8010037C8010037C8010037C80100C0
:10C0800037C8010005CA010037C8010037C80100E0
:10C0900037C80100DDE3010051D9010037C80100B4
:10C0A00037C8010037C80100000000000000000090
:10C0B0000000000000000000000000000000000080
:10C0C00010B5064C2378002B07D1054B002B02D06E
:10C0D000044800E000BF0123237010BD8028002029
:10C0E00000000000F833020008B5084B002B03D015
:10C0F0000748084900E000BF07480368002B00D14B
:10C1000008BD064B002BFBD09847F9E70000000064
:10C11000F83302008428002080280020000000005E
:10C12000164B002B00D1144B9D46402292029A1AC6
:10C13000924600218B460F461348144A121A06F005
:10C14000F7FA0F4B002B00D098470E4B002B00D076
:10C1500098470020002104000D000D48002802D05F
:10C160000C4800E000BF03F067FC2000290005F048
:10C17000FDF803F0AFFBC0460000080000400020BF
:10C18000000000000000000080280020E82F0020B0
:10C19000000000000000000038B5051C084803F04E
:10C1A00023FD0024EB889C4206D2AB680548195D4C
:10C1B00003F01AFD0134F5E7034803F02FFD38BD05
:10C1C0003C2F0200452F020025320200C28A104B8C
:10C1D00030B59A420BD10F49021C0B1C32CA32C334
:10C1E00032CA32C312CA12C301220B4B1A70C28A5E
:10C1F0000A4B9A420AD10A4A131C16C816C316C81B
:10C2000016C306C806C30122064B1A7030BDC046CD
:10C21000372A0000C02800201C2F002001A00000A9
:10C22000A02800201D2F002010B50B4B42889B8BAF
:10C23000041C9A4204D183680848597803F0D4FC5E
:10C24000074B62889B8B9A4204D1A36805481978F2
:10C2500003F0CAFC10BDC046C02800204A2F0200CF
:10C26000A02800205A2F020008B50A4B41889A8B5B
:10C2700091420ED1181C002105F059F9031E03D17B
:10C28000054803F0CBFC04E004480549DD2203F037
:10C29000ABFC08BDA0280020632F0200702F020015
:10C2A0009B2F0200037870B5041C002B06D1418A35
:10C2B000828AC38A0D4803F097FC15E00C4803F00E
:10C2C00093FC2378651C002B00D111352E1C1036F1
:10C2D00029780848013503F087FCB542F8D1A18AD6
:10C2E000E28A054803F080FC70BDC046B42F02000E
:10C2F000CD2F0200452F0200BE2F0200F0B5051C15
:10C30000837901794279C07991B00090287A0190BF
:10C31000687A0290174803F067FCAB78022B27D1AC
:10C320002A88154B15481A8005F005F8041C036887
:10C3300006AE1B682F8800210BAD301C059304F05E
:10C34000E7FF0021281C04F0E3FF201C0C4B0096A3
:10C350000195391C0B4A059CA047031E03D10A48CE
:10C3600003F05CFC04E009480949622203F03CFC4C
:10C3700011B0F0BDD52F0200082F00209C2800200E
:10C38000CDC10100A5C20100632F0200702F020081
:10C39000F62F020037B50F4D281C04F0C6FF02230C
:10C3A000846D1C4012D1281C04F0BFFF0368009468
:10C3B000DD690949231C0122A847031E074806D04E
:10C3C00007497C22074803F00FFC02E0064803F00F
:10C3D00025FC37BD9C2800201E2F0020632F020063
:10C3E00069300200702F0200AE30020008B50E481E
:10C3F00004F09BFF836D0D489B0711D50C4B1B78F8
:10C40000002B0CD00B48002105F091F8031E0A48C0
:10C4100006D00A498B220A4803F0E6FB02E00948ED
:10C4200003F0FCFB08BDC0469C280020C830020079
:10C430001C2F0020C0280020632F0200FE300200C5
:10C44000702F02001731020007B50F4804F06DFF8E
:10C45000836D0E489B0714D50D4B1B78002B0FD016
:10C460006B460121DA1D0B48117005F072F8031EAE
:10C47000094806D009499D22094803F0B5FB02E0AE
:10C48000084803F0CBFB07BD9C280020C830020001
:10C490001D2F0020A0280020632F02003131020050
:10C4A000702F02006C31020010B50E4C201C04F0FD
:10C4B0003CFF836D9B0711D5201C04F036FF0A4A10
:10C4C000036811881B6A13229847031E074806D089
:10C4D0000749A922074803F087FB02E0064803F05A
:10C4E0009DFB10BD9C280020082F0020632F020018
:10C4F00085310200702F0200D131020000B58FB0EB
:10C5000001A9134803F036FC01A8124906F0B9F955
:10C51000002802D1FFF73EFFF2E701A80E4906F01E
:10C52000B0F9002802D1FFF7BFFFE9E701A80B49E6
:10C5300006F0A7F9002802D1FFF758FFE0E701A8AD
:10C54000074906F09EF90028DAD1FFF77DFFD7E70B
:10C55000E7310200ED310200EA310200F53102005C
:10C56000FA310200F7B52D4803F058FB00242C489F
:10C5700001A903F0FFFB2B4B019AE2540134062C76
:10C58000F5D1294C201C04F0CCFF284E031E3AD1D3
:10C59000274F381C03F042FB201C04F0C6FEFA2192
:10C5A0002C304900051C00F0BBFB031E2FD1281CBA
:10C5B000C82100F0CDFB031E29D1191C281C04F052
:10C5C000ABFF031E23D1191C281C04F0A8FF381C44
:10C5D00003F024FB174803F021FB201C04F0A5FE08
:10C5E000154B4366201C04F0A6FE144B4360201C30
:10C5F00004F0A1FE124B8360201C04F09CFE114B42
:10C60000C360FFF77BFF301C0F49F52202E0301CAE
:10C61000F6220E4903F0E8FA0120FEBD00320200C6
:10C62000083202001E2F00209C280020702F0200DC
:10C63000632F020016320200FDC2010029C2010070
:10C6400069C2010099C101000B32020027320200C9
:10C6500038B500F0C9FB0B4D0B4B00241860281CAB
:10C66000211C10C004F054FE2C766C83AC83074D63
:10C67000211C281C10C004F04BFE2C766C83AC836C
:10C6800038BDC046C02800209C280020A0280020DB
:10C6900008B5054B1B68002B04D1044809210B2267
:10C6A00000F0FEF808BDC046E0290020DC2F002085
:10C6B00008B5031C0020022B0DDD0749033B9B003E
:10C6C0005A585850824204D01368101C5B6898472F
:10C6D00001E00120404208BDE028002070B50C1C9C
:10C6E000151C022810DC0F4B1B68002B01D1FFF733
:10C6F000CFFF6619B44205D021780B4800F056F9F7
:10C700000134F7E7281C0BE00338084B8000C058C1
:10C71000002803D003681B68984701E001204042CD
:10C7200070BDC046E0290020DC2F0020E02800205A
:10C7300010B50C1C02280BDC0C4B1B68002B01D124
:10C74000FFF7A6FF0A4804F0A4FE207001200BE0CA
:10C750000338084B8000C058002803D003689B684A
:10C76000984701E00120404210BDC046E02900206A
:10C77000DC2F0020E028002008B5031C0120022B3C
:10C780000BDD033B054A9B009858002803D0036843
:10C79000DB68984701E00120404208BDE028002006
:10C7A00008B5031C0020022B0BDD033B05489B0052
:10C7B0001858002803D003681B69984701E001203E
:10C7C000404208BDE0280020074A13681818EFF31C
:10C7D0000881884205D30C220120044B40421A6094
:10C7E00001E01060181C704704280020E42F00208E
:10C7F0000848026803210A4302600749074A084BB8
:10C800009B1A03DD043BC858D050FBDC0548804729
:10C8100005480047240500402C3402000028002071
:10C820008028002005CC010021C10100FEE7FEE7C1
:10C83000FEE7FEE7FEE7FEE701704B1C0AD001238E
:10C840008B404360044BC360044B0361044B436162
:10C85000044B83607047C046080500500C0500502B
:10C860001005005014050050012310B50A4ADC00E1
:10C87000A458A14207DA013BDB00D3185A680168CB
:10C88000064BCA5007E00133112BEFD1802102681B
:10C89000024B4905D15010BDF02D020024050000C7
:10C8A000F8B50F1C0121264BB9400360A023254C8D
:10C8B000DB05161C1A59051C0A4380211A511A5906
:10C8C00049000A43FF39B1401A511A598A431A5193
:10C8D00019591D4A0A4096211A518901FFF7C4FFD0
:10C8E000002204202B6819495A506C3958500121F4
:10C8F00099601960191CFC31CA6015495A506A6068
:10C90000A1220821D2009950124A02319F501218D8
:10C9100099501E517B1C03D0381C073904F0A9FD27
:10C92000731C03D0301C032104F0A3FD01220A4B29
:10C93000291C1A600948073205F0DDFEF8BDC04623
:10C940000020004014050000FFFBFFFF6C05000005
:10C950001C0500000C050000E0290020DC2F002051
:10C9600008B5C1230D4A9B00D158090603D50C49CF
:10C97000096A002908D1D3585B070DD5084B00215F
:10C98000DB68002B01D107E00121064B1868002865
:10C9900002D0054B1B68984708BDC04600200040E8
:10C9A000FC200040E4290020E829002003681A1C2C
:10C9B000FC32106A0128FAD100201062014AC9B283
:10C9C000995070471C0500000A480B4982680B4BC0
:10C9D000002A08D01A6801321A6000228260D2222E
:10C9E000022092008850064A1B688858190A1B06C4
:10C9F00018437047FC10014000100140F02900204E
:10CA000004050000174B70B59A68002A0AD0164931
:10CA100002200A6801320A6000229A60D222134979
:10CA2000920088505B6C114C002B19D0104E33785B
:10CA3000002B15D00F4B1D68FFF7C6FF2D1A002DD8
:10CA40000EDC0021074BD2225964802392005B0246
:10CA5000A3503170C22189006350A35000F0CAF87E
:10CA600070BDC046FC100140F029002000100140BC
:10CA7000252F0020EC29002038B5124C2378002BFC
:10CA80001ED1A121C420104AC9005350C13902331C
:10CA9000FF395350443953500C4980000D580C4B0A
:10CAA0002B40C0252D022B430B50802301259138AC
:10CAB0009B02FF380B500B60156004F0F7FC2570EB
:10CAC00038BDC046242F00200010014000E100E0E6
:10CAD000FF00FFFF08B5084B1B78002B01D1FFF7C3
:10CAE000CBFFFFF771FF054A002302F0B1FC4904B8
:10CAF000C00B084308BDC046242F002040420F0051
:10CB0000F8B5284B041C1B78002B01D1FFF7B4FFAC
:10CB1000FFF75AFF244A002302F09AFC4B04C00B93
:10CB2000CF0B18430026221C0023802192197B4141
:10CB30000906884205D9002C03DB002001211218C8
:10CB40004B41D9030023540CD003184A21438018C9
:10CB500059410023144A02F05BFC154D041C2B784C
:10CB6000144E002B02D0336898421AD0FFF72CFFE6
:10CB7000201A022802DCFFF727FF841CA8212202CA
:10CB80000D4B120AC9005A502A783460002A08D185
:10CB900001322A708022F9395202FF395A50443941
:10CBA0005A50F8BD242F002040420F003F420F0092
:10CBB000252F0020EC29002000100140074B1A7897
:10CBC000002A09D08021C220054A49028000115064
:10CBD0004030115000221A707047C046252F0020A7
:10CBE000001001400022024B9A605A647047C04610
:10CBF000FC10014008B5024804F06BFC08BDC046BB
:10CC00008C2E0200234A10B51378111C012B19D168
:10CC1000214B1B681B0715D1204BE0241A68F02319
:10CC2000101C184022420BD11D4A12681A4209D129
:10CC30001C4A1D4B1A6080221C4B12021A6001E034
:10CC40003028F1D00B68DBB2012B0DD1124A1268EB
:10CC5000120709D1F021114A12680A40402A03D173
:10CC60000F4A12680A420DD08022A3230021D20568
:10CC7000DB00D1500E4B9960013191609A68002A17
:10CC8000FCD005E0C1228021D200C9058B50EBE722
:10CC900010BDC046E00F00F0E40F00F0E80F00F018
:10CCA000EC0F00F0DFFF07C004050040186C0040E7
:10CCB000FC000040F7B5FA26B6007143009308ABBC
:10CCC0001B78041C081C1549171C019302F00EFB6D
:10CCD00085B2301C25807843104902F007FB6B4673
:10CCE0001B8880B2A3806B461B796080A371032DE3
:10CCF00001D80423238080232288DB019A4200D9B3
:10CD00002380032801D80422628062889A4202D9D3
:10CD10008023DB016380201CFEBDC0467102000041
:10CD2000FA239B004B4310B50749041C181C02F062
:10CD3000DDFA83B21A1F054992B203208A4201D854
:10CD40000020238010BDC04671020000FB3F0000A0
:10CD5000FA239B004B4310B50749041C181C02F032
:10CD6000C5FA83B21A1F054992B203208A4201D83C
:10CD70000020638010BDC04671020000FB3F000030
:10CD80007FB5144D144C2B78002B20D102AE301CF3
:10CD900004F0F4FB002815D17388592B12D1337895
:10CDA000B288D91F012904D80092201C20210B4AE7
:10CDB00003E0201C20210092094A03F011F801230E
:10CDC0002B7004E0201C0749202205F06BFD201C7D
:10CDD00004B070BD262F0020272F00204B32020008
:10CDE000683202008D32020000487047FC290020A2
:10CDF00008B5044B044808330449054A036005F0AC
:10CE0000FBFB08BDE82B0200FC2900208515020071
:10CE100000280020F0B5151C1E1C0F1C85B001ACAD
:10CE200000210C22201C05F083FC0A9B281CE380B7
:10CE30000B9B211CA3602770668004F0DDFB031CA4
:10CE40000020834207D00530112B04D0034A9B18E1
:10CE500058425841063005B0F0BDC046FCCFFFFF38
:10CE6000F7B501930368041C5B680E1C171C9847F8
:10CE7000051C0620002D2BD1019B08996363142209
:10CE8000E761201805F037FC201C09991422203096
:10CE900005F031FC231C01213D33A680013B5D7070
:10CEA000301C1D7019712A1C04F0A2FB061C281CE2
:10CEB000002E0DD02368201C9B6898470520112E5A
:10CEC00006D0044B9E4202D00130072E00D1042030
:10CED000FEBDC04602300000F8B501232B4A2C4CA1
:10CEE0001168171C0B404FD12A4A251C08322260BA
:10CEF000221C30321370221DD387274A261C226140
:10CF0000221C4C321370221C4D321370221C4E32E4
:10CF10001370221C4F321370221C5032A3752385CC
:10CF2000A46413705235B236281C002104F0F0F9C5
:10CF30000023AB82EB821835B542F5D1261CB436FE
:10CF40000025301C0021202205F0F2FB301D291C99
:10CF500004F0DEF9114B35767583B58320369E4299
:10CF6000EED1231C221CFC3310329D63DD631D6453
:10CF70005D649D64DA641D655D659D65DD651D66A6
:10CF80005A669D6601233B60201CF8BD002A0020E4
:10CF9000042A0020402C0200302C0200382B0020F4
:10CFA000F0B5041C8BB001F01DF8201C05F08AF8C8
:10CFB000208810380B2800D996E002F08DF906364B
:10CFC000959595519595955B9564A588267D00F07E
:10CFD0009DF9291C04F0F5FC231C1633019300F085
:10CFE00095F9021C0227A37958329C461378617B7D
:10CFF0003B43476E1370002F76D0624604AB1D8012
:10D000009E70DA709972019BE11D05A806220993B2
:10D0100005F071FB211C0B2004ABC0180E31062259
:10D0200005F069FB04A8B8475EE0A78800F06EF938
:10D03000314904F0C6FCA67900F068F9021C02210F
:10D0400058321378051C8B431370836E002B02D06B
:10D05000381C311C9847281CAC3005F09EFA43E080
:10D0600001F0A6F94369A288A11D002B3CD0101C39
:10D07000984739E000F04AF9036EA279002B33D0CB
:10D08000101C984730E000F041F90126A37B051CF5
:10D090005A07920F1E400192DB080622E11D04A8E8
:10D0A000677B029305F027FB6A46127904AB1A727C
:10D0B0006A46127A9F71DE715A72231C0F330793EE
:10D0C0008C352B68002B02D004A8984709E06868CB
:10D0D000002806D0AB69002B03D0291C04AA083114
:10D0E0009847ED69002DECD100F038FB211C04F0CD
:10D0F00043FD0BB0F0BDC046FFFF00001FB5A323EA
:10D100008022DB00D205D3580820DB0700D405308D
:10D110001C4948221C4B00F0D7FB00280AD080B2E3
:10D12000002807D1BFF34F8F184A194BDA60BFF3BD
:10D130004F8FFEE7002302A8029343600133037080
:10D1400004F0BDFA002801D0072417E0684604F077
:10D15000B4FA0028F8D1694604F0ADFA0028F3D1FA
:10D160000C4800F0E1FB84B2002C07D10A4800F023
:10D17000E5FB84B2002C01D101F0F0FD201C04B0CD
:10D1800010BDC0466C2B0020CB1602000400FA052F
:10D1900000ED00E0A1CF0100C316020080B200281C
:10D1A00007D1BFF34F8F034A034BDA60BFF34F8FB2
:10D1B000FEE770470400FA0500ED00E00048704704
:10D1C000FFFF0000F0B50C78021C87B00220012C94
:10D1D00029D04B88032C06D1A03B14489BB2834234
:10D1E00005D903201FE0203B9BB21148F7E78D884B
:10D1F000104B9D42F5D80E1C171C684618220021C2
:10D2000005F096FA6B466A461C707388684613826E
:10D21000558204F066FA0028E3D13A1C0121583205
:10D2200013780B43137007B0F0BDC046603F000099
:10D23000E03F0000FF3F000030B589B01C1C6B468A
:10D240001A70581C06220C9D05F055FA02AA002CF3
:10D2500007D02388138063885380A3889380E38852
:10D2600006E032231380DB185380F5339480FF33BC
:10D27000D380FC2304A9087803400B7000234B6083
:10D280009D4206D02B880B816B884B81AB888B81AC
:10D2900006E0FA235B000B812D3BFF3B4B818D8128
:10D2A000684604F038FA031C0020834214D006308C
:10D2B000082B11D005D80130042B0DD0834208D1A2
:10D2C00009E00520112B07D0044A934203D0102B0C
:10D2D00001D0092000E0042009B030BD0232000076
:10D2E000024B0B60092313607047C0469532020061
:10D2F000012008B5011C044A01F080F8031E00D08B
:10D300000923181C08BDC0468F190200F7B5012774
:10D31000354E364C35683D4063D1354B201C23607B
:10D32000A0232571E38025810A3004F01AFB8021B7
:10D33000201CC9010A1C2B1C2C300095FFF7BAFCDD
:10D34000201C343004F00DFB221C022158321378CB
:10D350002566BB438B431370231C5C331D706566CD
:10D36000A56625672A1C00237432A21801351370A4
:10D37000102DF7D1221C0832D367221C883213608B
:10D38000221C9032E3661360191C0022943161184C
:10D3900001330A70102BF7D1231CA4331A60231C0D
:10D3A000A8331A60231C201C8C331A600421AC3073
:10D3B00001F05EFF201C0A3004F0E0FA201C34303B
:10D3C00004F0DCFA0B4B012208332360231C524289
:10D3D000BC331A800123201C0749084A336005F03A
:10D3E0000BF9201CFEBDC046742C0020B42B00207D
:10D3F000702C0200D02C020001D401000028002073
:10D4000010B5041C034B0360AC3001F051FF201C2D
:10D4100010BDC046702C020073B50E1C151C0268AE
:10D42000009394682B1C321C0149A04776BDC0466E
:10D43000FFFF000073B50E1C151C06AA11780268C8
:10D440000093019114692B1C321C0149A04776BD41
:10D45000FFFF000038B5064B041C0360406800283D
:10D4600004D0C56905F0C4F8281CF8E7201C38BDB5
:10D47000402D020038B5064B041C036040680028AC
:10D4800004D0C56905F0B4F8281CF8E7201C38BDA5
:10D49000502D020038B5064B041C0360406800287C
:10D4A00004D0C56905F0A4F8281CF8E7201C38BD95
:10D4B000602D020010B5041C074B03601830FFF705
:10D4C000E9FF201C1030FFF7D5FF201C0830FFF7C4
:10D4D000C1FF201C10BDC046702D0200F0B589B000
:10D4E00001930FAB151C1C780E1C071CFFF70EFFD9
:10D4F00004F06AFA002302930EAB1B8802AA138081
:10D50000019B0393002C15D13B1C7A797C3300E0FE
:10D51000013494420ED20833191C08390988A942F3
:10D52000F6D130220A34A4003F197B680133DB7F37
:10D5300013420AD102AA301C291C04F04AFA421EE6
:10D54000904103234042034027E0B042F2D0022240
:10D55000DB06DB0F04A9D31A8B7000238B80019BA1
:10D560000D80CB600EAB8B6004F037FA80B20028E0
:10D5700012D008280FD00A4B98420CD011280AD09C
:10D58000084B984207D0301C291C02AA04F021FA4B
:10D590000323002801D10520031C181C09B0F0BD8D
:10D5A0000330000001340000F0B5051C95B0081CE4
:10D5B0002624099101F080FB04ABE4180E900EA91B
:10D5C0000120221C04F003FA002801D00320C0E04F
:10D5D0002388099A08909383099B089A1B7D93429C
:10D5E00015D9099B9B690A93089B0A9A9B009C5832
:10D5F0006369002B10D1238B002B0DD1631CDB7FC3
:10D60000022B09D108980130C3B20893E4E72B79C3
:10D61000002001332B719CE0201C01F04DFB002603
:10D620000E900B960A96231C28331B78B3421AD906
:10D63000626AB3009F5800230FAA137000200FA93D
:10D64000CA1801335070102BF8D1434B381C4B8251
:10D6500004F04AFA002803D07B690A93BB8B0B9332
:10D660000136F6B2DFE76169631CDA7FA31CDB7F5A
:10D670000091218B00200191618B02910A99039105
:10D680000B990491211C293109780591211C2A311B
:10D690000978069169790F31C90069180431079139
:10D6A0000EA904F02CFC002890D16B79071C1A1CE1
:10D6B0000A3292000F33AA18DB005460EB189B88E3
:10D6C000E3836B7901336B71231C28331B78BB42D6
:10D6D00098D9626ABB009E5800230FAA13700020DD
:10D6E0000FA9CA1801335070102BF8D11A4B301CF7
:10D6F0004B8204F0F9F90A90002827D1301C01F080
:10D70000DBFA728B338B00929E225200AA5C0E9041
:10D710009C325200AA18063201920A980EA9726928
:10D7200004F09CFC002800D050E79E239E215B0063
:10D73000EA5C4900531CDBB246326B5492009C33C6
:10D74000AA185B005660EB18DB88F383781CC7B21D
:10D75000BAE715B0F0BDC04601290000012370B53D
:10D76000254D264C2A68134044D1254A2371A260D6
:10D77000244A63712261244AE360A261234A6361FF
:10D780000832E36123626362A36222600026E2182A
:10D790000433D662502BF9D1A0197C300021082225
:10D7A000083604F0C5FFA02EF6D1221C0023FC325F
:10D7B000136253629362D362136353639363D363BD
:10D7C0009E225200A3540232A3520232A3520232CA
:10D7D000A3520232A3520232A3520232A3520232A5
:10D7E000A3520232A352201C01330949094A2B607B
:10D7F00004F002FF201C70BD782C00207C2C00203F
:10D80000402D0200502D0200602D0200902D0200DC
:10D81000B5D4010000280020F0B5264B85B01B7858
:10D82000002B45D0244B254E1D6834686A42554173
:10D8300062425441EDB2E4B20193002D36D103A807
:10D8400004F0E5FA05280CD0002804D0291C2A1C75
:10D85000FFF7A4FC06E0019B03981B680093984720
:10D8600000E00125002C1ED1154B03A91B880124C3
:10D870000B80144B1B68181C009304F0CEFA071E93
:10D88000052F0BD0002805D000210A1CFFF786FCCD
:10D89000002403E00098336898473C1C002DCCD04E
:10D8A000002CCAD004E0002D02D1C6E7002CDBD04A
:10D8B00005B0F0BD472F0020D02D0020D42D002032
:10D8C0000A2F0020CC2D002038B5041C0720002989
:10D8D00013D08D0711D1094801600949201C0A8025
:10D8E000084A0949136004F094FA002805D101227E
:10D8F000064B16301A7004F088FA38BDCC2D002083
:10D900000A2F0020D82D00201F1E0200472F0020C4
:10D9100008B504F080FA031C5A1E9341014ADBB299
:10D92000137008BD472F00200E23002802D0024BA1
:10D9300018600023181C7047D42D00200E230028E7
:10D9400002D0024B18600023181C7047D02D002015
:10D9500008B5074B1B68002B07D09847002806D056
:10D9600000210A1CFFF71AFC01E0FFF755FF08BD74
:10D97000D82D0020F0B58BB004AB9C1D0E230C22DB
:10D980000390019123804B7806A95343234AD3186F
:10D990001889221C032304F050FA00283AD11827D2
:10D9A000019B1F4D5B7826885F4300933B1C083327
:10D9B000EB18181C06A9321C029304F08DFE2C1CD7
:10D9C00000280DD10C22009B5343144AD318997A96
:10D9D000022319401ED1E819182204F0A9FE19E00B
:10D9E000E81943680F4F002B00D10F4F1825032271
:10D9F000009B06A96B43E250E3185E60321C02985C
:10DA000004F079FE019B039859782A1C6943382356
:10DA10006118B84700200BB0F0BDC0460C2F0020A5
:10DA2000682E00203DEB0100C1EA0100F0B585B091
:10DA3000041C0E1C02AA8178214801F01BF8002862
:10DA40003CD10C2361781F4A4B43D3189B7A1E4F5D
:10DA500001925B0605D4022E03D01C4F012E00D08C
:10DA60001B4F1C25A1781B4B694302A859182A1C7F
:10DA70000023B847002813D1022E1FD00C234021C9
:10DA8000627802A85343019AD3189A7A8A439A7209
:10DA90006178114B69432A1C59182B1CB84701E0C7
:10DAA000022E0BD00C23227802A853430B4A211CD0
:10DAB000D3189B7A0A4A9B009B58984705B0F0BD43
:10DAC000902E00200C2F00203DEB0100C1EA010048
:10DAD0003F1E0200DC2D00204C2E0020802E002056
:10DAE000A42E0200F7B518220190437829485A4322
:10DAF00081184C68284F002C0FD00C2159437918FD
:10DB0000897A4DB2002D07DA490605D4151C08356F
:10DB1000A6B24519145802E00024261C251C0C222C
:10DB20005343FB181889291C321C231C04F083F969
:10DB30000B2818D10C22019B291C5B785343FB183E
:10DB40001889321C012304F076F900280ED00C212C
:10DB5000019B124A5B784B43FF18388904F069F93E
:10DB600000280AD115E0002803D100E0012400209C
:10DB700000E00B48012C0CD1E9E70222094BC31845
:10DB8000934303D0082801D0112801D1044800E0B4
:10DB90000020FEBD682E00200C2F0020FFFF00009B
:10DBA00041800000FECFFFFF70B51824031C4878A9
:10DBB000094D60430E1C2818191C221C382300F044
:10DBC000FBFF002806D173785C432C19636801338E
:10DBD00000D1606070BDC046682E0020F0B5454C95
:10DBE00093B02468002C00D181E0189C542C7ED87E
:10DBF0000024161CFF221D1C03AB5A709A70DA70A9
:10DC00001C70189B06AF009101903C700B950A9315
:10DC1000A1B2394804AA00F02DFF002809D10198CB
:10DC200004A9082204F058FD002802D103AB9C701F
:10DC300002E00134042CEBD103ACA178FF2956D0CB
:10DC4000009B042B0AD1189A06AB542A01D1343A0E
:10DC500000E040221A701A7803213AE0274BEB1AB1
:10DC60006F2B10D8264B002E04D101228A40186851
:10DC700010423CD001228A40196891432022196049
:10DC800006AB1A701FE01F4BEB1A1B2B09D8202282
:10DC900006AB1A70002363700CAB0B9318230A9326
:10DCA00011E019482D1A172D21D830233B7000237D
:10DCB00063700133E370154B997A0223194002D146
:10DCC000182204F035FD009A06AB032A0CD101217D
:10DCD0001A780A431A7009AB0793064B201C1B687D
:10DCE00006A9321C984702E01A780221F1E713B026
:10DCF000F0BDC046802E0020902E0020DC2D00209C
:10DD00008C2E00204C2E0020682E00200C2F00208E
:10DD100070B51C2444430D4E051C301900213419E4
:10DD20000622113004F004FD201C0021102204F012
:10DD3000FFFC0120FF23A840054A2374A376013B82
:10DD4000FF3B238313688343136070BDDC2D0020E9
:10DD50008C2E002037B581B2051C6A46074800F0BA
:10DD600089FE041E08D16846542100F075FF041E88
:10DD700002D1281CFFF7CCFF201C3EBD902E0020B6
:10DD8000F0B585B0002856D000252C4B041C1D6032
:10DD90005D729D7201232A48291C8372023B07226F
:10DDA0000381C37204F0C4FC2648291C182204F025
:10DDB000BFFC281CFFF7ACFFFF22234BEA540135C0
:10DDC000042DF6D16A465423204F9380204B684699
:10DDD000391CD580009300F0B1FD3E1C00282BD1EA
:10DDE00001231C4D24782B70002C1AD1A1B2301CB9
:10DDF00002AA00F03FFE071E0CD11C22131C634335
:10DE0000154802A9C0183B1C00F0D6FE002804D01B
:10DE10002F7011E000232B700EE00134042CE5D1AB
:10DE20000AE06B466A46DB889188381C594389B200
:10DE300000F012FF00E0094805B0F0BD802E002080
:10DE40000C2F0020682E0020482F0020902E00204C
:10DE5000DDDB01004C2F0020DC2D00200E800000B7
:10DE6000F8B5174B1B78002B24D0002824D00029AC
:10DE700022D00B68002B1FD0124D2C68002C1DD116
:10DE8000061C281C0F1C08C00531052204F033FCB9
:10DE90003B790220AB72012304212A7A9A43024380
:10DEA0008A432A72EA79134303438B43EB71201CA4
:10DEB000347004E0044802E0044800E00448F8BD7F
:10DEC0004C2F0020802E0020088000000E800000D3
:10DED00004800000154B1B78002B22D000281ED098
:10DEE00000291CD00378002B1BD1114B1B68002B81
:10DEF00017D04278002A16D10E4B9B7A012B12D0F4
:10DF00002420184003D00123101C0B700CE05BB2DE
:10DF1000002B02DA02230B7006E0087004E00648CA
:10DF200002E0064800E006487047C0464C2F00203B
:10DF3000802E00200C2F00200E80000008800000A2
:10DF400010800000104B10B51B78002B19D0002852
:10DF500015D00478002C14D10C4B1B68002B10D06A
:10DF6000201C1C2363430A4AD3189B7EFF2B02D03C
:10DF7000201CFFF7EFFE0134042CF2D102E005482B
:10DF800000E0054810BDC0464C2F0020802E002028
:10DF9000DC2D00200E8000000880000013B5041C5A
:10DFA00081786A460B4800F065FD002810D11C23DB
:10DFB0006078094A5843694610181A1C00F0FCFDA5
:10DFC000064B074A9B7A68469B009B58211C984742
:10DFD00013BDC046902E00204C2E0020802E002025
:10DFE000B42E0200FF23F0B5BD4A8FB01278039320
:10DFF000002A00D1B2E1BB4A11680192002900D188
:10E00000ACE104AC05AF6370A370E370031D7B60EB
:10E010002A2300223B810388061C2270B24D102B5C
:10E020000BD0A97A82880091890761D5AF498A42CD
:10E0300008D0298991425BD104E00121AB7A0B42DF
:10E0400005D18BE1EA7AA2700022627050E01123C0
:10E0500062703B708388871D2B810223281CAB7262
:10E060000125391C072204F046FB737D1D4009D0B1
:10E070009F4A5B08D35CFF2B2FD003932DE0013523
:10E08000042D0FD01C2068439A4B10301818391CEF
:10E09000072204F021FB0028F1D103951DE0F3795C
:10E0A0002B423ED10025019B05AE1B68201C311C74
:10E0B0002A1C98473378122B00D04FE18A48837A84
:10E0C000012B00D14AE101238372023B0381C37219
:10E0D0000021072204F02CFB40E10A21039B824A25
:10E0E000DBB2D3729172201CA370FFF757FFD9E700
:10E0F000172B47D1012204251427019B01995B7A34
:10E10000009893434B72784B05A9A8430F709872FF
:10E11000B779191C002FC2D0D87AFFF71BFEB5794A
:10E12000C1E7A378FF2BBDD0082528438872F07A79
:10E13000800706D51C2058436E4D2818857E9543D0
:10E140008576CA7AFF2AADD01C220D7869485A43D9
:10E15000022D09D08518281C0722103004F0CBFAB4
:10E160002A1CAB7E022106E063498318498A1A1CE7
:10E17000198301219B7E8B439376201C0121FFF79D
:10E1800055FC8FE7172B00D99AE0132B52D113239C
:10E19000009A3B700F3B1343AB72EB7AFF2B24D1F9
:10E1A00000251C206843534B1818837EFF2B17D182
:10E1B0004D4B1A78031C1833022A07D0FD224A4916
:10E1C0009A701030F63A04F096FA01E0FE229A7046
:10E1D00003AB1D70039B444ADBB2A370D37210E003
:10E1E0000135042DDDD1454D0CE0162344480E22A7
:10E1F000083000213B7004F09BFA4423009A13433B
:10E20000AB7200250021384B0B91DA7A1C23534363
:10E21000384A0D91D3180C93374B09910893019B01
:10E220000A911A1DB08808AB03F0FFFD002800D149
:10E2300039E793E0142B26D12B4FFB7AFF2B17D114
:10E240000023F1891C225A432A488218128B8A42E1
:10E250000BD10822009903930A43DBB2EB72AA7236
:10E26000201CA370FFF79AFE02E00133042BE9D1D2
:10E27000FB7A0021FF2B00D01F49B0881D4A0023E4
:10E2800003F0D5FD6AE0112B68D10223009A9A436E
:10E29000131CAA72009A120707D55BB2002B0BDA87
:10E2A000201C0021FFF7C2FB06E0A078FF2803D066
:10E2B000FFF72EFDFF23A3701023AB72023302E0A1
:10E2C0001C2B02D113233B70ECE6522B1CD1019B7B
:10E2D0000C4A9B7A201C9B009B5898473EE0C04606
:10E2E0004C2F0020802E00200C2F0020FFFF00006C
:10E2F000482F0020DC2D00204C2E00204380000001
:10E30000682E0020942E0200182B27D1B379112BF0
:10E3100015D1009B1B0712D511480E220830002191
:10E3200004F006FA1623009A3B704A331343022284
:10E33000AB72019B5B7A1343019A5372B2E680235E
:10E34000009A5B421343AB7215233B70019B054A55
:10E350009B7A201C9B009B589847A3E60FB0F0BD0A
:10E36000682E0020942E020030B5002912D00A78C1
:10E37000002A11D10A4B1B68002B0DD0FF23094C3A
:10E380008B702589FA3B854207D14A70E37A8B70FE
:10E39000131C02E0044B00E0044B181C30BDC046C7
:10E3A000802E00200C2F00200E800000088000002E
:10E3B0000121074A074813680B4007D14360836077
:10E3C000C36003614361044B116003607047C04642
:10E3D000982E00209C2E0020C02D02000120054A0E
:10E3E00008B513785840044B10701B68002B00D000
:10E3F000984708BD4D2F0020B42E002038B50C4B97
:10E40000051C15200C1C1A6003F051FD00280ED1CC
:10E410001530291C03F04DFD002808D1153003F0FC
:10E4200044FD002803D10330211C03F044FD38BD16
:10E43000B42E0020142337B50849021C087858432D
:10E440000B18181CDD88DC6819790095044D24012F
:10E4500064590C305B69A04737BDC046B82E002018
:10E46000E42E0020F7B5664C1D1C2378071C002BFA
:10E4700006D1131C2B4301D1023300E0012323708A
:10E4800023780320013B052B00D9B8E0181C009528
:10E490000E1C151C00F020FF032333705D968023B3
:10E4A000584A5B055169013105D05069196989B233
:10E4B00000F01CFF00E058698022520513691169C1
:10E4C00012699BB2013889B292B2584371439208E3
:10E4D00003F0F3FC0223002800D18FE08FE0081C3A
:10E4E00003F0EDFC002800D089E0002D2DD1009B29
:10E4F000002B26D13B78042B21D1072322E0802357
:10E500005B0519693F4A89B24E43516901311ED0FA
:10E510005069196989B200F0E9FE80235B05196929
:10E52000013889B241432A1C301C03F0C6FC002884
:10E5300065D1009B002B04D13B78042B1AD0052316
:10E5400000E004232370002059E0032356E05869BB
:10E55000E3E780235B051869910080B246437A881F
:10E5600088199208396903F0A8FC002847D1009B5C
:10E570001D43C2D00623E5E780235B05196995009A
:10E5800089B24E437A88B61801921E4A76195169AB
:10E59000013106D05069196989B200F0A7FE411E09
:10E5A00001E05969013980235B051B69019A9BB21F
:10E5B0004B43AD18E918301C009A03F07EFC00288C
:10E5C000BAD01CE080230F4A5B055169013105D0A8
:10E5D0005069196989B200F089FE00E0586980220B
:10E5E0005205136911699BB20138584389B200F092
:10E5F0007DFE03F064FC002801D107232370FEBDDB
:10E600004F2F002000100010F7B514243D4A137856
:10E610005C431419211C009323790831271D8D6850
:10E620000192042B18D0052B4BD00F20022B67D161
:10E63000354B20891E886369B602E2889919334BED
:10E640004019921B80199A4201D8920801E0802259
:10E65000520003F032FC4EE0802649682C4A0B0140
:10E66000D31818895A895B687605AB4204D1131C0C
:10E670004343E288934201D002290AD13169281C20
:10E6800089B200F033FE204B1B88C01803F017FC42
:10E6900031E03169281C89B200F028FE3269346902
:10E6A000431CA4B25C43142392B24243011C009861
:10E6B000AA1A434301989208C318DB88EB18E31A9F
:10E6C00015E0802676053169281C89B200F00EFE1F
:10E6D000011C32692389306992B25D194A434B1C8F
:10E6E00086B25E43E388AA1A5B199208F31A9B0864
:10E6F000381CFFF7B7FE002802D10123019A93705E
:10E70000FEBDC046B82E00201A2F0020FF030000D7
:10E71000E42E0020F8B5134D061C6C7806A8078877
:10E720000420022C1DD028782418E4B2012C01D931
:10E73000023CE4B2142044432C196261221C26716D
:10E740000C3241C941C2E3802781AB78002B01D054
:10E75000002003E0FFF758FF1128F9D06B78013350
:10E760006B70F8BDB82E002008B5064B5B78002B07
:10E7700001D1002005E0FFF747FF0028F9D011285C
:10E78000F7D008BDB82E0020F7B5364B9A781C1C80
:10E79000002A66D000269E70334B1A781F1C082A68
:10E7A00004D1022800D0314B1E7044E0022803D06F
:10E7B000032856D10D2042E014212D4D20782B88BE
:10E7C000414301339BB22B806118087901950228DF
:10E7D00004D1CA889B02934210DA2CE0052839D074
:10E7E000042828D1C988D01F454245418C46281CA1
:10E7F0009B02311C634525DA002828D00026301CF6
:10E800003E70FFF717FE1423012022785343E318CC
:10E810001E71DE80D8601E615E611E81019B1E80BC
:10E820006378013B63701318DBB2834201D8237015
:10E8300001E0013A2270FFF797FF002811D0FFF79F
:10E84000F9FD0EE00121002AD6D0311CD4E70029C1
:10E85000F1D0D3E7073A51425141301C0029CBD0C7
:10E86000CCE7F7BDB82E00204F2F00204E2F002000
:10E870001A2F00200022012138B5284B284D1A807C
:10E88000284BD96019621A705A709A701A71DA801E
:10E890001A615A611A811A765A835A629A629A8365
:10E8A0001C1C802320495B050A806A69013205D05F
:10E8B0006869196989B200F019FD00E05869802182
:10E8C000002249050B6902389BB25843174B186068
:10E8D000174B1A601A819A815A81164B08321A70A6
:10E8E0006B69013306D00E4B5869096989B200F093
:10E8F000FDFC00E0486980225205136911699BB252
:10E900000138584389B200F0F1FC03F0D8FA00282E
:10E9100003D10123084AA370137038BD1A2F0020B9
:10E9200000100010B82E0020182F0020F42E002018
:10E93000E42E00204F2F00204E2F0020F0B5484B32
:10E9400087B01B780824002B00D185E0063400280E
:10E9500000D181E0002900D17EE003680493002B00
:10E9600000D179E080235B051A69858892B2073C63
:10E97000954271D80F2D6FD9C2880192002A6BD0B1
:10E98000384A0F1C12680292019A6A43161CB44658
:10E990000392029A62440592334A5169013105D0CB
:10E9A0005069196989B200F0A1FC00E05869802221
:10E9B0005205136901389BB25843059B07248342D3
:10E9C0004AD8136903999BB2994207DD1069291C43
:10E9D00080B200F011FD89B200293DD10323072444
:10E9E0002B4039D1214A033C1288012A34D00299A4
:10E9F0001F4879601101441825816D463A60AD8841
:10EA0000029F65816760049F164C0F502768009431
:10EA1000019080256C466D0528690133208120898D
:10EA20009BB2864204D9286920812089361A00E0E9
:10EA300000266C4628692D6920812089ADB2844664
:10EA40006744AE42E5D20024009801320760019885
:10EA500041188B81054B1A80201C07B0F0BDC046C1
:10EA60004E2F0020F42E002000100010182F002040
:10EA7000E42E0020104B30B51C780823002C19D050
:10EA80000633002816D0002A14D00368002B10D1BA
:10EA90000A4D2C68002C0CD02C8940686143091861
:10EAA0006889444368682418A14202D21360516007
:10EAB00000E00723181C30BD4E2F0020E42E00205C
:10EAC000F0B5041C1B4885B005780820002D2ED019
:10EAD000063000292BD0002C29D025680738002DBE
:10EAE00025D1154D2E68002E21D0666803962E89FB
:10EAF0006F896D687743BC46039F6544AF4216D269
:10EB0000002A14D0B24212D8D518B5420FDC032522
:10EB1000093029420BD12B4209D12F4207D1181CB1
:10EB2000131C00900A1C0220211CFFF7F3FD05B006
:10EB3000F0BDC0464E2F0020E42E0020F0B5041C8E
:10EB40001B4885B005780820002D2ED006300029FE
:10EB50002BD0002C29D025680738002D25D1154D44
:10EB60002E68002E21D0666803962E896F896D6805
:10EB70007743BC46039F6544AF4216D2002A14D0A7
:10EB8000B24212D8D518B5420FDC0325093029420C
:10EB90000BD12B4209D12F4207D1181C131C009016
:10EBA0000A1C0520211CFFF7B5FD05B0F0BDC046CD
:10EBB0004E2F0020E42E0020F0B5151C244A85B00D
:10EBC000127802930824002A3ED0063400293BD054
:10EBD000002839D00C68002C33D11E4E3268002A30
:10EBE0002FD0378973894A687B439C4673689C445D
:10EBF000624526D2002D24D0BD4222D8029BEB18BC
:10EC0000BB421EDC03239C4618421CD1029F1F42BC
:10EC100019D16746131C3B401F1E14D103950D1CD0
:10EC2000029B02909918039A03F065FD2B68039AE2
:10EC30001B010092F658281C03213A1C029BB04786
:10EC400002E0072400E01024201C05B0F0BDC046FF
:10EC50004E2F0020E42E0020154BF7B51B78041C26
:10EC60000820002B23D00630002C20D02368073842
:10EC7000002B1CD10F4B1A68002A18D05F681E8920
:10EC80005B8962687343DB199A4210D2093093079B
:10EC90000DD1D01B0D1C311C00F0AEFB07200A1E4D
:10ECA00005D100910338211C2B1CFFF733FDFEBD5D
:10ECB0004E2F0020E42E0020F0B5438A87B0029347
:10ECC00003780126002B3BD0002283190193214BAE
:10ECD0001D680393AA4216D01121002351431E4FF1
:10ECE00079189C1E012C04D9019CCE5CE45CA642E0
:10ECF00007D10133102BF4D111235A43BF183E7CA6
:10ED00001EE00132E6E7041C019803F0E0F82378E6
:10ED1000071C061C002B01D112340194082D0FD0C2
:10ED200011246C430C4B01991C19201C102203F078
:10ED3000E2FC0023A370E370039B013527741D6080
:10ED400005AB9E705888029B00040343181C07B053
:10ED5000F0BDC046F82E0020502F00201FB5002324
:10ED600002AC0393283323806933FF336380E3804D
:10ED7000803B01A8FF3B0D490522037003F0A0F979
:10ED800080B200280FD18020800003F095F980B276
:10ED9000002808D1201C03F091F980B2002802D18C
:10EDA00003F088F980B204B010BDC0469E32020064
:10EDB00070B50B780C1C142B1BD002D8132B05D06C
:10EDC00052E0152B1FD0222B45D04DE04E68FFF7A7
:10EDD000EFFA6368051C1888B3780122191C5C08D7
:10EDE000114022406C68DB065B0F002C3CD0A04732
:10EDF0003AE0FFF7DDFA63681A8899788368101C97
:10EE0000002B26D130E04B689A7813091207120FB5
:10EE1000012A02D0022A08D011E0013BDBB2002512
:10EE2000022B0DD8114AD55C0AE00425012B07D02E
:10EE3000023B5942594101354B421D4000E000253B
:10EE4000FFF7B6FA63681A88C368002B0CD0101C51
:10EE5000291C984708E0FFF7ABFA63681A88036932
:10EE6000002B01D0101C9847002070BDA432020076
:10EE7000F0B5314E87B0347800960026B44257D1B1
:10EE80001D1C01920C1C061CFFF7F4FC002801D08D
:10EE900009264DE0002D0FD0222003A9039503F091
:10EEA0008CF9002808D00626082841D01138061C05
:10EEB0007042464104363BE0002302AA101C137046
:10EEC000FEF75EFF011EE3D103AD0C22281C03F008
:10EED0002FFC1A4B01270393102302220421687987
:10EEE000AB71EB712B7A3E403B43B8433043134345
:10EEF0003C400B436100041C07262B721C239443E7
:10EF00002A71019A0C43324092009C4314430C48EE
:10EF1000291C6C71FEF7A4FF002806D0042807D036
:10EF2000013E082804D0033602E0061C009B1F7037
:10EF3000301C07B0F0BDC046D92F0020B1ED010054
:10EF4000D82F002008B50748FEF7FCFF00239842A1
:10EF500006D00733042803D0013B082800D0033330
:10EF6000181C08BDD82F0020002373B501930F4B48
:10EF700001AD1B780E1C291C2B70FFF7F5F9041E40
:10EF800004D0042305280FD005330DE0281C311CC4
:10EF9000FEF7A0FF231C002806D00723042803D077
:10EFA000013B082800D00333181C76BDD82F002061
:10EFB00073B5002402268180051C3F30047001389F
:10EFC000867001AE0470081C311C3280738003F01F
:10EFD000F8F8061C201CA6420CD0281C03F0F5F8FB
:10EFE0000520112E06D0044B9E4202D00130102E77
:10EFF00000D1042076BDC04602300000F0B5041CEC
:10F0000089B0231C403301931B78012B64D1251C4C
:10F01000201C3C353D302B780278934243D20021AE
:10F02000A71D03A802F074F9381C03A902F05CFDC7
:10F03000002809D118212E78381C714361184231FB
:10F0400002F052FD00282BD0E369002B11D00021E3
:10F0500003A802F05DF9201C03A9203002F044FD52
:10F06000002806D018232878584320184230E36936
:10F070009847019B1B78012B0ED1636B002B0BD0A3
:10F0800018232A78A1885343E3185033DA88201CC8
:10F090001B89FFF78DFFB4E72B7801332B70B0E7A6
:10F0A00001362E70ADE7002A16D0002B14D018229E
:10F0B000013B53430022E31850331989074B027078
:10F0C0002A70994203D1201C02F0DAFA04E0A088E9
:10F0D00003F075F80028F6D109B0F0BDFFFF00007D
:10F0E00073B5051C2B686C69002B1CD0231C0322F4
:10F0F00040331A700F49013268466E6803F0FBFA1C
:10F1000018237343E3185033D98801AA11801B894F
:10F1100069465380A08803F056F8002809D0281CBF
:10F1200003F05FF8DEE740342378032B01D1023B84
:10F13000237073BD342F020073B5061C33687469E5
:10F14000002B1DD0231C0422114940331A7089184A
:10F150006846756803F0CFFA00236D0165190193C5
:10F16000B835EB8801AA138001335380A088694623
:10F1700003F029F8002809D0301C03F044F8DDE73B
:10F1800040342378042B01D1023B237073BDC04669
:10F19000342F02007FB5031C40331B78041C032B63
:10F1A00030D1314B0A689A4227D100268A686946D5
:10F1B000931BDB7B73540136102EF8D1251C2535AB
:10F1C000FF35281C03F00DF8182358432418231C7E
:10F1D0000122201C40339A706946321C433003F0F0
:10F1E0008AFA6B466A469B78D2781B0250341343E6
:10F1F000A380281CFFF774FF35E02530FF3002F0B4
:10F20000F0FF30E0042B2ED1184B0A689A4226D129
:10F2100000268A686946931B9B7C73540136102E26
:10F22000F8D1251C3D35FF35281C02F0ECFF4001CC
:10F230002418231C0122201CA8331A706946321C92
:10F24000A93003F058FA6B466A469B78D2781B02C5
:10F25000B03413436381281CFFF76EFF03E03D3099
:10F26000FF3002F0D0FF7FBD01001000010013004D
:10F2700038B50E4B051C0833036000234360A960BA
:10F28000C360FE230C1C5B058800994201D9012054
:10F29000404203F0B8F9031C013C013CA21C02D01F
:10F2A000002204C3F9E76860281C38BDE02D020085
:10F2B00010B5041C044B0833036003F052F9606876
:10F2C00003F096F9201C10BDE02D0200014B1868D8
:10F2D0007047C046FC2E002002B471464908490020
:10F2E000095C49008E4402BC7047C04600224308B6
:10F2F0008B4274D303098B425FD3030A8B4244D3FE
:10F30000030B8B4228D3030C8B420DD3FF2209023F
:10F3100012BA030C8B4202D31212090265D0030BFE
:10F320008B4219D300E0090AC30B8B4201D3CB03F4
:10F33000C01A5241830B8B4201D38B03C01A524136
:10F34000430B8B4201D34B03C01A5241030B8B4238
:10F3500001D30B03C01A5241C30A8B4201D3CB0223
:10F36000C01A5241830A8B4201D38B02C01A524108
:10F37000430A8B4201D34B02C01A5241030A8B420B
:10F3800001D30B02C01A5241CDD2C3098B4201D323
:10F39000CB01C01A524183098B4201D38B01C01AA1
:10F3A000524143098B4201D34B01C01A5241030918
:10F3B0008B4201D30B01C01A5241C3088B4201D3C7
:10F3C000CB00C01A524183088B4201D38B00C01A74
:10F3D000524143088B4201D34B00C01A5241411A9B
:10F3E00000D20146524110467047FFE701B50020A8
:10F3F00000F00CF802BDC0460029F7D003B5FFF7B6
:10F4000075FF0EBC4243891A1847C0467047C04674
:10F41000002B11D1002A0FD1002900D1002802D0E1
:10F420000021C943081C07B4024802A140180290F9
:10F4300003BDC046D9FFFFFF03B4684601B502987B
:10F4400000F04CF8019B9E4602B00CBC7047C046D1
:10F45000F0B54F46464605042D0C2C1CC0B41704CD
:10F46000160C3F0C9946030C7C4375435F43734372
:10F470007D19260CAD199C46AF4203D980235B024F
:10F480009846C4444B465143434324042E0C240C59
:10F490002D0466442C1959188919201C0CBC90465F
:10F4A0009946F0BDF0B583B0161C1F1C0090019169
:10F4B00000F04CF8041C0D1C221C2B1C301C391CA9
:10F4C000FFF7C6FF009A019B121A8B410899201C76
:10F4D0000A604B60291C03B0F0BDC046F0B5141C97
:10F4E00083B01D1C0090019100F028F9221C2B1CF8
:10F4F000061C0F1CFFF7ACFF009A019B121A8B41F0
:10F500000899301C0A604B60391C03B0F0BDC0463E
:10F510001C2101231B04984201D3000C10391B0A43
:10F52000984201D3000A08391B09984201D3000907
:10F53000043902A2105C40187047C046040302025E
:10F54000010101010000000000000000F0B5444688
:10F550005F4656464D46F0B41C1C85B0002900DAC3
:10F56000A9E00F1C0021061C8846101C191C002C49
:10F5700000DA97E0341C3D1C82468946B94273D8B4
:10F5800070D04946504600F085F98346391C301C3E
:10F5900000F080F95B46181A031C8346203B9C460A
:10F5A00000D59CE00023002251460092019363465F
:10F5B0009940019151468140019B0091BB4200D985
:10F5C00083E000D17EE0009A019B341C3D1CA41A0C
:10F5D0009D416346002B00DA9AE000260027029640
:10F5E000039701369E400396012686400296002826
:10F5F00000D171E00099019AD30799464B464E0815
:10F600001E435708002301220CE0AF4201D1A6425D
:10F610000AD8A41BBD4124196D410138A4185D41CD
:10F62000002806D0AF42F0D9013824196D410028D6
:10F63000F8D12022029E039F5B46524236196F4149
:10F6400099185AD4281CC8402C1C5B46DC40002961
:10F6500068DB041C8C40231C59468840021CB61AE7
:10F660009F4103E0B0428CD90026002741464B1E43
:10F670009941002300910193009A019B0025544277
:10F680009D41331C6340181C3B1C6B40191C009BA4
:10F69000019CC018614105B03CBC90469946A24609
:10F6A000AB46F0BD4346DB430C1C9846131C0021BF
:10F6B0005842A1415EE7002746428F41012149425D
:10F6C000884652E7B14200D87DE70026002702961F
:10F6D0000397002800D08DE7029E039FC6E72021F4
:10F6E0005346091ACB400022191C002300920193B3
:10F6F0004B4683400B4301935CE75A4620239B1AF9
:10F700002A1C9A40201C131C5A46D04018439BE7E1
:10F7100020260027331A0026029603970127DF4090
:10F72000039761E75B4620215D46C91A031CAC4084
:10F73000CB40191C231C0B438EE7C046F0B5454651
:10F740004E465746E0B4041C82B00D1C91469846C4
:10F750008B4262D85FD04146484600F09BF8291C96
:10F76000061C201C00F096F82023311A5B428A46C2
:10F77000C81865D44B4683401F1C4B468B401E1C4B
:10F78000AF4258D855D0A41BBD41002800DA77E01D
:10F790000022002300920193013282400192012352
:10F7A0008B40009300293CD0FB07984640467208E6
:10F7B0007B080243012600270CE0AB4201D1A242A4
:10F7C0000AD8A41A9D4124196D410139A4197D411B
:10F7D000002906D0AB42F0D9013924196D41002926
:10F7E000F8D12022009801995346524200196941EC
:10F7F0009E183AD42F1CF7405346DD40002E29DBDB
:10F800003C1CB440231C5446A7403A1C801A994122
:10F810000090019105E082429DD9002300240093CD
:10F8200001940098019902B01CBC90469946A246EA
:10F83000F0BDA342A7D90022002300920193B1E7B3
:10F8400020224B46521AD3401A1C43468B401F1CA1
:10F85000174392E7534620245646E41A3B1CB54012
:10F86000E3401C1C2B1C2343CDE7524620239B1A4C
:10F870002A1C9A40271C131C5246D7401F43BBE743
:10F8800020230022581A0023009201930132C24023
:10F89000019284E710B5002903D1FFF739FE20302B
:10F8A00002E0081CFFF734FE10BDC046054B10B542
:10F8B000041C181E05D0131C02200A1C211C00E089
:10F8C00000BF10BD00000000014B18687047C04623
:10F8D00068280020084B10B5041C002B02D0002122
:10F8E00000E000BF054B1868836A002B00D09847E2
:10F8F000201C01F043FDC04600000000242F020040
:10F9000008B5024902F0BCFE08BDC046B9000200BD
:10F91000002310B5041C036043608360818143664B
:10F92000C281036143618361191C08225C3002F0CB
:10F93000FFFE054B24626362044BA362044BE36247
:10F94000044B236310BDC04649FE010071FE010057
:10F95000A9FE010077280200836913B5002B28D186
:10F960008364C3640365134B134A1B68826201936B
:10F97000984201D101238361041C00F01FF86060EC
:10F98000201C00F01BF8A060201C00F017F80421D8
:10F99000E06000226068FFF7BBFFA0680921012238
:10F9A000FFF7B6FFE06812210222FFF7B1FF012343
:10F9B000A36113BD242F020001F90100F8B51D4B0E
:10F9C000061C1D68AB69002B02D1281CFFF7C4FF81
:10F9D0004835AC686B68013B05D40C22A75E002F4C
:10F9E00010D06834F7E72B68002B06D1301C0421B7
:10F9F00002F014FE2860002801D02D68E9E70C23EE
:10FA0000336016E00123201C5B42E3810233A381B3
:10FA100067662760A760676027616761A7615C30E0
:10FA2000391C082202F084FE201C6763A763A764C8
:10FA3000E764F8BD242F02000E4B70B500251E1C94
:10FA40000D4CE41AA410A54204D0AB00F35898471B
:10FA50000135F8E703F0BCF8084B00251E1C084CE4
:10FA6000E41AA410A54204D0AB00F358984701351E
:10FA7000F8E770BD70280020702800207028002052
:10FA80007C28002008B5034B011C186800F054F8CE
:10FA900008BDC0466828002008B5034B011C186843
:10FAA00000F004F808BDC0466828002030B50029E1
:10FAB0003ED004390B68002B00DAC9181D4A1368C0
:10FAC000141C002B02D14B60116031E099420DD221
:10FAD00008680A189A4203D11368C3180B60536868
:10FAE0004B60216024E08A4203D8131C5A68002A24
:10FAF000F9D11D685C198C420BD109686918581836
:10FB00001960904214D110685268091819605A603F
:10FB10000EE08C4202D90C23036009E008680C183F
:10FB2000944203D114685268001908604A60596011
:10FB300030BDC046042F0020032370B5CC1C9C436D
:10FB40000834051C0C2C01D20C2405E0002C03DA2F
:10FB50000C2300202B6042E08C42F9D3204A13682A
:10FB6000101C191C002913D00A68121B0DD40B2A73
:10FB700002D90A608B181FE08B4202D15A680260DA
:10FB80001BE04A685A600B1C17E00B1C4968E9E748
:10FB9000144E3368002B03D1281C00F0D9F83060D4
:10FBA000281C211C00F0D4F8031C421CD0D00322D6
:10FBB000C61C964386420AD11C60181C07210B30D4
:10FBC0001A1D8843821A0AD05142995007E0311A0F
:10FBD000281C00F0BDF8431CBAD0331CECE770BD04
:10FBE000042F0020002F00200FB40B4B13B51C680E
:10FBF000002C05D0A369002B02D1201CFFF7ACFE1E
:10FC000005AB201CA168049A019300F057FC16BCB8
:10FC100008BC04B01847C0466828002008B5034B4C
:10FC2000011C186802F08CFD08BDC0466828002041
:10FC3000F8B5051C0C1C002804D08369002B01D1E9
:10FC4000FFF78AFE3D4B9C4201D16C6808E03C4BBB
:10FC50009C4201D1AC6803E03A4B9C4200D1EC6875
:10FC60000023A289636093B2990663D459071AD41A
:10FC7000D90605D409232B6037331A43A28159E0F2
:10FC8000082633420AD0281C211C00F015FA00284F
:10FC900050D1A389A060B343A381A0610422A389AA
:10FCA0001343A38112E0616B00290FD0231C44335E
:10FCB000994202D0281CFFF7F9FE0020236C6063F4
:10FCC0006360834202D0E36B236035E02369002B3D
:10FCD00003D1281C211C00F043FAA789BEB2B30748
:10FCE0000FD00123A381184B1849186802F0ACFC0F
:10FCF0000923A7813340092B03D1281C211C02F0C2
:10FD0000E5FD2369281C1A1C2360216A6369656A62
:10FD1000A847021C6060002082420DDCA389824259
:10FD200004D120221343A381013805E0402213436C
:10FD30006060A38101204042F8BDC046C42E02008D
:10FD4000E42E0200042F0200242F020003280200E8
:10FD500038B50023064C051C081C2360FCF734FD55
:10FD6000431C03D12368002B00D02B6038BDC04654
:10FD7000E42F00200FB40B4B13B51C68002C05D0EA
:10FD8000A369002B02D1201CFFF7E6FD05AB201C68
:10FD90006168049A019300F031FF16BC08BC04B0FE
:10FDA0001847C0466828002008B5034B011C186896
:10FDB00002F033FD08BDC0466828002038B5002396
:10FDC000064C051C081C111C236001F099FA431C09
:10FDD00003D12368002B00D02B6038BDE42F002016
:10FDE0000CB430B5174B9DB01D68002904DA8B2385
:10FDF00001202B6040421FE0822302AA9B009381D6
:10FE0000002302901061994200D04B1E9360536111
:10FE100001235B42D3810C1C21AB111C281C209AAE
:10FE2000019300F055FA431C01DA8B232B60002C60
:10FE300002D00023029A13701DB030BC08BC02B07F
:10FE40001847C0466828002038B50C1C0E25495FAD
:10FE500001F054F8002803DB636D1B18636503E0B1
:10FE6000A289024B1340A38138BDC046FFEFFFFFBC
:10FE7000F8B51E1C8B89051C0C1C171CDB0505D551
:10FE80000E23C95E0022022300F056F9A289054B19
:10FE9000281C1340A3813A1C0E23E15E331C00F0A2
:10FEA00071F8F8BDFFEFFFFF38B50C1C0E25495F58
:10FEB00000F042F9A389421C03D1054A1340A381F3
:10FEC00004E0802252011343A381606538BDC0461F
:10FED000FFEFFFFF70B5051C0E1C141C002804D09A
:10FEE0008369002B01D1FFF737FD234B9C4201D1E1
:10FEF0006C6808E0214B9C4201D1AC6803E0204BC8
:10FF00009C4200D1EC68A369A360A3891B070AD5B2
:10FF10002369002B07D023682269F6B2981A636917
:10FF200098420FDB08E0281C211C00F03FF8002855
:10FF3000F1D0012040421DE0281C211C00F0BCF83B
:10FF40000028F6D1A3680130013BA36023685A1C46
:10FF500022601E706369984205D0A389301CDB07BC
:10FF600008D50A2E06D1281C211C00F0A5F800286F
:10FF7000DFD1301C70BDC046C42E0200E42E02004A
:10FF8000042F020038B5051C0020074C2060081C17
:10FF9000111C1A1CFCF7A2FB431C03D12368002B85
:10FFA00000D02B6038BDC046E42F0020354B70B523
:10FFB0001D68061C0C1C002D05D0AB69002B02D15E
:10FFC000281CFFF7C9FC304B9C4201D16C6808E04B
:10FFD0002E4B9C4201D1AC6803E02D4B9C4200D1DA
:10FFE000EC68A3899AB2110723D4D10607D4092259
:10FFF0000120326037321343A381404240E053076F
:020000022000DC
:1000000013D5616B002908D0231C4433994202D0D8
:10001000301CFFF74BFD002363632422A389934325
:10002000A38100236360236923600822A38913430B
:10003000A3812369002B0BD1A023A2899B0013402D
:1000400080229200934203D0301C211C00F088F8DB
:100050000123A289134005D00023A36063695B429A
:10006000A36103E0910700D46369A36000202369C2
:10007000834205D1130603D540231A43A2810138D8
:1000800070BDC04668280020C42E0200E42E020085
:10009000042F020038B50023064C051C081C236001
:1000A000FCF706FB431C03D12368002B00D02B6018
:1000B00038BDC046E42F002038B50B69051C0C1C68
:1000C000002B01D100201CE0002804D08369002B04
:1000D00001D1FFF741FC0B4B9C4201D16C6808E059
:1000E000094B9C4201D1AC6803E0084B9C4200D113
:1000F000EC680C22A35E002BE4D0281C211C02F02B
:10010000E5FB38BDC42E0200E42E0200042F0200DD
:1001100008B5011E05D1054B0549186802F0B0FA73
:1001200003E0044B1868FFF7C7FF08BD242F020047
:10013000B90002006828002038B5051C0020074CD3
:100140002060081C111C1A1CFCF72AFB431C03D15D
:100150002368002B00D02B6038BDC046E42F002060
:10016000F0B58B8991B09B0706D50B1C47330B600C
:100170000B6101234B6145E00C1C0E23C95E061C7C
:10018000002904DA8023A5891D4010D10CE001AAC2
:1001900001F08AF80028F5DBF023029D1B021D40C8
:1001A000194BED186B425D418027FF0001E00025EF
:1001B0004027301C391CFFF7BFFC00280CD1A38955
:1001C0009A051FD402221343A381231C47332360C3
:1001D00023610123636115E080220C4BB362A38984
:1001E00020601343A38120616761002D0AD00E2394
:1001F000E15E301C01F06AF8002803D00122A389D7
:100200001343A38111B0F0BD00E0FFFF01F901002D
:10021000F0B58E6885B0071C0C1C03920193B342A5
:1002200045D390238A89DB001A423DD00325096912
:10023000236801985B1A029363695D43EB0F5D19B4
:10024000029B6D1001331B189D4200D21D1C381CEF
:1002500053050FD5291CFFF76FFC061E13D0029A19
:10026000216902F048FAA289184B134080221343F7
:10027000A38111E02A1C02F07AFC061E0CD1381C66
:100280002169FFF713FC0C23402201203B60A38966
:1002900040421343A38117E0029B2661F6182660B3
:1002A0006561019EED1AA560019BB34200D2019EDB
:1002B000321C2068039902F027FA0020A3689B1BD8
:1002C000A36023689E19266005B0F0BD7FFBFFFF89
:1002D000F0B59FB0029005938B890E1C171C1B066E
:1002E00010D50B69002B0DD14021FFF725FC3060A4
:1002F0003061002804D10C23029A01381360D0E049
:1003000040237361002306AD6B6120336B7610339D
:10031000AB763C1C2378002B03D1E31B049312D053
:1003200003E0252BF9D00134F4E7049B0298311C3B
:100330003A1CFFF76DFF431C00D1ACE06A69049BD7
:10034000944663446B612378002B00D1A3E0012223
:10035000002352426A6002A95432521801342B60C1
:10036000EB60AB601370AB654F4F2178381C0522F2
:1003700002F0A7F9002808D0C01B01278740381CCD
:100380002B68013418432860EEE72B68DA0604D5A1
:100390005322202102A8121811701A0704D55322E3
:1003A0002B2102A81218117022782A2A01D0099B49
:1003B0000EE0059A111D12680591002A01DB0992D1
:1003C00004E05242EA60022213432B60013409E048
:1003D0002278303A092A04D80A214B4301349B1869
:1003E000F6E7099323782E2B18D163782A2B09D1AD
:1003F000059B02341A1D1B680592002B0DDA0123A0
:100400005B420AE0002301342278303A092A04D8FA
:100410000A214B4301349B18F6E70793234F2178B9
:10042000381C032202F04DF9002807D0C01B4027DA
:100430008740381C2B6801341843286021781C48F9
:100440000622671C297602F03CF9002812D0194BCD
:10045000002B06D10722059B0733934308330593EE
:1004600014E005AB00930298291C321C124B00E0EB
:1004700000BF07E005AB00930298291C321C0E4B0D
:1004800000F02CF90390039B013304D06B69039AAD
:100490009B186B613DE7B3890B985B0601D5012082
:1004A00040421FB0F0BDC046A9320200AF32020088
:1004B000B33202000000000011020200F0B59FB04C
:1004C000061C0F1C02920593002804D08369002BA0
:1004D00001D1FFF741FA794B9F4201D1776808E0DB
:1004E000774B9F4201D1B76803E0764B9F4200D122
:1004F000F768BB891B070AD53B69002B07D000238F
:1005000006AD6B6120336B761033AB763DE0301C6B
:10051000391CFFF74BFD0028F1D001204042CAE012
:10052000059A111D12680591002A7EDB099201349B
:1005300023782E2B00D189E021786348032202F032
:10054000C0F8002808D0604B0134C01A4023834013
:10055000181C2B68184328602178631C5B4806220E
:100560000293297602F0ADF8002800D191E0584BB3
:10057000002B00D084E00722059B07339343083308
:1005800005936B69039A9B186B61029C2378002B7F
:1005900004D1029BE31A049311D003E0252BF8D079
:1005A0000134F3E7049B301C391C029A02F02CFA48
:1005B000431C7BD06A69049B944663446B61237837
:1005C000002B73D00122002352426A6002A95432E8
:1005D000521801342B60EB60AB601370AB6521786F
:1005E0003C48052202F06DF8002809D0394B01344F
:1005F000C01A01238340181C2B6818432860EEE7BB
:100600002B68DA0604D55322202102A81218117093
:100610001A0704D553222B2102A812181170227830
:100620002A2A00D17CE7099B05E05242EA600222B7
:1006300013432B607BE72278303A092A04D80A2139
:100640004B4301349B18F6E7099371E763782A2B33
:1006500009D1059B02341A1D1B680592002B0DDA87
:1006600001235B420AE0002301342278303A092A50
:1006700004D80A214B4301349B18F6E707935BE744
:1006800005AB0093301C291C3A1C134B00E000BF43
:1006900007E005AB0093301C291C3A1C0E4B00F000
:1006A0001DF80390039B013300D06AE7BB895B060A
:1006B00000D532E70B981FB0F0BDC046C42E020033
:1006C000E42E0200042F0200AF320200B332020017
:1006D00000000000A9320200092A0200F0B58BB028
:1006E00006920A1C43320793059004920A7E0C1C62
:1006F000109B6E2A00D1A8E011D8632A22D009D815
:10070000002A00D1B2E0582A00D0C2E045310A7078
:100710007C4A4FE0642A1DD0692A1BD0B9E0732AB5
:1007200000D1A7E009D86F2A29D0702A00D0B0E004
:10073000202209680A43226037E0752A1FD0782AF0
:1007400033D0A6E00E1C1A684236111D19601368DA
:100750003370A1E021681A68080606D4490604D55A
:10076000111D19600023D55E02E0111D1960156886
:10077000002D3BDA2D23049A6D42137036E0216878
:100780001A68080606D4490604D51568111D1960B3
:10079000ADB202E0111D196015685A4B227E039319
:1007A0000A276F2A1DD108271BE0221C7821453219
:1007B0001170554A19680392081D226818600D6867
:1007C000100602D4500600D5ADB2D30702D52023BF
:1007D0001A4322601027002D03D1202322689A4358
:1007E0002260231C002243331A7002E00A27454B83
:1007F00003936368A360002B03DB04222168914309
:100800002160002D02D1049E002B0ED0049E281CD6
:10081000391CFEF7F1FD039B013E5B5C281C337025
:10082000391CFEF763FD051EF1D1082F09D123689D
:10083000DB0706D563682269934202DC3023013E60
:100840003370049B9B1B23612BE009681A68080620
:1008500007D4490605D5111D19601368A28A1A80AC
:1008600004E0111D1960136862691A600023049E78
:10087000236116E01A68111D196016680021301CEA
:10088000626801F01EFF002801D0801B6060636871
:1008900003E0261C42363270012323610023049AB0
:1008A0001370079B05980093211C069B09AA02F070
:1008B000BDF8431C02D10120404221E02369059884
:1008C0000699321C079DA847431CF4D023689B0758
:1008D00005D4099BE068984212DA181C10E0002544
:1008E000E368099A9B1A9D42F3DA221C01230598BA
:1008F00006991932079EB047431CDCD00135EFE75B
:100900000BB0F0BDBA320200CB320200F0B5B54CEC
:10091000071CA5440393002386204893499305AB05
:100920004A93BE2340000D1C019202A9AE4A5B000F
:100930000918CA50AD4A02A904330918CA50019BCC
:100940001C78002C00D144E1A94E33681B195A7859
:100950000823134023D06B68002B10DD2B6831680F
:100960001A788A185278120715D5499A01330292DB
:10097000013249926A682B60013A6A60EBE786218E
:10098000C023490002AA52185B00D358381C291C06
:1009900098470028E2D0019E01360196CFE7019AE0
:1009A000561C252C4FD14793459353782A2B02D1BF
:1009B0001A3B45930136341C21780B1C303B092B24
:1009C00009D8479B013401930A23019A5343303BD2
:1009D00059184791F0E7874E0322301C01F071FE51
:1009E000002808D0801B01268640301C459B01341E
:1009F000184301934590661C2478672C10D8652C09
:100A000000D384E05B2C5AD005D8002C00D1E2E062
:100A1000252C18D07DE0632C5FD0642C46D078E084
:100A2000702C34D007D86E2C5FD041D8692C70D18F
:100A30000023469341E0752C38D0782C2DD0732CB0
:100A400067D1022347E06B68002B0EDD2B681A7814
:100A5000A24200D0BDE001336A682B60499B013A95
:100A6000019301336A60499397E78621C0234900C7
:100A700002AA52185B00D358381C291C984700283A
:100A8000E4D04898002800D09FE00138A5E0459BBD
:100A900001932023019A13434593459B019380239F
:100AA000019A9B0013434593102302E00A2300E0C0
:100AB0000823469304236E2C0DDC03230BE0311C2A
:100AC00005A802F021F8459B061C01934023019ADA
:100AD0001343459301234B931FE0459B0193402310
:100AE000019A134345930023F5E74599CB0600D5BA
:100AF00053E7039B499AC80704D5191D03911B6846
:100B00001A804AE7191D03911B681A6045E70523FF
:100B1000E1E703234B93073346936B68002B04DD17
:100B2000459B01935B0618D51FE08621C023490031
:100B300002AA52185B00D358381C291C9847002879
:100B4000EED09EE7499A0192013249926A68013AD1
:100B50006A60002A13DD01332B602B6824491A7860
:100B600009688A1852781207ECD44B9B022B13DCCD
:100B7000381C45A92A1C03AB00F068F81FE0862149
:100B8000C023490002AA52185B00D358381C291C04
:100B900098470028E1D074E7042B06DC381C45A9EF
:100BA0002A1C03AB00F0B0F809E0134B002B00D176
:100BB000F3E6381C45A92A1C03AB00E000BF01285E
:100BC00007D0022800D0E8E65BE7AB895B0604D5D6
:100BD00001E0489801E001204042A7239B009D448A
:100BE000F0BDC04664FDFFFFC511020031FC0100ED
:100BF0006C280020AF32020000000000F8B5051C90
:100C00000C1C171C1E1C002804D08369002B01D16A
:100C1000FEF7A2FE0A4B9C4201D16C6808E0094B2A
:100C20009C4201D1AC6803E0074B9C4200D1EC68C8
:100C3000281C3A1C331C211CFFF768FEF8BDC04677
:100C4000C42E0200E42E0200042F0200F7B5151C8A
:100C50008A6801900C1C002A06D18A69511E8A41BB
:100C6000012152420A43A2602268D20603D41A68C4
:100C7000111D196017680026A06900281DD123687E
:100C80000136DB0603D42B681B783B7001372A68DA
:100C90006B6801322A60A268013B013A6B60A26076
:100CA000002A1FD0002BE7DCC0235B00E35801982B
:100CB000291C98470028DFD014E0012808D12B68B0
:100CC00062691B78D35C002BD9D1002E19D009E0C2
:100CD000022807D12B680B4A1B781268D3185B785F
:100CE0001B07CCD510232268134006D1E2680132DD
:100CF000E260A269002A00D03B70002023699E199F
:100D00002661FEBD6C280020F0B50C1C8BB0019351
:100D1000744B0490161C07AA23CB23C2724B059375
:100D2000A369032B01D0714B05930022A3680392A2
:100D30005D32591EFF32914205D95E3BFF3B039362
:100D40005E23FF33A360231C1C330093D0230027B2
:100D500022681B0113432360009B02933268BB008F
:100D6000117807AA9858022201F0ABFC002839D06C
:100D7000012F0DD16368002B06D108332268636010
:100D8000F933FF3313432360594B226813400DE0BE
:100D9000022F0CD1C02280212368D2001A40890082
:100DA0008A4222D110226260F03213432360A3688A
:100DB0005A1EA260002B15D0029B5D1C33685A1C82
:100DC00032601B78029A029513707368013B73605E
:100DD000002B07DCC0235B00E3580498311C9847C4
:100DE000002844D10137032FB8D16368002B01D10B
:100DF0000A3363601021002763686069C91A3D4B9C
:100E0000C91801F081FE029DA368002B30D0326822
:100E100060691178405C00282AD030290BD1216804
:100E2000090508D5039A0137002A0BD0013A01338E
:100E30000392A36006E021682F4B0B4023601378D8
:100E40002B7001357368013B7360002B03DD336841
:100E50000133336007E0C0235B00E3580498311C82
:100E60009847002804D1A368013BA360CCE7002782
:100E70002368DB050ED5009B9D4207D9BE23013DAB
:100E80005B002978E3580498321C9847009B0120A6
:100E90009D4225D0102223681A401AD12A70636817
:100EA00004980099059EB047019B22681B68910633
:100EB00007D4D10705D501991A1D0A601B6818804F
:100EC00004E001991A1D0A601B681860E368013389
:100ED000E3600020009BED1A2369ED195D1925617F
:100EE0000BB0F0BD282F0200250F020045100200B4
:100EF000FFFAFFFFDC320200FFF6FFFF38B5051CEA
:100F00000020074C2060081C111C1A1CFBF710FC69
:100F1000431C03D12368002B00D02B6038BDC04692
:100F2000E42F0020F0B51E1C444B87B01B680590D1
:100F300002930B1C039101921C78029A5D1C1219FA
:100F400050780822104001D02B1CF5E72D2C04D13D
:100F50009D1C5C780123009304E000902B2C01D1B0
:100F60005C789D1C002E02D0102E0AD160E0302C3F
:100F70005CD120222B789343582B52D110266C78C9
:100F80000235009F311C7B1E9F412D4BFF18381CE2
:100F9000FEF732FA381C0491311CFEF7A7F9002243
:100FA000071C131C029909194978480701D5303CE0
:100FB00007E00320084017D03721012800D0203156
:100FC000641AB44210DA511C0BD0BB4207D802D1CC
:100FD000049A944203DC73430122E31801E00122E6
:100FE00052422C780135DDE7181C511C0BD10098BA
:100FF000059A431E9841124BC01822231360019B8F
:10100000002B0AD117E00099002900D05842019B1B
:10101000002B10D0039B002A00D06B1E019A136096
:1010200009E03024002EACD10826AAE70A26A8E75A
:10103000302CA6D19DE707B0F0BDC0466C2800203B
:10104000FFFFFF7FF0B51E1C3E4B87B01B68171CCF
:1010500002930B1C059004911C78029A5D1C1219D6
:10106000517808220A4001D02B1CF5E72D2C04D121
:101070009D1C5C780123019304E001922B2C01D18B
:101080005C789D1C002E02D0102E0AD154E0302C2A
:1010900050D120222B789343582B46D110266C78C0
:1010A00002350120311C4042FEF720F90390012057
:1010B000311C4042FEF7A0F900228C46131C029915
:1010C00009194978480701D5303C07E0032008405A
:1010D00017D03721012800D02031641AB44210DA29
:1010E000511C0BD0039A934206D801D1644503DC0E
:1010F00073430122E31801E0012252422C780135AA
:10110000DDE7181C511C04D122230599101C0B602B
:1011100003E00199002900D05842002F0FD0049B12
:10112000002A00D06B1E3B6009E03024002EB8D1AD
:101130000826B6E70A26B4E7302CB2D1A9E707B0F3
:10114000F0BDC0466C2800200B1CF7B54D6B443336
:101150000C1C9D421BD18026F600311CFEF7ECFCD6
:10116000002802D10120404225E0231C6063A663D1
:1011700046331A78104BC254231C45331A780F4B50
:10118000C2542A780E4BC254C018206012E08E6BF5
:10119000291C73001A1C019301F0E9FC051EE1D023
:1011A0008719381C291C321C01F0A5FA019B276005
:1011B0006563A3630020FEBDFF030000FE03000083
:1011C000FD030000F8B5061C0D1C141C4B1C02D1BD
:1011D0000120404261E0002804D08369002B01D146
:1011E000FEF7BAFB2D4B9C4201D1746808E02C4BF2
:1011F0009C4201D1B46803E02A4B9C4200D1F468C0
:101200002022A3899343A3819BB25A0713D4DA0601
:10121000DED508273B420AD0301C211CFEF74CFFCC
:101220000028D5D1A389A060BB43A381A06104227B
:10123000A3891343A381626BEDB26368002A10D0C7
:10124000A26B934206DA2368013B23601D7063683A
:10125000013320E0301C211CFFF776FF0028F2D07C
:10126000B6E721692268002909D08A4207D9511EB0
:101270000878A84203D10133216063600DE0236444
:10128000231C443363630323A363231C4633E263B9
:101290001D7023600123281C6360F8BDC42E02006A
:1012A000E42E0200042F020038B50023064C051C72
:1012B000081C111C236000F044F8431C03D1236870
:1012C000002B00D02B6038BDE42F002038B5002360
:1012D000064C051C081C2360FBF74EFA431C03D187
:1012E0002368002B00D02B6038BDC046E42F0020BF
:1012F00058220120014B40421A607047E42F002021
:1013000058220120014B40421A607047E42F002010
:101310000023021C10B503701132431C00241C7002
:1013200001339342FAD1418210BD08B500680368C9
:10133000DB68984708BD08B500680368DB69984713
:1013400008BD08B5022804D880239B014B6000200B
:1013500005E0FEF7B9FA092303600120404208BD09
:1013600008B50120FEF7B6FA7047704708B5FFF7D9
:10137000FCFFFFF7F9FFFBF7F5F808BD08B50028FB
:1013800001D000F001F8FEE700B59BB002A81221E1
:1013900000F045F808A8132100F041F80EA812212A
:1013A00000F03DF814A8132100F039F8059B039ACA
:1013B00096201A60099A0C9B1A600F9A129B1A6069
:1013C000159A179B01921A6000F039F8069B039A50
:1013D00096201A60099A0B9B1A600F9A119B019232
:1013E0001A60159A189B1A6000F029F8DEE770B5AC
:1013F0000D1C041C161CFBF71FFA6B1C0ED0636837
:10140000002E01D0E26800E02269201C0121136057
:1014100000F022F8201C002100F018F870BD08B57B
:101420000022FFF7E4FF08BD38B5041CFBF752FBB0
:10143000051CFBF74FFB401BA042FAD338BD08B593
:10144000FA239B005843FFF7EFFF08BD08B500786B
:1014500040B200F00EF808BD002901D0012907D1E3
:101460000023A022C356D205C133FF339B009950FD
:101470007047A0238000DB05C018E02310B50C24C2
:10148000DB00C2588900A243C250C2581143C15068
:1014900010BD03681A1CFC32D1680129FAD1002161
:1014A000D160A322D2009858C0B270472F23C04603
:1014B000C046C046C046C046C046C046C046C046FC
:1014C000C046C046C046C046C046013B002BEED1D8
:1014D000704738B50368041CDB68984763685A682E
:1014E0002368002A02D19B68984714E05B6815685E
:1014F000984763682D1A002D08DC5A689168596076
:101500001B68002BEAD050689847E7E75A682168C3
:1015100010680B69984738BD818000207047817141
:10152000704708B5006803681B68984708BD38B560
:10153000037E021C08209B070AD514680238002C81
:1015400006D020680B1C4569D18B201C928BA847C4
:1015500038BD37B5031C047E082004420DD01C683A
:101560000238002C09D0101C2568DA8B9B8B009167
:101570000190AD69201C0121A8473EBD66DF704780
:1015800048DF7047704708B5FFF7FAFF08BD10B590
:10159000041C01F02DF8201C10BD08B5FBF7AEFDB2
:1015A000002008BD08B5FCF7B3F9031E00D00523E1
:1015B000181C08BD08B5FCF7FBFE08BD08B5FCF714
:1015C000F7FE08BD08B5FBF787FC08BD08B5FCF7BA
:1015D000C5F808BD08B5FCF7C1F808BD08B5FBF7AC
:1015E00095FE08BD08B5FBF791FE08BD02207047C7
:1015F00090DF704795DF704797DF70474030007885
:10160000431E9841C0B27047FC3081657047FC3082
:101610008166704750300078431E9841C0B27047D1
:1016200008B5081C111C1A1CFFF7E4FF031C00205E
:10163000834204D0113B5A425A410630801A08BDF9
:1016400013B5049C10300094059C0194FBF708FC32
:1016500016BDF0B5041C0F1C8BB0039305AD0368D9
:101660000021281C1E680292FFF752FE039B019581
:101670000093201C391C029A0023B0470BB0F0BD28
:1016800010B5041C03685B689847231C0022403394
:101690001A70904205D0BC339B6D934201D0A08854
:1016A000984710BD08B5FFF7EBFF08BD08B510302F
:1016B000FFF7E6FF08BD70DF704771DF704760DF3E
:1016C000704708B5FDF760F808BD08B5FCF7A4F849
:1016D000002008BD704770DF704771DF704772DF10
:1016E000704773DF704774DF704775DF704776DFD0
:1016F000704777DF704778DF704779DF70477ADFB0
:1017000070477BDF70477CDF70477DDF704786DF87
:10171000704787DF704788DF7047022070470220DC
:101720007047002070470020704702207047022059
:101730007047022070470220704702207047022045
:101740007047022070470220704702207047022035
:101750007047022070470220704702207047002324
:1017600013607047022070470220704714207047B2
:1017700064207047A020800170471FB50C1C68468C
:101780000021102200F0D4FF0123A2796846134003
:101790006A4613702388138163885381A3889381D9
:1017A000FFF7B5FF031C5A1E934103205B4218400C
:1017B00004B010BD08B5FFF7ACFF031E00D0052331
:1017C000181C08BD10B5041CFFF78DFF032300286B
:1017D00006D1231C012158331A788A431A70031C3E
:1017E000181C10BD031C10B5FC2458331878044095
:1017F0001C703B239A4200D0283B081C191CFFF7A1
:1018000076FF031C5A1E934103205B42184010BD13
:101810000A1C011C08B50368BC3109881B6A98477B
:1018200008BD08B5081CFFF76CFF031C5A1E934146
:1018300003205B42184008BD08B5081CFFF75FFF96
:10184000031C5A1E934103205B42184008BD08B593
:10185000081C111CFFF749FF031E00D00323181CAE
:1018600008BD37B568460D1C141CFFF736FF03236F
:1018700000280DD1002D02D06B461B782B70231E43
:1018800006D06B46201C591C062200F034FF0023B2
:10189000181C3EBD08B5081C111CFFF736FF031EBF
:1018A00000D00323181C08BD08B5081CFFF723FF50
:1018B000031E00D00323181C08BD08B5081CFFF741
:1018C0001CFF031E00D00323181C08BD08B5081C0C
:1018D000FFF70FFF0023984203D00533112800D0F3
:1018E000023B181C08BD112337B5081C01AD2B7035
:1018F0000C1C00F0D0FF211C82B2281CFFF703FF54
:10190000031E00D00323181C3EBD13B50324A142BF
:101910000ED86B461970581C111C062200F0EBFE05
:1019200000206946FFF7D7FE431E9841404204401D
:10193000201C16BD38B5CD7F01201F2D10D8002DDD
:1019400001D103200CE00C1C081CD37F291CFFF7DD
:10195000C6FE0028F5D1208CFFF7CDFE0028F0D17F
:1019600038BD011C031C1F3100221A7001338B4249
:10197000FAD180239B00C2770384704710B5002101
:101980001F22041C00F0D4FE0023E37710BD38B5FD
:10199000051CFBF7BBFC6C30041C2368002B02D039
:1019A000281C984709E06068002806D0A369002B2E
:1019B00003D0211C2A1C08319847E469002CECD183
:1019C00038BDBC3001807047BC3000887047A0DF54
:1019D0007047A4DF7047A5DF7047A6DF7047A8DF18
:1019E0007047A9DF7047022070470220704702202D
:1019F0007047022070470220704702207047022083
:101A000070470020704737B500206D46069C009057
:101A1000208801932880081C111C6A46FFF7DBFF11
:101A20000323002802D12B882380031C181C3EBDF1
:101A3000F8B503680F1C161C9D69041CFBF766FCB7
:101A4000FFF7C2FF3A1C011C331C201CA847F8BD3D
:101A500010B5041CFBF7FEFC201C00F0C9FD201C87
:101A600010BD10B5041CFBF705FD201C00F0C0FDE7
:101A7000201C10BD10B5041CFBF70CFD201C00F051
:101A8000B7FD201C10BDF0B5051CD78B0022467990
:101A900085B07C35B24219D208352C1C083C24880C
:101AA000BC4211D10E251C1C02230F32D200821819
:101AB0006D4412892B80036803AE00959F68331C28
:101AC000B847021E04D00DE00132E3E7042009E02C
