:020000021000EC
:10C0000000400020D1CA01000DCB01000FCB010080
:10C010000000000000000000000000000000000020
:10C0200000000000000000000000000011CB010033
:10C03000000000000000000013CB010015CB010040
:10C0400017CB010017CB010041CC010017CB010039
:10C0500017CB01000000000017CB010017CB010037
:10C0600017CB010017CB010017CB010017CB010044
:10C0700017CB010017CB010017CB010017CB010034
:10C0800017CB0100E5CC010017CB010017CB010055
:10C0900017CB010085D20100BDDB010017CB0100E9
:10C0A00017CB010017CB01000000000000000000CA
:10C0B0000000000000000000000000000000000080
:10C0C00010B5064C2378002B07D1054B002B02D06E
:10C0D000044800E000BF0123237010BD8028002029
:10C0E000000000008039020008B5084B002B03D087
:10C0F0000748084900E000BF07480368002B00D14B
:10C1000008BD064B002BFBD09847F9E70000000064
:10C1100080390200842800208028002000000000D0
:10C12000164B002B00D1144B9D46402292029A1AC6
:10C13000924600218B460F461348144A121A06F005
:10C1400046FD0F4B002B00D098470E4B002B00D024
:10C1500098470020002104000D000D48002802D05F
:10C160000C4800E000BF03F097FE2000290005F016
:10C1700074FB03F0DFFDC046000008000040002013
:10C18000000000000000000080280020B42F0020E4
:10C19000000000000000000038B5041C0D1E0368FC
:10C1A00002D15B69984708E09B689847854204D2B2
:10C1B0002368201C9B689847051CFA208000684370
:10C1C000024903F0D3F9E08038BDC0467102000097
:10C1D0004C2230B58BB002AB374C9A804A3A9A71F8
:10C1E0001332DA710294354A52BA1A83D1221201FB
:10C1F00052BA5A83C82232491A7704A8B83A06F0CC
:10C20000C9FC201C05F00EFB6B460121DA1D06233C
:10C21000051C13700A300B1C05F0AAFA002802D185
:10C22000281C05F0CBFA029805F0FCFA03AAFF21BE
:10C23000192305F0CCFA029805F0F4FAFA25032345
:10C24000AD000371201C05F0EDFA291CFFF7A4FFD7
:10C25000201C05F0E7FA1B4BC088291C584303F04B
:10C2600015FAA84201D1184800E0184803F006FF6B
:10C27000201C05F0D7FA00230381201C05F0D2FA18
:10C2800003891148002B00D0104803F0F7FE201C52
:10C2900005F0C8FA05F0B3FA031E06D10A4803F008
:10C2A000EDFE0B4803F0EAFE04E00A480A493F228B
:10C2B00003F0CAFE0BB030BDB428002062040000B9
:10C2C000E733020071020000F73302000434020079
:10C2D00011340200223402004D340200F0B52C4D1E
:10C2E0008BB0281C05F09EFA172203686A44111CC3
:10C2F0005B6806AA9847281C05F094FA0368002199
:10C300001B68244A9847031E35D1234F08AC381CBC
:10C3100003F0B4FE281C05F085FA172203686A446E
:10C32000111C5B68221C9847061E28D1381C03F09C
:10C33000A5FE1A4803F0A2FE6423194F009301934F
:10C3400002931A1C381C6E2103F07EFEE0782178DF
:10C350006278A37800902079019060790290381C6F
:10C3600003F072FE281C05F05DFA0368311C1B689F
:10C3700006AA984709E00B480B494C2203E04E22DD
:10C38000331C0848094903F05FFE0BB0F0BDC046FE
:10C39000B4280020E1330200F73302001134020018
:10C3A000A2340200223402006A340200B5340200D2
:10C3B00010B5104C201C05F035FA00230381201C19
:10C3C00005F030FAFA214900FFF7E6FE201C05F0DF
:10C3D00029FA05F014FA031E06D1074803F04EFEB1
:10C3E000064803F04BFE04E0054806495C2203F0D2
:10C3F0002BFE10BDB4280020F733020011340200D8
:10C40000223402004D340200F7B5484C201C05F0E0
:10C4100009FA05F0FEF9201C05F004FA0023038157
:10C42000201C05F0FFF90623012101AA1370051C49
:10C430000B1C0A3005F09CF9031E70D1281C05F076
:10C44000BDF9031E6BD13A4DA227281C03F016FE3E
:10C45000201C05F0E7F9061C03687F01DB6B391C23
:10C460009847301C6B460A309A1D07840223192115
:10C47000178005F07DF9031E1BD1301C05F09EF9D5
:10C48000031E16D1281C03F0F9FD201C05F0CAF983
:10C490006B460A215A1D061C01234018117005F035
:10C4A00067F9031E17D1301C05F088F9031E04D06C
:10C4B00011E0204820496A2234E0281C03F0DEFD08
:10C4C000201C05F0AFF9052316211C4A05F07FF961
:10C4D000031E04D01BE0174819496B2222E0281CD8
:10C4E00003F0CCFD201C05F09DF9FA214900FFF76F
:10C4F00053FE201C05F096F905F081F9031E0AD1C0
:10C50000281C03F0BBFD0F4803F0B8FD0CE0094800
:10C510000D496E2206E007480C49712202E06922AB
:10C5200004480B4903F090FDF7BDC046B428002035
:10C53000F733020022340200E8340200CD37020053
:10C540003435020011340200663502004D34020019
:10C55000DD35020070B52F4C201C05F063F905F0A5
:10C5600058F9201C05F05EF9051C343005F01DF962
:10C57000281C05F023F9201C05F054F90023038141
:10C58000201C05F04FF902230371201C05F04AF925
:10C5900005231621204A05F01AF9031E34D11F4D38
:10C5A000281C03F06BFD201C05F03CF90523061C3C
:10C5B000162134301A4A05F0DBF8031E1CD1301C5A
:10C5C00005F0FCF8031E17D1281C03F057FD201CB2
:10C5D00005F028F9FA214900FFF7DEFD201C05F0DF
:10C5E00021F905F00CF9031E0AD1281C03F046FDC1
:10C5F0000C4803F043FD0CE00B480C49842206E094
:10C6000009480B49872202E081220748094903F0C3
:10C610001BFD70BDB4280020DC330200F73302009C
:10C62000C837020011340200223402005B360200D7
:10C630004D3402006635020038B5144C201C05F05C
:10C64000F1F805F0E6F8201C05F0ECF8051C343094
:10C6500005F0ABF8281C05F0B1F8201C05F0E2F855
:10C6600005230381201C05F0DDF805F0C8F8031E42
:10C6700006D1074803F002FD064803F0FFFC04E082
:10C6800005480649952203F0DFFC38BDB428002098
:10C69000F733020011340200223402004D3402004C
:10C6A00038B5154C201C05F0BDF803685B69984748
:10C6B000201C05F0B7F805F0ACF8201C05F0B2F826
:10C6C000051C343005F071F8281C05F077F8201CA3
:10C6D00005F0A8F800230381201C05F0A3F8FA2137
:10C6E0008900FFF759FD201C05F09CF81621034A2C
:10C6F000052305F06CF838BDB4280020C3370200CC
:10C7000038B51A4C201C05F08DF805F082F8206829
:10C7100003685B689847031E09D1154D281C03F078
:10C72000ADFC201C05F06FF9031E04D018E0114881
:10C730001149AB2217E0281C03F0A0FC201C05F0D7
:10C7400071F805F05CF8031E06D1281C03F096FC76
:10C750000A4803F093FC08E006480949AD2202E0CC
:10C76000AC220448074903F06FFC38BDB428002010
:10C77000F733020022340200D036020011340200E6
:10C780004D340200DF36020000B58FB001A9244805
:10C7900003F020FD01A8234906F0C2FA002802D1C7
:10C7A000FFF706FE34E001A81F4906F0B9FA002899
:10C7B00002D1FFF729FE2BE001A81C4906F0B0FAD0
:10C7C000002802D1FFF738FF22E001A8184906F03F
:10C7D000A7FA002802D1FFF7BDFE19E001A815490C
:10C7E00006F09EFA002802D1FFF7F2FC10E001A843
:10C7F000114906F095FA002802D1FFF76FFD07E016
:10C8000001A80E4906F08CFA002801D1FFF778FF45
:10C8100069460B4803F0DEFCFFF742FFB6E7C0466F
:10C82000EA360200ED360200FC3602000A3702004A
:10C83000153702001E370200253702002D3702008F
:10C840003637020030B5174D85B0281C05F0DBF8EF
:10C85000002816D1281C04F0E5FF6A460368D11DA4
:10C860005B6802AA984700280BD1281C04F0DAFF65
:10C870000323806D1840041E05D00B48E32103F00C
:10C88000E3FB01200BE0286803689B689847011CC4
:10C89000064803F0D9FB064803F0F0FB201C05B066
:10C8A00030BDC046B4280020393702006737020087
:10C8B000F733020010B588B0FFF7C4FF041C1A4814
:10C8C00003F0DCFB194805A903F084FC002C05D01B
:10C8D000174803F0D3FB0120404223E0154804F041
:10C8E000A1FF1321036806AC5B686944221C9847CA
:10C8F000031E10D1104803F0C1FBE0782178627864
:10C90000A378009020790190607902900B4803F0A1
:10C910009BFBFFF739FF802209480A49520003F0C8
:10C9200093FB012008B010BD6C37020036370200BF
:10C9300075370200B4280020F7330200A234020049
:10C94000223402009737020010B500F057FB064B67
:10C95000064C18601822201C002106F038F9201C13
:10C96000122104F0D3FF10BDB42800209C28002021
:10C9700008B5054B1B68002B04D1044809210B2284
:10C9800000F0FEF808BDC046B8290020A82F0020FE
:10C9900008B5031C0020022B0DDD0749033B9B005B
:10C9A0005A585850824204D01368101C5B6898474C
:10C9B00001E00120404208BDB828002070B50C1CE1
:10C9C000151C022810DC0F4B1B68002B01D1FFF750
:10C9D000CFFF6619B44205D021780B4800F056F914
:10C9E0000134F7E7281C0BE00338084B8000C058DF
:10C9F000002803D003681B68984701E001204042EB
:10CA000070BDC046B8290020A82F0020B8280020FB
:10CA100010B50C1C02280BDC0C4B1B68002B01D141
:10CA2000FFF7A6FF0A4804F0ABFF207001200BE0DF
:10CA30000338084B8000C058002803D003689B6867
:10CA4000984701E00120404210BDC046B8290020AF
:10CA5000A82F0020B828002008B5031C0120022BB5
:10CA60000BDD033B054A9B009858002803D0036860
:10CA7000DB68984701E00120404208BDB82800204B
:10CA800008B5031C0020022B0BDD033B05489B006F
:10CA90001858002803D003681B69984701E001205B
:10CAA000404208BDB8280020074A13681818EFF361
:10CAB0000881884205D30C220120044B40421A60B1
:10CAC00001E01060181C704704280020B02F0020DF
:10CAD0000848026803210A4302600749074A084BD5
:10CAE0009B1A03DD043BC858D050FBDC0548804747
:10CAF0000548004724050040B43902000028002002
:10CB000080280020E5CE010021C10100FEE7FEE7FC
:10CB1000FEE7FEE7FEE7FEE701704B1C0AD00123AB
:10CB20008B404360044BC360044B0361044B43617F
:10CB3000044B83607047C046080500500C05005048
:10CB40001005005014050050012310B50A4ADC00FE
:10CB5000A458A14207DA013BDB00D3185A680168E8
:10CB6000064BCA5007E00133112BEFD18021026838
:10CB7000024B4905D15010BD90320200240500003F
:10CB8000F8B50F1C0121264BB9400360A023254CAA
:10CB9000DB05161C1A59051C0A4380211A511A5923
:10CBA00049000A43FF39B1401A511A598A431A51B0
:10CBB00019591D4A0A4096211A518901FFF7C4FFED
:10CBC000002204202B6819495A506C395850012111
:10CBD00099601960191CFC31CA6015495A506A6085
:10CBE000A1220821D2009950124A02319F501218F6
:10CBF00099501E517B1C03D0381C073904F0B0FE3D
:10CC0000731C03D0301C032104F0AAFE01220A4B3E
:10CC1000291C1A600948073205F0BCFFF8BDC04660
:10CC20000020004014050000FFFBFFFF6C05000022
:10CC30001C0500000C050000B8290020A82F0020CA
:10CC400008B5C1230D4A9B00D158090603D50C49EC
:10CC5000096A002908D1D3585B070DD5084B00217C
:10CC6000DB68002B01D107E00121064B1868002882
:10CC700002D0054B1B68984708BDC0460020004005
:10CC8000FC200040BC290020C029002003681A1C99
:10CC9000FC32106A0128FAD100201062014AC9B2A0
:10CCA000995070471C0500000A480B4982680B4BDD
:10CCB000002A08D01A6801321A6000228260D2224B
:10CCC000022092008850064A1B688858190A1B06E1
:10CCD00018437047FC10014000100140C829002093
:10CCE00004050000174B70B59A68002A0AD016494F
:10CCF00002200A6801320A6000229A60D222134997
:10CD0000920088505B6C114C002B19D0104E337878
:10CD1000002B15D00F4B1D68FFF7C6FF2D1A002DF5
:10CD20000EDC0021074BD2225964802392005B0263
:10CD3000A3503170C22189006350A35000F0CAF89B
:10CD400070BDC046FC100140C82900200010014001
:10CD5000F32E0020C429002038B5124C2378002B74
:10CD60001ED1A121C420104AC9005350C139023339
:10CD7000FF395350443953500C4980000D580C4B27
:10CD80002B40C0252D022B430B50802301259138C9
:10CD90009B02FF380B500B60156004F0FEFD257000
:10CDA00038BDC046F22E00200010014000E100E036
:10CDB000FF00FFFF08B5084B1B78002B01D1FFF7E0
:10CDC000CBFFFFF771FF054A002302F071FD490414
:10CDD000C00B084308BDC046F22E002040420F00A1
:10CDE000F8B5284B041C1B78002B01D1FFF7B4FFCA
:10CDF000FFF75AFF244A002302F05AFD4B04C00BF0
:10CE0000CF0B18430026221C0023802192197B415E
:10CE10000906884205D9002C03DB002001211218E5
:10CE20004B41D9030023540CD003184A21438018E6
:10CE300059410023144A02F01BFD154D041C2B78A8
:10CE4000144E002B02D0336898421AD0FFF72CFF03
:10CE5000201A022802DCFFF727FF841CA8212202E7
:10CE60000D4B120AC9005A502A783460002A08D1A2
:10CE700001322A708022F9395202FF395A5044395E
:10CE80005A50F8BDF22E002040420F003F420F00E2
:10CE9000F32E0020C429002000100140074B1A780F
:10CEA000002A09D08021C220054A49028000115081
:10CEB0004030115000221A707047C046F32E0020F7
:10CEC000001001400022024B9A605A647047C0462D
:10CED000FC10014008B5024804F072FD08BDC046D0
:10CEE0002C330200234A10B51378111C012B19D1E1
:10CEF000214B1B681B0715D1204BE0241A68F02337
:10CF0000101C184022420BD11D4A12681A4209D146
:10CF10001C4A1D4B1A6080221C4B12021A6001E051
:10CF20003028F1D00B68DBB2012B0DD1124A126808
:10CF3000120709D1F021114A12680A40402A03D190
:10CF40000F4A12680A420DD08022A3230021D20585
:10CF5000DB00D1500E4B9960013191609A68002A34
:10CF6000FCD005E0C1228021D200C9058B50EBE73F
:10CF700010BDC046E00F00F0E40F00F0E80F00F035
:10CF8000EC0F00F0DFFF07C004050040186C004004
:10CF9000FC0000407FB5144D144C2B78002B20D1A1
:10CFA00002AE301C04F035FD002815D17388592BD2
:10CFB00012D13378B288D91F012904D80092201CDD
:10CFC00020210B4A03E0201C20210092094A03F093
:10CFD00037F901232B7004E0201C0749202205F0BB
:10CFE000B0FE201C04B070BDF42E0020F52E0020F1
:10CFF000D2370200EF3702001438020000487047B1
:10D00000D429002008B5044B044808330449054AD4
:10D01000036005F040FD08BD88300200D4290020DF
:10D020001B1A02000028002000487047FFFF000084
:10D03000F0B50C78021C87B00220012C29D04B8857
:10D04000032C06D1A03B14489BB2834205D9032090
:10D050001FE0203B9BB21148F7E78D88104B9D42A3
:10D06000F5D80E1C171C68461822002105F0AFFDEC
:10D070006B466A461C70738868461382558204F0BA
:10D0800006FD0028E3D13A1C0121583213780B43E6
:10D09000137007B0F0BDC046603F0000E03F0000E5
:10D0A000FF3F000030B589B01C1C6B461A70581C3D
:10D0B00006220C9D05F06EFD02AA002C07D02388E5
:10D0C000138063885380A3889380E38806E032232B
:10D0D0001380DB185380F5339480FF33D380FC2317
:10D0E00004A9087803400B7000234B609D4206D0D2
:10D0F0002B880B816B884B81AB888B8106E0FA23F0
:10D100005B000B812D3BFF3B4B818D81684604F01A
:10D11000D8FC031C0020834214D00630082B11D009
:10D1200005D80130042B0DD0834208D109E0052039
:10D13000112B07D0044A934203D0102B01D00920B1
:10D1400000E0042009B030BD02320000024B0B6049
:10D15000092313607047C0461C380200012008B53F
:10D16000011C044A00F09EF8031E00D00923181C7D
:10D1700008BDC046291D0200F7B50127354E364CC3
:10D1800035683D4063D1354B201C2360A0232571B9
:10D19000E38025810A3004F0BAFD8021201CC901FA
:10D1A0000A1C2B1C2C30009502F06CF9201C34302A
:10D1B00004F0ADFD221C0221583213782566BB43D2
:10D1C0008B431370231C5C331D706566A566256751
:10D1D0002A1C00237432A21801351370102DF7D1C8
:10D1E000221C0832D367221C88321360221C903222
:10D1F000E3661360191C00229431611801330A7030
:10D20000102BF7D1231CA4331A60231CA8331A60F7
:10D21000231C201C8C331A600421AC3002F068F906
:10D22000201C0A3004F0C1FA201C343004F0BDFA8E
:10D230000B4B012208332360231C5242BC331A805B
:10D240000123201C0749084A336005F024FC201CF8
:10D25000FEBDC046982A0020D8290020D030020008
:10D26000303102006DD201000028002010B5041CEE
:10D27000034B0360AC3002F05BF9201C10BDC046CC
:10D28000D03002000120054A08B513785840044BFD
:10D2900010701B68002B00D0984708BD152F002088
:10D2A0009C2A002038B50C4B051C15200C1C1A605C
:10D2B00004F05CFD00280ED11530291C04F058FD47
:10D2C000002808D1153004F04FFD002803D10330A9
:10D2D000211C04F04FFD38BD9C2A002073B50E1CA4
:10D2E000151C0268009394682B1C321C0149A0474E
:10D2F00076BDC046FFFF000073B50E1C151C06AAC4
:10D30000117802680093019114692B1C321C0149A9
:10D31000A04776BDFFFF000038B5064B041C036034
:10D320004068002804D0C56905F0B1FB281CF8E767
:10D33000201C38BDA031020038B5064B041C036028
:10D340004068002804D0C56905F0A1FB281CF8E757
:10D35000201C38BDB031020038B5064B041C0360F8
:10D360004068002804D0C56905F091FB281CF8E747
:10D37000201C38BDC031020010B5041C074B0360EF
:10D380001830FFF7E9FF201C1030FFF7D5FF201CF5
:10D390000830FFF7C1FF201C10BDC046D03102008D
:10D3A000F0B589B001930FAB151C1C780E1C071C3F
:10D3B000FFF7E2FE04F0D5FC002302930EAB1B88BE
:10D3C00002AA1380019B0393002C15D13B1C7A7990
:10D3D0007C3300E0013494420ED20833191C083922
:10D3E0000988A942F6D130220A34A4003F197B688B
:10D3F0000133DB7F13420AD102AA301C291C04F03E
:10D40000BDFC421E904103234042034027E0B0424E
:10D41000F2D00222DB06DB0F04A9D31A8B700023A3
:10D420008B80019B0D80CB600EAB8B6004F0AAFC5F
:10D4300080B2002812D008280FD00A4B98420CD096
:10D4400011280AD0084B984207D0301C291C02AA88
:10D4500004F094FC0323002801D10520031C181CB0
:10D4600009B0F0BD0330000001340000F0B5051C28
:10D4700095B0081C2624099101F030FA04ABE41899
:10D480000E900EA90120221C04F076FC002801D089
:10D490000320C0E02388099A08909383099B089A87
:10D4A0001B7D934215D9099B9B690A93089B0A9A95
:10D4B0009B009C586369002B10D1238B002B0DD14E
:10D4C000631CDB7F022B09D108980130C3B208939B
:10D4D000E4E72B79002001332B719CE0201C01F044
:10D4E000FDF900260E900B960A96231C28331B7814
:10D4F000B3421AD9626AB3009F5800230FAA13706F
:10D5000000200FA9CA1801335070102BF8D1434BDB
:10D51000381C4B8204F0BDFC002803D07B690A93C1
:10D52000BB8B0B930136F6B2DFE76169631CDA7FD0
:10D53000A31CDB7F0091218B00200191618B029164
:10D540000A9903910B990491211C293109780591BD
:10D55000211C2A310978069169790F31C9006918AF
:10D56000043107910EA905F0C0F8002890D16B791D
:10D57000071C1A1C0A3292000F33AA18DB005460F1
:10D58000EB189B88E3836B7901336B71231C283381
:10D590001B78BB4298D9626ABB009E5800230FAA31
:10D5A000137000200FA9CA1801335070102BF8D146
:10D5B0001A4B301C4B8204F06CFC0A90002827D1D7
:10D5C000301C01F08BF9728B338B00929E2252003B
:10D5D000AA5C0E909C325200AA18063201920A9858
:10D5E0000EA9726905F030F9002800D050E79E239B
:10D5F0009E215B00EA5C4900531CDBB246326B544F
:10D6000092009C33AA185B005660EB18DB88F3830A
:10D61000781CC7B2BAE715B0F0BDC04601290000BA
:10D62000012370B5254D264C2A68134044D1254A64
:10D630002371A260244A63712261244AE360A261DB
:10D64000234A63610832E36123626362A36222605A
:10D650000026E2180433D662502BF9D1A0197C3091
:10D6600000210822083605F0B2FAA02EF6D1221CBD
:10D670000023FC32136253629362D36213635363D9
:10D680009363D3639E225200A3540232A352023208
:10D69000A3520232A3520232A3520232A3520232E6
:10D6A000A3520232A3520232A352201C0133094971
:10D6B000094A2B6005F0EFF9201C70BDA02A00205C
:10D6C000A42A0020A0310200B0310200C0310200C3
:10D6D000F031020079D3010000280020F0B5151CBC
:10D6E0001E1C0F1C85B001AC00210C22201C05F073
:10D6F0006EFA0A9B281CE3800B9B211CA3602770F9
:10D70000668004F05DFD031C0020834207D00530D5
:10D71000112B04D0034A9B1858425841063005B0DB
:10D72000F0BDC046FCCFFFFFF7B501930368041CB2
:10D730005B680E1C171C9847051C0620002D2BD17A
:10D74000019B089963631422E761201805F022FA0F
:10D75000201C09991422203005F01CFA231C0121F9
:10D760003D33A680013B5D70301C1D7019712A1C71
:10D7700004F022FD061C281C002E0DD02368201C5E
:10D780009B6898470520112E06D0044B9E4202D07C
:10D790000130072E00D10420FEBDC046023000003B
:10D7A000F8B501232B4A2C4C1168171C0B404FD1A4
:10D7B0002A4A251C08322260221C30321370221D96
:10D7C000D387274A261C2261221C4C321370221C4C
:10D7D0004D321370221C4E321370221C4F321370C4
:10D7E000221C5032A3752385A46413705235B236BF
:10D7F000281C002104F011FD0023AB82EB821835B8
:10D80000B542F5D1261CB4360025301C002120225B
:10D8100005F0DDF9301D291C04F0FFFC114B3576B5
:10D820007583B58320369E42EED1231C221CFC3327
:10D8300010329D63DD631D645D649D64DA641D6563
:10D840005D659D65DD651D665A669D6601233B60CD
:10D85000201CF8BDF42B0020F82B002030320200F1
:10D86000203202002C2D0020F0B5041C8BB000F0FB
:10D870004FFE201C04F020FD208810380B2800D912
:10D8800096E001F069FE0636959595519595955B64
:10D890009564A588267DFFF76FFC291C04F05EFACD
:10D8A000231C16330193FFF767FC021C0227A379A0
:10D8B00058329C461378617B3B43476E1370002FB0
:10D8C00076D0624604AB1D809E70DA709972019B1F
:10D8D000E11D05A80622099305F05CF9211C0B2027
:10D8E00004ABC0180E31062205F054F904A8B8475D
:10D8F0005EE0A788FFF740FC314904F02FFAA679D3
:10D90000FFF73AFC021C022158321378051C8B43A6
:10D910001370836E002B02D0381C311C9847281CD2
:10D92000AC3005F089F843E001F02AF84369A28899
:10D93000A11D002B3CD0101C984739E0FFF71CFCC0
:10D94000036EA279002B33D0101C984730E0FFF70C
:10D9500013FC0126A37B051C5A07920F1E4001925F
:10D96000DB080622E11D04A8677B029305F012F98B
:10D970006A46127904AB1A726A46127A9F71DE7196
:10D980005A72231C0F3307938C352B68002B02D05F
:10D9900004A8984709E06868002806D0AB69002B06
:10D9A00003D0291C04AA08319847ED69002DECD159
:10D9B000FFF736FE211C04F0B4FA0BB0F0BDC046F0
:10D9C000FFFF00001FB5A3238022DB00D205D35840
:10D9D0000820DB0700D405301C4948221C4B00F00E
:10D9E000A9F800280AD080B2002807D1BFF34F8FD2
:10D9F000184A194BDA60BFF34F8FFEE7002302A8E5
:10DA0000029343600133037004F04AFC002801D004
:10DA1000072417E0684604F041FC0028F8D1694665
:10DA200004F03AFC0028F3D10C4800F0B3F884B2BB
:10DA3000002C07D10A4800F0B7F884B2002C01D1BD
:10DA400000F0B4FF201C04B010BDC046602D0020C3
:10DA5000AD2202000400FA0500ED00E069D80100E3
:10DA6000A522020080B2002807D1BFF34F8F034ADE
:10DA7000034BDA60BFF34F8FFEE770470400FA05EF
:10DA800000ED00E0F0B5264B85B01B78002B45D0AB
:10DA9000244B254E1D6834686A4255416242544108
:10DAA000EDB2E4B20193002D36D103A804F081FC5D
:10DAB00005280CD0002804D0291C2A1CFFF7D2FF0F
:10DAC00006E0019B03981B680093984700E001253E
:10DAD000002C1ED1154B03A91B8801240B80144B6D
:10DAE0001B68181C009304F06AFC071E052F0BD05E
:10DAF000002805D000210A1CFFF7B4FF002403E032
:10DB00000098336898473C1C002DCCD0002CCAD01C
:10DB100004E0002D02D1C6E7002CDBD005B0F0BD3B
:10DB2000162F0020AC2D0020B02D0020E02E00206C
:10DB3000A82D002038B5041C0720002913D08D071C
:10DB400011D1094801600949201C0A80084A094985
:10DB5000136004F030FC002805D10122064B16307A
:10DB60001A7004F024FC38BDA82D0020E02E0020FF
:10DB7000B42D0020C3230200162F002008B504F0A6
:10DB80001CFC031C5A1E9341014ADBB2137008BDF2
:10DB9000162F00200E23002802D0024B186000230D
:10DBA000181C7047B02D00200E23002802D0024B15
:10DBB00018600023181C7047AC2D002008B5074BD7
:10DBC0001B68002B07D09847002806D000210A1CAC
:10DBD000FFF748FF01E0FFF755FF08BDB42D002017
:10DBE00073B5002402268180051C3F300470013883
:10DBF000867001AE0470081C311C3280738004F002
:10DC0000E8FB061C201CA6420CD0281C04F0E5FBF7
:10DC10000520112E06D0044B9E4202D00130102E5A
:10DC200000D1042076BDC04602300000F0B5041CCF
:10DC300089B0231C403301931B78012B64D1251C30
:10DC4000201C3C353D302B780278934243D2002192
:10DC5000A71D03A804F0E1FA381C03A904F019F980
:10DC6000002809D118212E78381C714361184231DF
:10DC700004F00FF900282BD0E369002B11D000210C
:10DC800003A804F0CAFA201C03A9203004F001F90B
:10DC9000002806D018232878584320184230E3691A
:10DCA0009847019B1B78012B0ED1636B002B0BD087
:10DCB00018232A78A1885343E3185033DA88201CAC
:10DCC0001B89FFF78DFFB4E72B7801332B70B0E78A
:10DCD00001362E70ADE7002A16D0002B14D0182282
:10DCE000013B53430022E31850331989074B02705C
:10DCF0002A70994203D1201C04F0B3FA04E0A088F2
:10DD000004F065FB0028F6D109B0F0BDFFFF00006C
:10DD100073B5051C2B686C69002B1CD0231C0322D7
:10DD200040331A700F49013268466E6804F032FFC2
:10DD300018237343E3185033D98801AA11801B8933
:10DD400069465380A08804F046FB002809D0281CAF
:10DD500004F04FFBDEE740342378032B01D1023B74
:10DD6000237073BDD433020073B5061C3368746925
:10DD7000002B1DD0231C0422114940331A7089182E
:10DD80006846756804F006FF00236D01651901936C
:10DD9000B835EB8801AA138001335380A088694607
:10DDA00004F019FB002809D0301C04F034FBDDE737
:10DDB00040342378042B01D1023B237073BDC0464D
:10DDC000D43302007FB5031C40331B78041C032BA3
:10DDD00030D1314B0A689A4227D100268A686946B9
:10DDE000931BDB7B73540136102EF8D1251C25358F
:10DDF000FF35281C04F0FDFA182358432418231C6F
:10DE00000122201C40339A706946321C433004F0D2
:10DE1000C1FE6B466A469B78D2781B02503413438E
:10DE2000A380281CFFF774FF35E02530FF3004F095
:10DE3000E0FA30E0042B2ED1184B0A689A4226D122
:10DE400000268A686946931B9B7C73540136102E0A
:10DE5000F8D1251C3D35FF35281C04F0DCFA4001C3
:10DE60002418231C0122201CA8331A706946321C76
:10DE7000A93004F08FFE6B466A469B78D2781B026D
:10DE8000B03413436381281CFFF76EFF03E03D307D
:10DE9000FF3004F0C0FA7FBD010010000100130044
:10DEA000F0B58BB004AB9C1D0E230C2203900191A6
:10DEB00023804B7806A95343234AD3181889221C80
:10DEC000032304F0D8FB00283AD11827019B1F4DEB
:10DED0005B7826885F4300933B1C0833EB18181CC3
:10DEE00006A9321C029304F046FE2C1C00280DD11A
:10DEF0000C22009B5343144AD318997A02231940E9
:10DF00001ED1E819182204F062FE19E0E8194368EE
:10DF10000F4F002B00D10F4F18250322009B06A99D
:10DF20006B43E250E3185E60321C029804F032FE4C
:10DF3000019B039859782A1C694338236118B84714
:10DF400000200BB0F0BDC046E22E0020442E002081
:10DF500009F101008DF00100F0B585B0041C0E1C24
:10DF600002AA8178214801F06BF800283CD10C23EB
:10DF700061781F4A4B43D3189B7A1E4F01925B0670
:10DF800005D4022E03D01C4F012E00D01B4F1C25A0
:10DF9000A1781B4B694302A859182A1C0023B847D3
:10DFA000002813D1022E1FD00C234021627802A832
:10DFB0005343019AD3189A7A8A439A726178114B23
:10DFC00069432A1C59182B1CB84701E0022E0BD0BC
:10DFD0000C23227802A853430B4A211CD3189B7AA6
:10DFE0000A4A9B009B58984705B0F0BD6C2E002054
:10DFF000E22E002009F101008DF001007B260200D5
:10E00000B82D0020282E00205C2E00204433020072
:10E01000F7B518220190437829485A4381184C6873
:10E02000284F002C0FD00C2159437918897A4DB212
:10E03000002D07DA490605D4151C0835A6B2451986
:10E04000145802E00024261C251C0C225343FB1804
:10E050001889291C321C231C04F00BFB0B2818D137
:10E060000C22019B291C5B785343FB181889321C36
:10E07000012304F0FEFA00280ED00C21019B124A65
:10E080005B784B43FF18388904F0F1FA00280AD175
:10E0900015E0002803D100E00124002000E00B4837
:10E0A000012C0CD1E9E70222094BC318934303D09A
:10E0B000082801D0112801D1044800E00020FEBD4D
:10E0C000442E0020E22E0020FFFF000041800000CF
:10E0D000FECFFFFF70B51824031C4878094D60433C
:10E0E0000E1C2818191C221C382301F04BF800289C
:10E0F00006D173785C432C196368013300D16060EA
:10E1000070BDC046442E0020F0B5454C93B0246845
:10E11000002C00D181E0189C542C7ED80024161CC1
:10E12000FF221D1C03AB5A709A70DA701C70189B8A
:10E1300006AF009101903C700B950A93A1B239484B
:10E1400004AA00F07DFF002809D1019804A9082243
:10E1500004F011FD002802D103AB9C7002E00134F1
:10E16000042CEBD103ACA178FF2956D0009B042BE3
:10E170000AD1189A06AB542A01D1343A00E0402261
:10E180001A701A7803213AE0274BEB1A6F2B10D83C
:10E19000264B002E04D101228A40186810423CD040
:10E1A00001228A40196891432022196006AB1A7037
:10E1B0001FE01F4BEB1A1B2B09D8202206AB1A704D
:10E1C000002363700CAB0B9318230A9311E01948DA
:10E1D0002D1A172D21D830233B7000236370013393
:10E1E000E370154B997A0223194002D1182204F0EA
:10E1F000EEFC009A06AB032A0CD101211A780A43DF
:10E200001A7009AB0793064B201C1B6806A9321C29
:10E21000984702E01A780221F1E713B0F0BDC0463A
:10E220005C2E00206C2E0020B82D0020682E0020CF
:10E23000282E0020442E0020E22E002070B51C2441
:10E2400044430D4E051C30190021341906221130AB
:10E2500004F0BDFC201C0021102204F0B8FC0120B9
:10E26000FF23A840054A2374A376013BFF3B238389
:10E2700013688343136070BDB82D0020682E002002
:10E2800037B581B2051C6A46074800F0D9FE041E66
:10E2900008D16846542100F0C5FF041E02D1281C95
:10E2A000FFF7CCFF201C3EBD6C2E0020F0B585B0E2
:10E2B000002856D000252C4B041C1D605D729D72F9
:10E2C00001232A48291C8372023B07220381C3725F
:10E2D00004F07DFC2648291C182204F078FC281C38
:10E2E000FFF7ACFFFF22234BEA540135042DF6D192
:10E2F0006A465423204F9380204B6846391CD580B2
:10E30000009300F001FE3E1C00282BD101231C4D80
:10E3100024782B70002C1AD1A1B2301C02AA00F074
:10E320008FFE071E0CD11C22131C6343154802A943
:10E33000C0183B1C00F026FF002804D02F7011E00D
:10E3400000232B700EE00134042CE5D10AE06B466B
:10E350006A46DB889188381C594389B200F062FF15
:10E3600000E0094805B0F0BD5C2E0020E22E002040
:10E37000442E0020172F00206C2E002009E1010000
:10E380001B2F0020B82D00200E800000F8B5174B81
:10E390001B78002B24D0002824D0002922D00B6821
:10E3A000002B1FD0124D2C68002C1DD1061C281CE0
:10E3B0000F1C08C00531052204F0ECFB3B7902205C
:10E3C000AB72012304212A7A9A4302438A432A72B8
:10E3D000EA79134303438B43EB71201C347004E050
:10E3E000044802E0044800E00448F8BD1B2F002068
:10E3F0005C2E0020088000000E80000004800000D9
:10E40000154B1B78002B22D000281ED000291CD0D1
:10E410000378002B1BD1114B1B68002B17D04278BF
:10E42000002A16D10E4B9B7A012B12D024201840C3
:10E4300003D00123101C0B700CE05BB2002B02DA3E
:10E4400002230B7006E0087004E0064802E006486C
:10E4500000E006487047C0461B2F00205C2E0020BD
:10E46000E22E00200E8000000880000010800000D6
:10E47000104B10B51B78002B19D0002815D004784C
:10E48000002C14D10C4B1B68002B10D0201C1C231B
:10E4900063430A4AD3189B7EFF2B02D0201CFFF750
:10E4A000EFFE0134042CF2D102E0054800E00548FB
:10E4B00010BDC0461B2F00205C2E0020B82D002070
:10E4C0000E8000000880000013B5041C81786A46A5
:10E4D0000B4800F0B5FD002810D11C236078094AD4
:10E4E0005843694610181A1C00F04CFE064B074AA8
:10E4F0009B7A68469B009B58211C984713BDC046D9
:10E500006C2E0020282E00205C2E002054330200A8
:10E51000FF23F0B5BD4A8FB012780393002A00D1D3
:10E52000B2E1BB4A11680192002900D1ACE104AC10
:10E5300005AF6370A370E370031D7B602A23002284
:10E540003B810388061C2270B24D102B0BD0A97A98
:10E5500082880091890761D5AF498A4208D029890C
:10E5600091425BD104E00121AB7A0B4205D18BE1F2
:10E57000EA7AA2700022627050E0112362703B7050
:10E580008388871D2B810223281CAB720125391C2F
:10E59000072204F0FFFA737D1D4009D09F4A5B08F3
:10E5A000D35CFF2B2FD003932DE00135042D0FD02A
:10E5B0001C2068439A4B10301818391C072204F0AD
:10E5C000DAFA0028F1D103951DE0F3792B423ED110
:10E5D0000025019B05AE1B68201C311C2A1C984796
:10E5E0003378122B00D04FE18A48837A012B00D177
:10E5F0004AE101238372023B0381C3720021072297
:10E6000004F0E5FA40E10A21039B824ADBB2D372AF
:10E610009172201CA370FFF757FFD9E7172B47D142
:10E62000012204251427019B01995B7A00989343EA
:10E630004B72784B05A9A8430F709872B779191CD3
:10E64000002FC2D0D87AFFF71BFEB579C1E7A378B7
:10E65000FF2BBDD0082528438872F07A800706D5A5
:10E660001C2058436E4D2818857E95438576CA7ABE
:10E67000FF2AADD01C220D7869485A43022D09D0DB
:10E680008518281C0722103004F084FA2A1CAB7E5F
:10E69000022106E063498318498A1A1C1983012163
:10E6A0009B7E8B439376201C0121FFF755FC8FE75F
:10E6B000172B00D99AE0132B52D11323009A3B70E9
:10E6C0000F3B1343AB72EB7AFF2B24D100251C20A8
:10E6D0006843534B1818837EFF2B17D14D4B1A7884
:10E6E000031C1833022A07D0FD224A499A701030C1
:10E6F000F63A04F04FFA01E0FE229A7003AB1D7067
:10E70000039B444ADBB2A370D37210E00135042DA1
:10E71000DDD1454D0CE0162344480E22083000217F
:10E720003B7004F054FA4423009A1343AB72002563
:10E730000021384B0B91DA7A1C235343384A0D9150
:10E74000D3180C93374B09910893019B0A911A1D1A
:10E75000B08808AB03F087FF002800D139E793E0C9
:10E76000142B26D12B4FFB7AFF2B17D10023F189D5
:10E770001C225A432A488218128B8A420BD1082243
:10E78000009903930A43DBB2EB72AA72201CA370B8
:10E79000FFF79AFE02E00133042BE9D1FB7A002156
:10E7A000FF2B00D01F49B0881D4A002303F05DFFF6
:10E7B0006AE0112B68D10223009A9A43131CAA72B3
:10E7C000009A120707D55BB2002B0BDA201C002140
:10E7D000FFF7C2FB06E0A078FF2803D0FFF72EFD6D
:10E7E000FF23A3701023AB72023302E01C2B02D173
:10E7F00013233B70ECE6522B1CD1019B0C4A9B7AF5
:10E80000201C9B009B5898473EE0C0461B2F0020D1
:10E810005C2E0020E22E0020FFFF0000172F0020BA
:10E82000B82D0020282E002043800000442E002018
:10E8300034330200182B27D1B379112B15D1009B4B
:10E840001B0712D511480E220830002104F0BFF931
:10E850001623009A3B704A3313430222AB72019B8A
:10E860005B7A1343019A5372B2E68023009A5B42AB
:10E870001343AB7215233B70019B054A9B7A201C06
:10E880009B009B589847A3E60FB0F0BD442E002094
:10E890003433020030B5002912D00A78002A11D191
:10E8A0000A4B1B68002B0DD0FF23094C8B70258968
:10E8B000FA3B854207D14A70E37A8B70131C02E061
:10E8C000044B00E0044B181C30BDC0465C2E0020F9
:10E8D000E22E00200E80000008800000F0B5438A80
:10E8E00087B0029303780126002B3BD000228319C6
:10E8F0000193214B1D680393AA4216D011210023D6
:10E9000051431E4F79189C1E012C04D9019CCE5CEA
:10E91000E45CA64207D10133102BF4D111235A43F2
:10E92000BF183E7C1EE00132E6E7041C019803F0AC
:10E93000C4FE2378071C061C002B01D1123401945D
:10E94000082D0FD011246C430C4B01991C19201C6D
:10E95000102204F01FF90023A370E370039B01351C
:10E9600027741D6005AB9E705888029B000403430A
:10E97000181C07B0F0BDC046742E00201C2F0020CC
:10E980000121074A074813680B4007D143608360A1
:10E99000C36003614361044B116003607047C0466C
:10E9A000782E00207C2E0020603202001FB500234C
:10E9B00002AC0393283323806933FF336380E38001
:10E9C000803B01A8FF3B0D490522037003F08AFF3D
:10E9D00080B200280FD18020800003F07FFF80B23A
:10E9E000002808D1201C03F07BFF80B2002802D150
:10E9F00003F072FF80B204B010BDC046253802009B
:10EA0000142337B50849021C087858430B18181C02
:10EA1000DD88DC6819790095044D240164590C30B7
:10EA20005B69A04737BDC046942E0020C02E002051
:10EA3000F7B5664C1D1C2378071C002B06D1131C50
:10EA40002B4301D1023300E00123237023780320FC
:10EA5000013B052B00D9B8E0181C00950E1C151CB5
:10EA600000F07AFD032333705D968023584A5B05DE
:10EA70005169013105D05069196989B200F076FDFC
:10EA800000E05869802252051369116912699BB22E
:10EA9000013889B292B258437143920803F0AAFF39
:10EAA0000223002800D18FE08FE0081C03F0A4FFB0
:10EAB000002800D089E0002D2DD1009B002B26D10D
:10EAC0003B78042B21D1072322E080235B051969C1
:10EAD0003F4A89B24E43516901311ED050691969CC
:10EAE00089B200F043FD80235B051969013889B2C2
:10EAF00041432A1C301C03F07DFF002865D1009B98
:10EB0000002B04D13B78042B1AD0052300E004230A
:10EB10002370002059E0032356E05869E3E780237F
:10EB20005B051869910080B246437A88881992087B
:10EB3000396903F05FFF002847D1009B1D43C2D015
:10EB40000623E5E780235B051969950089B24E43EA
:10EB50007A88B61801921E4A76195169013106D099
:10EB60005069196989B200F001FD411E01E059693F
:10EB7000013980235B051B69019A9BB24B43AD1899
:10EB8000E918301C009A03F035FF0028BAD01CE0C9
:10EB900080230F4A5B055169013105D0506919691D
:10EBA00089B200F0E3FC00E0586980225205136945
:10EBB00011699BB20138584389B200F0D7FC03F0C9
:10EBC0001BFF002801D107232370FEBDA52F0020C5
:10EBD00000100010F7B514243D4A13785C43141953
:10EBE000211C009323790831271D8D680192042B85
:10EBF00018D0052B4BD00F20022B67D1354B208925
:10EC00001E886369B602E2889919334B4019921B3A
:10EC100080199A4201D8920801E08022520003F044
:10EC2000E9FE4EE0802649682C4A0B01D31818896A
:10EC30005A895B687605AB4204D1131C4343E288D2
:10EC4000934201D002290AD13169281C89B200F00F
:10EC50008DFC204B1B88C01803F0CEFE31E03169DB
:10EC6000281C89B200F082FC32693469431CA4B2CA
:10EC70005C43142392B24243011C0098AA1A4343F6
:10EC800001989208C318DB88EB18E31A15E0802678
:10EC900076053169281C89B200F068FC011C3269D4
:10ECA0002389306992B25D194A434B1C86B25E4398
:10ECB000E388AA1A5B199208F31A9B08381CFFF71D
:10ECC000B7FE002802D10123019A9370FEBDC04611
:10ECD000942E0020F02E0020FF030000C02E002004
:10ECE000F8B5134D061C6C7806A807880420022C82
:10ECF0001DD028782418E4B2012C01D9023CE4B2DA
:10ED0000142044432C196261221C26710C3241C923
:10ED100041C2E3802781AB78002B01D0002003E0C3
:10ED2000FFF758FF1128F9D06B7801336B70F8BDED
:10ED3000942E002008B5064B5B78002B01D10020F3
:10ED400005E0FFF747FF0028F9D01128F7D008BDEC
:10ED5000942E0020F7B5364B9A781C1C002A66D0FA
:10ED600000269E70334B1A781F1C082A04D10228F3
:10ED700000D0314B1E7044E0022803D0032856D146
:10ED80000D2042E014212D4D20782B884143013382
:10ED90009BB22B80611808790195022804D1CA889A
:10EDA0009B02934210DA2CE0052839D0042828D1A0
:10EDB000C988D01F454245418C46281C9B02311C06
:10EDC000634525DA002828D00026301C3E70FFF766
:10EDD00017FE1423012022785343E3181E71DE80AE
:10EDE000D8601E615E611E81019B1E806378013BBD
:10EDF00063701318DBB2834201D8237001E0013A3B
:10EE00002270FFF797FF002811D0FFF7F9FD0EE001
:10EE10000121002AD6D0311CD4E70029F1D0D3E754
:10EE2000073A51425141301C0029CBD0CCE7F7BD05
:10EE3000942E0020A52F0020A42F0020F02E0020CB
:10EE40000022012138B5284B284D1A80284BD96063
:10EE500019621A705A709A701A71DA801A615A61BE
:10EE60001A811A765A835A629A629A831C1C8023EA
:10EE700020495B050A806A69013205D06869196911
:10EE800089B200F073FB00E0586980210022490537
:10EE90000B6902389BB25843174B1860174B1A6026
:10EEA0001A819A815A81164B08321A706B690133A4
:10EEB00006D00E4B5869096989B200F057FB00E093
:10EEC000486980225205136911699BB20138584381
:10EED00089B200F04BFB03F08FFD002803D1012322
:10EEE000084AA370137038BDF02E002000100010E7
:10EEF000942E0020EE2E0020D02E0020C02E0020C8
:10EF0000A52F0020A42F0020F0B5484B87B01B7818
:10EF10000824002B00D185E00634002800D181E0D0
:10EF2000002900D17EE003680493002B00D179E032
:10EF300080235B051A69858892B2073C954271D897
:10EF40000F2D6FD9C2880192002A6BD0384A0F1C4E
:10EF500012680292019A6A43161CB4460392029AFE
:10EF600062440592334A5169013105D050691969EB
:10EF700089B200F0FBFA00E058698022520513695B
:10EF800001389BB25843059B072483424AD8136932
:10EF900003999BB2994207DD1069291C80B200F0E9
:10EFA0006BFB89B200293DD1032307242B4039D1C3
:10EFB000214A033C1288012A34D002991F48796003
:10EFC0001101441825816D463A60AD88029F658124
:10EFD0006760049F164C0F502768009401908025AD
:10EFE0006C466D0528690133208120899BB28642D9
:10EFF00004D9286920812089361A00E000266C4651
:10F0000028692D6920812089ADB284466744AE42CB
:10F01000E5D20024009801320760019841188B81E5
:10F02000054B1A80201C07B0F0BDC046A42F00205D
:10F03000D02E002000100010EE2E0020C02E002048
:10F04000104B30B51C780823002C19D0063300284B
:10F0500016D0002A14D00368002B10D10A4D2C685A
:10F06000002C0CD02C8940686143091868894443FE
:10F0700068682418A14202D21360516000E007239F
:10F08000181C30BDA42F0020C02E0020F0B5041C99
:10F090001B4885B005780820002D2ED006300029A9
:10F0A0002BD0002C29D025680738002D25D1154DEF
:10F0B0002E68002E21D0666803962E896F896D68B0
:10F0C0007743BC46039F6544AF4216D2002A14D052
:10F0D000B24212D8D518B5420FDC032509302942B7
:10F0E0000BD12B4209D12F4207D1181C131C0090C1
:10F0F0000A1C0220211CFFF7F3FD05B0F0BDC0463D
:10F10000A42F0020C02E0020F0B5041C1B4885B0A1
:10F1100005780820002D2ED0063000292BD0002C99
:10F1200029D025680738002D25D1154D2E68002ED1
:10F1300021D0666803962E896F896D687743BC4637
:10F14000039F6544AF4216D2002A14D0B24212D8AF
:10F15000D518B5420FDC0325093029420BD12B42CB
:10F1600009D12F4207D1181C131C00900A1C05203E
:10F17000211CFFF7B5FD05B0F0BDC046A42F00204F
:10F18000C02E0020F0B5151C244A85B012780293D9
:10F190000824002A3ED0063400293BD0002839D06C
:10F1A0000C68002C33D11E4E3268002A2FD03789CC
:10F1B00073894A687B439C4673689C44624526D2A7
:10F1C000002D24D0BD4222D8029BEB18BB421EDC8E
:10F1D00003239C4618421CD1029F1F4219D1674647
:10F1E000131C3B401F1E14D103950D1C029B029063
:10F1F0009918039A03F0CEFC2B68039A1B01009226
:10F20000F658281C03213A1C029BB04702E0072451
:10F2100000E01024201C05B0F0BDC046A42F002043
:10F22000C02E0020154BF7B51B78041C0820002BBE
:10F2300023D00630002C20D023680738002B1CD1A7
:10F240000F4B1A68002A18D05F681E895B896268B4
:10F250007343DB199A4210D2093093070DD1D01BAA
:10F260000D1C311C00F008FA07200A1E05D1009180
:10F270000338211C2B1CFFF733FDFEBDA42F0020FB
:10F28000C02E002070B50B780C1C142B1BD002D89C
:10F29000132B05D052E0152B1FD0222B45D04DE06B
:10F2A0004E68FFF76DFB6368051C1888B378012270
:10F2B000191C5C08114022406C68DB065B0F002CB7
:10F2C0003CD0A0473AE0FFF75BFB63681A88997867
:10F2D0008368101C002B26D130E04B689A78130904
:10F2E0001207120F012A02D0022A08D011E0013BB6
:10F2F000DBB20025022B0DD8114AD55C0AE00425AB
:10F30000012B07D0023B5942594101354B421D4068
:10F3100000E00025FFF734FB63681A88C368002B00
:10F320000CD0101C291C984708E0FFF729FB6368E4
:10F330001A880369002B01D0101C9847002070BD6B
:10F340002B380200F0B5314E87B034780096002695
:10F35000B44257D11D1C01920C1C061CFFF770FD16
:10F36000002801D009264DE0002D0FD0222003A94E
:10F37000039503F043FB002808D00626082841D057
:10F380001138061C7042464104363BE0002302AAB5
:10F39000101C1370FEF78AFF011EE3D103AD0C228F
:10F3A000281C03F014FC1A4B01270393102302229C
:10F3B00004216879AB71EB712B7A3E403B43B84333
:10F3C000304313433C400B436100041C07262B725F
:10F3D0001C2394432A71019A0C43324092009C43AF
:10F3E00014430C48291C6C71FEF7D0FF002806D08E
:10F3F000042807D0013E082804D0033602E0061C8A
:10F40000009B1F70301C07B0F0BDC046A72F002026
:10F4100085F20100A62F002008B50748FFF728F85D
:10F420000023984206D00733042803D0013B082864
:10F4300000D00333181C08BDA62F0020002373B58D
:10F4400001930F4B01AD1B780E1C291C2B70FFF78D
:10F4500021FA041E04D0042305280FD005330DE043
:10F46000281C311CFEF7CCFF231C002806D00723E4
:10F47000042803D0013B082800D00333181C76BDB4
:10F48000A62F0020F7B5FA26B6007143009308AB0B
:10F490001B78041C081C1549171C019300F066F822
:10F4A00085B2301C25807843104900F05FF86B4628
:10F4B0001B8880B2A3806B461B796080A371032DEB
:10F4C00001D80423238080232288DB019A4200D9BB
:10F4D0002380032801D80422628062889A4202D9DC
:10F4E0008023DB016380201CFEBDC046710200004A
:10F4F00038B50E4B051C0833036000234360A96038
:10F50000C360FE230C1C5B058800994201D90120D1
:10F51000404203F0C7FA031C013C013CA21C02D08C
:10F52000002204C3F9E76860281C38BD803202005D
:10F5300010B5041C044B0833036003F061FA6068E3
:10F5400003F0A5FA201C10BD80320200014B1868A0
:10F550007047C046D42E002002B4714649084900C5
:10F56000095C49008E4402BC7047C0460022430833
:10F570008B4274D303098B425FD3030A8B4244D37B
:10F58000030B8B4228D3030C8B420DD3FF220902BD
:10F5900012BA030C8B4202D31212090265D0030B7C
:10F5A0008B4219D300E0090AC30B8B4201D3CB0372
:10F5B000C01A5241830B8B4201D38B03C01A5241B4
:10F5C000430B8B4201D34B03C01A5241030B8B42B6
:10F5D00001D30B03C01A5241C30A8B4201D3CB02A1
:10F5E000C01A5241830A8B4201D38B02C01A524186
:10F5F000430A8B4201D34B02C01A5241030A8B4289
:10F6000001D30B02C01A5241CDD2C3098B4201D3A0
:10F61000CB01C01A524183098B4201D38B01C01A1E
:10F62000524143098B4201D34B01C01A5241030995
:10F630008B4201D30B01C01A5241C3088B4201D344
:10F64000CB00C01A524183088B4201D38B00C01AF1
:10F65000524143088B4201D34B00C01A5241411A18
:10F6600000D20146524110467047FFE701B5002025
:10F6700000F0FCF802BDC0460029F7D003B5FFF743
:10F6800075FF0EBC4243891A1847C04603460B4318
:10F690007FD4002243088B4274D303098B425FD38B
:10F6A000030A8B4244D3030B8B4228D3030C8B42B7
:10F6B0000DD3FF22090212BA030C8B4202D312129D
:10F6C000090265D0030B8B4219D300E0090AC30B72
:10F6D0008B4201D3CB03C01A5241830B8B4201D31F
:10F6E0008B03C01A5241430B8B4201D34B03C01A08
:10F6F0005241030B8B4201D30B03C01A5241C30A80
:10F700008B4201D3CB02C01A5241830A8B4201D3F0
:10F710008B02C01A5241430A8B4201D34B02C01ADA
:10F720005241030A8B4201D30B02C01A5241CDD27F
:10F73000C3098B4201D3CB01C01A524183098B42CA
:10F7400001D38B01C01A524143098B4201D34B01B3
:10F75000C01A524103098B4201D30B01C01A524116
:10F76000C3088B4201D3CB00C01A524183088B429D
:10F7700001D38B00C01A524143088B4201D34B0086
:10F78000C01A5241411A00D20146524110467047F8
:10F790005DE0CA0F00D04942031000D340425340FD
:10F7A00000229C4603098B422DD3030A8B4212D3BD
:10F7B000FC22890112BA030A8B420CD389019211EF
:10F7C0008B4208D3890192118B4204D389013AD02C
:10F7D000921100E08909C3098B4201D3CB01C01A01
:10F7E000524183098B4201D38B01C01A5241430914
:10F7F0008B4201D34B01C01A524103098B4201D302
:10F800000B01C01A5241C3088B4201D3CB00C01A6E
:10F81000524183088B4201D38B00C01A5241D9D286
:10F8200043088B4201D34B00C01A5241411A00D207
:10F830000146634652415B10104601D34042002B03
:10F8400000D54942704763465B1000D3404201B582
:10F85000002000F00BF802BD0029F8D003B5FFF737
:10F8600015FF0EBC4243891A1847C0467047C04670
:10F87000002B11D1002A0FD1002900D1002802D07D
:10F880000021C943081C07B4024802A14018029095
:10F8900003BDC046D9FFFFFF03B4684601B5029817
:10F8A00000F04CF8019B9E4602B00CBC7047C0466D
:10F8B000F0B54F46464605042D0C2C1CC0B4170469
:10F8C000160C3F0C9946030C7C4375435F4373430E
:10F8D0007D19260CAD199C46AF4203D980235B02EB
:10F8E0009846C4444B465143434324042E0C240CF5
:10F8F0002D0466442C1959188919201C0CBC9046FB
:10F900009946F0BDF0B583B0161C1F1C0090019104
:10F9100000F04CF8041C0D1C221C2B1C301C391C44
:10F92000FFF7C6FF009A019B121A8B410899201C11
:10F930000A604B60291C03B0F0BDC046F0B5141C32
:10F9400083B01D1C0090019100F028F9221C2B1C93
:10F95000061C0F1CFFF7ACFF009A019B121A8B418B
:10F960000899301C0A604B60391C03B0F0BDC046DA
:10F970001C2101231B04984201D3000C10391B0ADF
:10F98000984201D3000A08391B09984201D30009A3
:10F99000043902A2105C40187047C04604030202FA
:10F9A000010101010000000000000000F0B5444624
:10F9B0005F4656464D46F0B41C1C85B0002900DA5F
:10F9C000A9E00F1C0021061C8846101C191C002CE5
:10F9D00000DA97E0341C3D1C82468946B94273D850
:10F9E00070D04946504600F085F98346391C301CDA
:10F9F00000F080F95B46181A031C8346203B9C46A6
:10FA000000D59CE0002300225146009201936346FA
:10FA10009940019151468140019B0091BB4200D920
:10FA200083E000D17EE0009A019B341C3D1CA41AA7
:10FA30009D416346002B00DA9AE0002600270296DB
:10FA4000039701369E4003960126864002960028C1
:10FA500000D171E00099019AD30799464B464E08B0
:10FA60001E435708002301220CE0AF4201D1A642F9
:10FA70000AD8A41BBD4124196D410138A4185D4169
:10FA8000002806D0AF42F0D9013824196D41002872
:10FA9000F8D12022029E039F5B46524236196F41E5
:10FAA00099185AD4281CC8402C1C5B46DC400029FD
:10FAB00068DB041C8C40231C59468840021CB61A83
:10FAC0009F4103E0B0428CD90026002741464B1EDF
:10FAD0009941002300910193009A019B0025544213
:10FAE0009D41331C6340181C3B1C6B40191C009B40
:10FAF000019CC018614105B03CBC90469946A246A5
:10FB0000AB46F0BD4346DB430C1C9846131C00215A
:10FB10005842A1415EE7002746428F4101214942F8
:10FB2000884652E7B14200D87DE7002600270296BA
:10FB30000397002800D08DE7029E039FC6E720218F
:10FB40005346091ACB400022191C0023009201934E
:10FB50004B4683400B4301935CE75A4620239B1A94
:10FB60002A1C9A40201C131C5A46D04018439BE77D
:10FB700020260027331A0026029603970127DF402C
:10FB8000039761E75B4620215D46C91A031CAC4020
:10FB9000CB40191C231C0B438EE7C046F0B54546ED
:10FBA0004E465746E0B4041C82B00D1C9146984660
:10FBB0008B4262D85FD04146484600F09BF8291C32
:10FBC000061C201C00F096F82023311A5B428A465E
:10FBD000C81865D44B4683401F1C4B468B401E1CE7
:10FBE000AF4258D855D0A41BBD41002800DA77E0B9
:10FBF00000220023009201930132824001920123EE
:10FC00008B40009300293CD0FB0798464046720881
:10FC10007B080243012600270CE0AB4201D1A2423F
:10FC20000AD8A41A9D4124196D410139A4197D41B6
:10FC3000002906D0AB42F0D9013924196D410029C1
:10FC4000F8D1202200980199534652420019694187
:10FC50009E183AD42F1CF7405346DD40002E29DB76
:10FC60003C1CB440231C5446A7403A1C801A9941BE
:10FC70000090019105E082429DD900230024009369
:10FC800001940098019902B01CBC90469946A24686
:10FC9000F0BDA342A7D90022002300920193B1E74F
:10FCA00020224B46521AD3401A1C43468B401F1C3D
:10FCB000174392E7534620245646E41A3B1CB540AE
:10FCC000E3401C1C2B1C2343CDE7524620239B1AE8
:10FCD0002A1C9A40271C131C5246D7401F43BBE7DF
:10FCE00020230022581A0023009201930132C240BF
:10FCF000019284E710B5002903D1FFF739FE2030C7
:10FD000002E0081CFFF734FE10BDC046054B10B5DD
:10FD1000041C181E05D0131C02200A1C211C00E024
:10FD200000BF10BD00000000014B18687047C046BE
:10FD300068280020084B10B5041C002B02D00021BD
:10FD400000E000BF054B1868836A002B00D098477D
:10FD5000201C01F08AFDC04600000000C4330200F0
:10FD600008B5024902F0DBFE08BDC04619050200D5
:10FD7000002310B5041C03604360836081814366E7
:10FD8000C281036143618361191C08225C3002F067
:10FD90001EFF054B24626362044BA362044BE362C3
:10FDA000044B236310BDC046A9020200D102020029
:10FDB00009030200152D0200836913B5002B28D119
:10FDC0008364C3640365134B134A1B688262019307
:10FDD000984201D101238361041C00F01FF8606088
:10FDE000201C00F01BF8A060201C00F017F8042174
:10FDF000E06000226068FFF7BBFFA06809210122D4
:10FE0000FFF7B6FFE06812210222FFF7B1FF0123DE
:10FE1000A36113BDC433020061FD0100F8B51D4BA1
:10FE2000061C1D68AB69002B02D1281CFFF7C4FF1C
:10FE30004835AC686B68013B05D40C22A75E002FE7
:10FE400010D06834F7E72B68002B06D1301C042152
:10FE500002F033FE2860002801D02D68E9E70C236A
:10FE6000336016E00123201C5B42E3810233A3814F
:10FE700067662760A760676027616761A7615C307C
:10FE8000391C082202F0A3FE201C6763A763A76445
:10FE9000E764F8BDC43302000E4B70B500251E1C8C
:10FEA0000D4CE41AA410A54204D0AB00F3589847B7
:10FEB0000135F8E703F0DCF8084B00251E1C084C60
:10FEC000E41AA410A54204D0AB00F35898470135BA
:10FED000F8E770BD702800207028002070280020EE
:10FEE0007C28002008B5034B011C186800F054F86A
:10FEF00008BDC0466828002008B5034B011C1868DF
:10FF000000F004F808BDC0466828002030B500297C
:10FF10003ED004390B68002B00DAC9181D4A13685B
:10FF2000141C002B02D14B60116031E099420DD2BC
:10FF300008680A189A4203D11368C3180B60536803
:10FF40004B60216024E08A4203D8131C5A68002ABF
:10FF5000F9D11D685C198C420BD1096869185818D1
:10FF60001960904214D110685268091819605A60DB
:10FF70000EE08C4202D90C23036009E008680C18DB
:10FF8000944203D114685268001908604A605960AD
:10FF900030BDC046DC2E0020032370B5CC1C9C4332
:10FFA0000834051C0C2C01D20C2405E0002C03DACB
:10FFB0000C2300202B6042E08C42F9D3204A1368C6
:10FFC000101C191C002913D00A68121B0DD40B2A0F
:10FFD00002D90A608B181FE08B4202D15A68026076
:10FFE0001BE04A685A600B1C17E00B1C4968E9E7E4
:10FFF000144E3368002B03D1281C00F0D9F8306070
:020000022000DC
:10000000281C211C00F0D4F8031C421CD0D0032271
:10001000C61C964386420AD11C60181C07210B306F
:100020001A1D8843821A0AD05142995007E0311AAA
:10003000281C00F0BDF8431CBAD0331CECE770BD9F
:10004000DC2E0020D82E00200FB40B4B13B51C68FB
:10005000002C05D0A369002B02D1201CFFF7ACFEB9
:1000600005AB201CA168049A019300F057FC16BC54
:1000700008BC04B01847C0466828002008B5034BE8
:10008000011C186802F0ABFD08BDC04668280020BE
:10009000F8B5051C0C1C002804D08369002B01D185
:1000A000FFF78AFE3D4B9C4201D16C6808E03C4B57
:1000B0009C4201D1AC6803E03A4B9C4200D1EC6811
:1000C0000023A289636093B2990663D459071AD4B6
:1000D000D90605D409232B6037331A43A28159E08E
:1000E000082633420AD0281C211C00F015FA0028EB
:1000F00050D1A389A060B343A381A0610422A38946
:100100001343A38112E0616B00290FD0231C4433F9
:10011000994202D0281CFFF7F9FE0020236C60638F
:100120006360834202D0E36B236035E02369002BD8
:1001300003D1281C211C00F043FAA789BEB2B307E3
:100140000FD00123A381184B1849186802F0CBFC8B
:100150000923A7813340092B03D1281C211C02F05D
:1001600004FE2369281C1A1C2360216A6369656ADE
:10017000A847021C6060002082420DDCA3898242F5
:1001800004D120221343A381013805E04022134308
:100190006060A38101204042F8BDC0466433020084
:1001A00084330200A4330200C4330200A12C0200F5
:1001B00038B50023064C051C081C2360FCF774FCB2
:1001C000431C03D12368002B00D02B6038BDC046F0
:1001D000B02F00200FB40B4B13B51C68002C05D0BA
:1001E000A369002B02D1201CFFF7E6FD05AB201C04
:1001F0006168049A019300F031FF16BC08BC04B09A
:100200001847C0466828002008B5034B011C186831
:1002100002F052FD08BDC0466828002038B5002312
:10022000064C051C081C111C236001F099FA431CA4
:1002300003D12368002B00D02B6038BDB02F0020E5
:100240000CB430B5174B9DB01D68002904DA8B2320
:1002500001202B6040421FE0822302AA9B00938171
:10026000002302901061994200D04B1E93605361AD
:1002700001235B42D3810C1C21AB111C281C209A4A
:10028000019300F055FA431C01DA8B232B60002CFC
:1002900002D00023029A13701DB030BC08BC02B01B
:1002A0001847C0466828002038B50C1C0E25495F49
:1002B00001F054F8002803DB636D1B18636503E04D
:1002C000A289024B1340A38138BDC046FFEFFFFF58
:1002D000F8B51E1C8B89051C0C1C171CDB0505D5ED
:1002E0000E23C95E0022022300F056F9A289054BB5
:1002F000281C1340A3813A1C0E23E15E331C00F03E
:1003000071F8F8BDFFEFFFFF38B50C1C0E25495FF3
:1003100000F042F9A389421C03D1054A1340A3818E
:1003200004E0802252011343A381606538BDC046BA
:10033000FFEFFFFF70B5051C0E1C141C002804D035
:100340008369002B01D1FFF737FD234B9C4201D17C
:100350006C6808E0214B9C4201D1AC6803E0204B63
:100360009C4200D1EC68A369A360A3891B070AD54E
:100370002369002B07D023682269F6B2981A6369B3
:1003800098420FDB08E0281C211C00F03FF80028F1
:10039000F1D0012040421DE0281C211C00F0BCF8D7
:1003A0000028F6D1A3680130013BA36023685A1CE2
:1003B00022601E706369984205D0A389301CDB0758
:1003C00008D50A2E06D1281C211C00F0A5F800280B
:1003D000DFD1301C70BDC04664330200843302009C
:1003E000A433020038B5051C0020074C2060081C0F
:1003F000111C1A1CFCF7E2FA431C03D12368002BE2
:1004000000D02B6038BDC046B02F0020354B70B5F2
:100410001D68061C0C1C002D05D0AB69002B02D1F9
:10042000281CFFF7C9FC304B9C4201D16C6808E0E6
:100430002E4B9C4201D1AC6803E02D4B9C4200D175
:10044000EC68A3899AB2110723D4D10607D40922F4
:100450000120326037321343A381404240E053070A
:1004600013D5616B002908D0231C4433994202D074
:10047000301CFFF74BFD002363632422A3899343C1
:10048000A38100236360236923600822A3891343A7
:10049000A3812369002B0BD1A023A2899B001340C9
:1004A00080229200934203D0301C211C00F088F877
:1004B0000123A289134005D00023A36063695B4236
:1004C000A36103E0910700D46369A360002023695E
:1004D000834205D1130603D540231A43A281013874
:1004E00070BDC046682800206433020084330200D7
:1004F000A433020038B50023064C051C081C2360F9
:10050000FCF746FA431C03D12368002B00D02B6074
:1005100038BDC046B02F002038B50B69051C0C1C37
:10052000002B01D100201CE0002804D08369002B9F
:1005300001D1FFF741FC0B4B9C4201D16C6808E0F4
:10054000094B9C4201D1AC6803E0084B9C4200D1AE
:10055000EC680C22A35E002BE4D0281C211C02F0C6
:1005600004FC38BD6433020084330200A43302006B
:1005700008B5011E05D1054B0549186802F0CFFAF0
:1005800003E0044B1868FFF7C7FF08BDC43302003F
:10059000190502006828002038B5051C0020074C0A
:1005A0002060081C111C1A1CFCF76AFA431C03D1BA
:1005B0002368002B00D02B6038BDC046B02F002030
:1005C000F0B58B8991B09B0706D50B1C47330B60A8
:1005D0000B6101234B6145E00C1C0E23C95E061C18
:1005E000002904DA8023A5891D4010D10CE001AA5E
:1005F00001F08AF80028F5DBF023029D1B021D4064
:10060000194BED186B425D418027FF0001E000258A
:100610004027301C391CFFF7BFFC00280CD1A389F0
:100620009A051FD402221343A381231C473323605E
:1006300023610123636115E080220C4BB362A3891F
:1006400020601343A38120616761002D0AD00E232F
:10065000E15E301C01F06AF8002803D00122A38972
:100660001343A38111B0F0BD00E0FFFF61FD010065
:10067000F0B58E6885B0071C0C1C03920193B34241
:1006800045D390238A89DB001A423DD003250969AE
:10069000236801985B1A029363695D43EB0F5D1950
:1006A000029B6D1001331B189D4200D21D1C381C8B
:1006B00053050FD5291CFFF76FFC061E13D0029AB5
:1006C000216902F067FAA289184B13408022134374
:1006D000A38111E02A1C02F099FC061E0CD1381CE3
:1006E0002169FFF713FC0C23402201203B60A38902
:1006F00040421343A38117E0029B2661F61826604F
:100700006561019EED1AA560019BB34200D2019E76
:10071000321C2068039902F046FA0020A3689B1B54
:10072000A36023689E19266005B0F0BD7FFBFFFF24
:10073000F0B59FB0029005938B890E1C171C1B0609
:1007400010D50B69002B0DD14021FFF725FC30603F
:100750003061002804D10C23029A01381360D0E0E4
:1007600040237361002306AD6B6120336B76103339
:10077000AB763C1C2378002B03D1E31B049312D0EF
:1007800003E0252BF9D00134F4E7049B0298311CD7
:100790003A1CFFF76DFF431C00D1ACE06A69049B73
:1007A000944663446B612378002B00D1A3E00122BF
:1007B000002352426A6002A95432521801342B605D
:1007C000EB60AB601370AB654F4F2178381C05228E
:1007D00002F0C6F9002808D0C01B01278740381C4A
:1007E0002B68013418432860EEE72B68DA0604D53D
:1007F0005322202102A8121811701A0704D553227F
:100800002B2102A81218117022782A2A01D0099BE4
:100810000EE0059A111D12680591002A01DB09926C
:1008200004E05242EA60022213432B60013409E0E3
:100830002278303A092A04D80A214B4301349B1804
:10084000F6E7099323782E2B18D163782A2B09D148
:10085000059B02341A1D1B680592002B0DDA01233B
:100860005B420AE0002301342278303A092A04D896
:100870000A214B4301349B18F6E70793234F217855
:10088000381C032202F06CF9002807D0C01B402757
:100890008740381C2B6801341843286021781C4895
:1008A0000622671C297602F05BF9002812D0194B4A
:1008B000002B06D10722059B07339343083305938A
:1008C00014E005AB00930298291C321C124B00E087
:1008D00000BF07E005AB00930298291C321C0E4BA9
:1008E00000F02CF90390039B013304D06B69039A49
:1008F0009B186B613DE7B3890B985B0601D501201E
:1009000040421FB0F0BDC046303802003638020009
:100910003A3802000000000071060200F0B59FB0F6
:10092000061C0F1C02920593002804D08369002B3B
:1009300001D1FFF741FA794B9F4201D1776808E076
:10094000774B9F4201D1B76803E0764B9F4200D1BD
:10095000F768BB891B070AD53B69002B07D000232A
:1009600006AD6B6120336B761033AB763DE0301C07
:10097000391CFFF74BFD0028F1D001204042CAE0AE
:10098000059A111D12680591002A7EDB0992013437
:1009900023782E2B00D189E021786348032202F0CE
:1009A000DFF8002808D0604B0134C01A4023834090
:1009B000181C2B68184328602178631C5B480622AA
:1009C0000293297602F0CCF8002800D191E0584B30
:1009D000002B00D084E00722059B073393430833A4
:1009E00005936B69039A9B186B61029C2378002B1B
:1009F00004D1029BE31A049311D003E0252BF8D015
:100A00000134F3E7049B301C391C029A02F04BFAC4
:100A1000431C7BD06A69049B944663446B612378D2
:100A2000002B73D00122002352426A6002A9543283
:100A3000521801342B60EB60AB601370AB6521780A
:100A40003C48052202F08CF8002809D0394B0134CB
:100A5000C01A01238340181C2B6818432860EEE756
:100A60002B68DA0604D55322202102A8121811702F
:100A70001A0704D553222B2102A8121811702278CC
:100A80002A2A00D17CE7099B05E05242EA60022253
:100A900013432B607BE72278303A092A04D80A21D5
:100AA0004B4301349B18F6E7099371E763782A2BCF
:100AB00009D1059B02341A1D1B680592002B0DDA23
:100AC00001235B420AE0002301342278303A092AEC
:100AD00004D80A214B4301349B18F6E707935BE7E0
:100AE00005AB0093301C291C3A1C134B00E000BFDF
:100AF00007E005AB0093301C291C3A1C0E4B00F09C
:100B00001DF80390039B013300D06AE7BB895B06A5
:100B100000D532E70B981FB0F0BDC0466433020029
:100B200084330200A4330200363802003A3802004F
:100B30000000000030380200A72E0200F0B58BB094
:100B400006920A1C43320793059004920A7E0C1CFD
:100B5000109B6E2A00D1A8E011D8632A22D009D8B0
:100B6000002A00D1B2E0582A00D0C2E045310A7014
:100B70007C4A4FE0642A1DD0692A1BD0B9E0732A51
:100B800000D1A7E009D86F2A29D0702A00D0B0E0A0
:100B9000202209680A43226037E0752A1FD0782A8C
:100BA00033D0A6E00E1C1A684236111D1960136876
:100BB0003370A1E021681A68080606D4490604D5F6
:100BC000111D19600023D55E02E0111D1960156822
:100BD000002D3BDA2D23049A6D42137036E0216814
:100BE0001A68080606D4490604D51568111D19604F
:100BF000ADB202E0111D196015685A4B227E0393B5
:100C00000A276F2A1DD108271BE0221C78214532B4
:100C10001170554A19680392081D226818600D6802
:100C2000100602D4500600D5ADB2D30702D520235A
:100C30001A4322601027002D03D1202322689A43F3
:100C40002260231C002243331A7002E00A27454B1E
:100C500003936368A360002B03DB042221689143A4
:100C60002160002D02D1049E002B0ED0049E281C72
:100C7000391CFEF701FD039B013E5B5C281C3370B1
:100C8000391CFEF773FC051EF1D1082F09D123682A
:100C9000DB0706D563682269934202DC3023013EFC
:100CA0003370049B9B1B23612BE009681A680806BC
:100CB00007D4490605D5111D19601368A28A1A8048
:100CC00004E0111D1960136862691A600023049E14
:100CD000236116E01A68111D196016680021301C86
:100CE000626801F03DFF002801D0801B60606368EE
:100CF00003E0261C42363270012323610023049A4C
:100D00001370079B05980093211C069B09AA02F00B
:100D1000DCF8431C02D10120404221E02369059800
:100D20000699321C079DA847431CF4D023689B07F3
:100D300005D4099BE068984212DA181C10E00025DF
:100D4000E368099A9B1A9D42F3DA221C0123059855
:100D500006991932079EB047431CDCD00135EFE7F6
:100D60000BB0F0BD4138020052380200F0B5B54C6E
:100D7000071CA5440393002386204893499305ABA1
:100D80004A93BE2340000D1C019202A9AE4A5B00AB
:100D90000918CA50AD4A02A904330918CA50019B68
:100DA0001C78002C00D144E1A94E33681B195A78F5
:100DB0000823134023D06B68002B10DD2B683168AB
:100DC0001A788A185278120715D5499A0133029277
:100DD000013249926A682B60013A6A60EBE786212A
:100DE000C023490002AA52185B00D358381C291CA2
:100DF00098470028E2D0019E01360196CFE7019A7C
:100E0000561C252C4FD14793459353782A2B02D15A
:100E10001A3B45930136341C21780B1C303B092BBF
:100E200009D8479B013401930A23019A5343303B6D
:100E300059184791F0E7874E0322301C01F090FECD
:100E4000002808D0801B01268640301C459B0134B9
:100E5000184301934590661C2478672C10D8652CA4
:100E600000D384E05B2C5AD005D8002C00D1E2E0FE
:100E7000252C18D07DE0632C5FD0642C46D078E020
:100E8000702C34D007D86E2C5FD041D8692C70D12B
:100E90000023469341E0752C38D0782C2DD0732C4C
:100EA00067D1022347E06B68002B0EDD2B681A78B0
:100EB000A24200D0BDE001336A682B60499B013A31
:100EC000019301336A60499397E78621C023490063
:100ED00002AA52185B00D358381C291C98470028D6
:100EE000E4D04898002800D09FE00138A5E0459B59
:100EF00001932023019A13434593459B019380233B
:100F0000019A9B0013434593102302E00A2300E05B
:100F10000823469304236E2C0DDC03230BE0311CC5
:100F200005A802F040F8459B061C01934023019A56
:100F30001343459301234B931FE0459B01934023AB
:100F4000019A134345930023F5E74599CB0600D555
:100F500053E7039B499AC80704D5191D03911B68E1
:100F60001A804AE7191D03911B681A6045E705239B
:100F7000E1E703234B93073346936B68002B04DDB3
:100F8000459B01935B0618D51FE08621C0234900CD
:100F900002AA52185B00D358381C291C9847002815
:100FA000EED09EE7499A0192013249926A68013A6D
:100FB0006A60002A13DD01332B602B6824491A78FC
:100FC00009688A1852781207ECD44B9B022B13DC69
:100FD000381C45A92A1C03AB00F068F81FE08621E5
:100FE000C023490002AA52185B00D358381C291CA0
:100FF00098470028E1D074E7042B06DC381C45A98B
:101000002A1C03AB00F0B0F809E0134B002B00D111
:10101000F3E6381C45A92A1C03AB00E000BF0128F9
:1010200007D0022800D0E8E65BE7AB895B0604D571
:1010300001E0489801E001204042A7239B009D4425
:10104000F0BDC04664FDFFFF2516020091000200BE
:101050006C2800203638020000000000F8B5051C9E
:101060000C1C171C1E1C002804D08369002B01D106
:10107000FEF7A2FE0A4B9C4201D16C6808E0094BC6
:101080009C4201D1AC6803E0074B9C4200D1EC6864
:10109000281C3A1C331C211CFFF768FEF8BDC04613
:1010A0006433020084330200A4330200F7B5151C38
:1010B0008A6801900C1C002A06D18A69511E8A4157
:1010C000012152420A43A2602268D20603D41A6860
:1010D000111D196017680026A06900281DD123681A
:1010E0000136DB0603D42B681B783B7001372A6876
:1010F0006B6801322A60A268013B013A6B60A26012
:10110000002A1FD0002BE7DCC0235B00E3580198C6
:10111000291C98470028DFD014E0012808D12B684B
:1011200062691B78D35C002BD9D1002E19D009E05D
:10113000022807D12B680B4A1B781268D3185B78FA
:101140001B07CCD510232268134006D1E268013278
:10115000E260A269002A00D03B70002023699E193A
:101160002661FEBD6C280020F0B50C1C8BB00193ED
:10117000744B0490161C07AA23CB23C2724B059311
:10118000A369032B01D0714B05930022A36803923E
:101190005D32591EFF32914205D95E3BFF3B0393FE
:1011A0005E23FF33A360231C1C330093D02300274E
:1011B00022681B0113432360009B02933268BB002B
:1011C000117807AA9858022201F0CAFC002839D0E9
:1011D000012F0DD16368002B06D1083322686360AC
:1011E000F933FF3313432360594B226813400DE05A
:1011F000022F0CD1C02280212368D2001A4089001E
:101200008A4222D110226260F03213432360A36825
:101210005A1EA260002B15D0029B5D1C33685A1C1D
:1012200032601B78029A029513707368013B7360F9
:10123000002B07DCC0235B00E3580498311C98475F
:10124000002844D10137032FB8D16368002B01D1A6
:101250000A3363601021002763686069C91A3D4B37
:10126000C91801F0A0FE029DA368002B30D032689F
:1012700060691178405C00282AD030290BD12168A0
:10128000090508D5039A0137002A0BD0013A01332A
:101290000392A36006E021682F4B0B402360137874
:1012A0002B7001357368013B7360002B03DD3368DD
:1012B0000133336007E0C0235B00E3580498311C1E
:1012C0009847002804D1A368013BA360CCE700271E
:1012D0002368DB050ED5009B9D4207D9BE23013D47
:1012E0005B002978E3580498321C9847009B012042
:1012F0009D4225D0102223681A401AD12A706368B3
:1013000004980099059EB047019B22681B689106CE
:1013100007D4D10705D501991A1D0A601B681880EA
:1013200004E001991A1D0A601B681860E368013324
:10133000E3600020009BED1A2369ED195D1925611A
:101340000BB0F0BDC833020085130200A5140200E3
:10135000FFFAFFFF63380200FFF6FFFF38B5051CF8
:101360000020074C2060081C111C1A1CFBF750FBC6
:10137000431C03D12368002B00D02B6038BDC0462E
:10138000B02F0020F0B51E1C444B87B01B680590A1
:1013900002930B1C039101921C78029A5D1C121996
:1013A00050780822104001D02B1CF5E72D2C04D1D9
:1013B0009D1C5C780123009304E000902B2C01D14C
:1013C0005C789D1C002E02D0102E0AD160E0302CDB
:1013D0005CD120222B789343582B52D110266C7865
:1013E0000235009F311C7B1E9F412D4BFF18381C7E
:1013F000FEF742F9381C0491311CFEF7B7F80022C1
:10140000071C131C029909194978480701D5303C7B
:1014100007E00320084017D03721012800D02031F1
:10142000641AB44210DA511C0BD0BB4207D802D167
:10143000049A944203DC73430122E31801E0012281
:1014400052422C780135DDE7181C511C0BD1009855
:10145000059A431E9841124BC01822231360019B2A
:10146000002B0AD117E00099002900D05842019BB7
:10147000002B10D0039B002A00D06B1E019A136032
:1014800009E03024002EACD10826AAE70A26A8E7F6
:10149000302CA6D19DE707B0F0BDC0466C280020D7
:1014A000FFFFFF7FF0B51E1C3E4B87B01B68171C6B
:1014B00002930B1C059004911C78029A5D1C121972
:1014C000517808220A4001D02B1CF5E72D2C04D1BD
:1014D0009D1C5C780123019304E001922B2C01D127
:1014E0005C789D1C002E02D0102E0AD154E0302CC6
:1014F00050D120222B789343582B46D110266C785C
:1015000002350120311C4042FEF730F803900120E3
:10151000311C4042FEF7B0F800228C46131C0299A1
:1015200009194978480701D5303C07E003200840F5
:1015300017D03721012800D02031641AB44210DAC4
:10154000511C0BD0039A934206D801D1644503DCA9
:1015500073430122E31801E0012252422C78013545
:10156000DDE7181C511C04D122230599101C0B60C7
:1015700003E00199002900D05842002F0FD0049BAE
:10158000002A00D06B1E3B6009E03024002EB8D149
:101590000826B6E70A26B4E7302CB2D1A9E707B08F
:1015A000F0BDC0466C2800200B1CF7B54D6B4433D2
:1015B0000C1C9D421BD18026F600311CFEF7ECFC72
:1015C000002802D10120404225E0231C6063A6636D
:1015D00046331A78104BC254231C45331A780F4BEC
:1015E000C2542A780E4BC254C018206012E08E6B91
:1015F000291C73001A1C019301F008FD051EE1D09F
:101600008719381C291C321C01F0C4FA019B276081
:101610006563A3630020FEBDFF030000FE0300001E
:10162000FD030000F8B5061C0D1C141C4B1C02D158
:101630000120404261E0002804D08369002B01D1E1
:10164000FEF7BAFB2D4B9C4201D1746808E02C4B8D
:101650009C4201D1B46803E02A4B9C4200D1F4685B
:101660002022A3899343A3819BB25A0713D4DA069D
:10167000DED508273B420AD0301C211CFEF74CFF68
:101680000028D5D1A389A060BB43A381A061042217
:10169000A3891343A381626BEDB26368002A10D063
:1016A000A26B934206DA2368013B23601D706368D6
:1016B000013320E0301C211CFFF776FF0028F2D018
:1016C000B6E721692268002909D08A4207D9511E4C
:1016D0000878A84203D10133216063600DE02364E0
:1016E000231C443363630323A363231C4633E26355
:1016F0001D7023600123281C6360F8BD6433020061
:1017000084330200A433020038B50023064C051CC4
:10171000081C111C236000F08BF8431C03D12368C4
:10172000002B00D02B6038BDB02F002038B500232F
:10173000064C051C081C2360FBF78EF9431C03D1E3
:101740002368002B00D02B6038BDC046B02F00208E
:1017500058220120014B40421A607047B02F0020F0
:1017600058220120014B40421A607047B02F0020E0
:1017700070B51D1CC37F041C5E1901201D2E13DCD7
:101780002818E054E37F0133DBB2E377E154E07FD4
:10179000111C0130C0B2E0772A1C201801F0FAF9C0
:1017A0000020E37FED18E57770BD10B500211F2202
:1017B000041C01F00CFA0023E37710BD011C021C8D
:1017C00008B503680A3134325B6D984708BDF8B537
:1017D000041C0E1C151C1F1C092903D10368111CB5
:1017E0005B6B9847201C311C0A302A1C3B1CFFF7FE
:1017F000BFFF002802D1201CFFF7E0FFF8BD10B5A5
:10180000041CFFF7DBFF211C08C9201C9B6D9847B7
:1018100010BD10B5041C0A30FFF7C7FF201CFFF7EE
:10182000CDFF10BD08B500680368DB68984708BDA8
:1018300008B5022804D880239B014B60002005E0F6
:10184000FEF772FA092303600120404208BD08B583
:101850000120FEF76FFA7047704708B5FFF7FCFFED
:10186000FFF7F9FFFBF726F808BD08B5002801D0FF
:1018700000F001F8FEE700B59BB002A8122100F0CD
:1018800045F808A8132100F041F80EA8122100F035
:101890003DF814A8132100F039F8059B039A96200F
:1018A0001A60099A0C9B1A600F9A129B1A60159A7B
:1018B000179B01921A6000F039F8069B039A962054
:1018C0001A60099A0B9B1A600F9A119B01921A6079
:1018D000159A189B1A6000F029F8DEE770B50D1C08
:1018E000041C161CFBF718F96B1C0ED06368002E45
:1018F00001D0E26800E02269201C0121136000F0A1
:1019000022F8201C002100F018F870BD08B5002254
:10191000FFF7E4FF08BD38B5041CFBF74BFA051CC4
:10192000FBF748FA401BA042FAD338BD08B5FA23AA
:101930009B005843FFF7EFFF08BD08B5007840B2A1
:1019400000F00EF808BD002901D0012907D10023BD
:10195000A022C356D205C133FF339B009950704774
:10196000A0238000DB05C018E02310B50C24DB00A9
:10197000C2588900A243C250C2581143C15010BD81
:1019800003681A1CFC32D1680129FAD10021D16008
:10199000A322D2009858C0B270472F23C046C04639
:1019A000C046C046C046C046C046C046C046C04607
:1019B000C046C046C046C046013B002BEED1704732
:1019C00038B50368041CDB68984763685A68236865
:1019D000002A02D19B68984714E05B681568984715
:1019E00063682D1A002D08DC5A68916859601B68DD
:1019F000002BEAD050689847E7E75A6821681068DA
:101A00000B69984738BD08B5006803681B6898479C
:101A100008BD66DF704748DF7047704708B5FFF7BD
:101A2000FAFF08BD10B5041C01F031F8201C10BDF0
:101A300008B5FBF7C7FF002008BD08B5FCF79EF806
:101A4000031E00D00523181C08BD08B5FCF798FF3D
:101A500008BD08B5FCF794FF08BD08B5FBF7A0FE6C
:101A600008BD08B5FBF7DCFD08BD08B5FBF7D8FDE0
:101A700008BD08B5FBF780FB08BD08B5FBF77CFB8C
:101A800008BD70DF704771DF704772DF704773DF2A
:101A9000704774DF704775DF704776DF704777DF18
:101AA000704778DF704779DF70477ADF70477BDFF8
:101AB00070477CDF70477DDF704786DF704787DFC8
:101AC000704788DF7047022070470220704700206F
